:100000008EC00000A8C00000A6C00000A4C0000070
:10001000A2C00000A0C000009EC000009CC0000064
:100020009AC0000098C0000096C000000C94CD0E4D
:1000300092C0000090C000008EC000008CC0000084
:100040008AC0000088C0000086C00000B2C5000061
:1000500082C0000080C000007EC000007CC00000A4
:100060007AC0000078C0000076C0000074C00000B4
:1000700072C00000200347006C006F007700420050
:10008000650061006E0047006C006F007700200083
:1000900056003200000030035400720061006E0010
:1000A00073006900730074006F0072002E004C0032
:1000B000610062006F007200610074006F007200E6
:1000C00069006500730000000403090409022200AE
:1000D00001010080FA090400000103000000092169
:1000E00011010001221D000705810308000512010E
:1000F000100100000008EB034F2001000102000185
:100100000600FF0901A101150026FF0075089508EA
:1001100009028102090291020902B102C000112400
:100120001FBECFEFD4E0DEBFCDBF12E0A0E0B1E054
:10013000E2E3FBE202C005900D92A234B107D9F7C9
:1001400012E0A2E4B2E001C01D92AA38B107E1F7C3
:100150007FD50C94971554CFCF92DF92EF92FF92F8
:100160000F931F936B017C0120E030E040E05FE4DF
:10017000D4D187FD0FC0C701B60120E030E040E0D8
:100180005FE497D1F8D18B019C01005010402040D2
:10019000304805C0C701B601EED18B019C01B80102
:1001A000C9011F910F91FF90EF90DF90CF900895BC
:1001B000A0E0B0E0EEEDF0E00C94F514EC014B01A2
:1001C000FA018881823008F43EC1DB019C919230B3
:1001D00008F436C1843059F4943009F034C199815F
:1001E00011968C911197981709F027C12CC1943062
:1001F00009F426C19230A9F4823009F024C1CE015D
:1002000028E0DC010D90CD01DA010D92AD01215005
:10021000C1F7D40111968C9111979981892381831B
:1002200011C1823009F40CC1AA80BB80DB01129697
:100230004D915C911397CC80DD80EE80FF80149609
:100240000D911D912D913C911797C501841B950B24
:10025000DC0197FF04C0AA27BB27A81BB90BA0325B
:10026000B1050CF067C01816190684F5280139018C
:100270000A2E04C076946794579447940A94D2F750
:1002800041E050E060E070E004C0440F551F661F7D
:10029000771FAA95D2F741505040604070404023EC
:1002A00051236223732381E090E0A0E0B0E0411588
:1002B00051056105710519F480E090E0DC018C01C5
:1002C0009D0104291529262937293FC00097E9F106
:1002D000AA0EBB1E260137010A2E04C0769467942D
:1002E000579447940A94D2F741E050E060E070E000
:1002F00004C0440F551F661F771FAA95D2F74150BF
:100300005040604070404C215D216E217F2181E092
:1003100090E0A0E0B0E0411551056105710519F4C8
:1003200080E090E0DC016C017D01C428D528E6283E
:10033000F7280BC04A155B0524F400E010E0980193
:1003400004C05A01CC24DD2476018981D4011196A0
:100350009C911197891709F445C0882329F00C193D
:100360001D092E093F0908C0D701C601801B910B4A
:10037000A20BB30B8C019D0137FD04C01182B38227
:10038000A2820BC081E08183B382A2823095209546
:10039000109501951F4F2F4F3F4F048315832683E0
:1003A00037830DC0880F991FAA1FBB1F84839583B5
:1003B000A683B7838281938101979383828384810B
:1003C0009581A681B781AC01BD014150504060408C
:1003D00070404F3F2FEF52072FEF62072FE3720756
:1003E00008F30BC08183B382A2820C0D1D1D2E1D4C
:1003F0003F1D048315832683378383E080834481F4
:1004000055816681778177FF1DC0DB01CA0181704C
:100410009070A070B0707695679557954795842B2E
:10042000952BA62BB72B84839583A683B7838281D4
:10043000938101969383828305C0CAE3D1E003C010
:10044000E40101C0EF01CE01CDB7DEB7E0E10C94CD
:100450001115A0E2B0E0EFE2F2E00C940315DC012C
:10046000CB018D839E83AF83B88729833A834B83E7
:100470005C83CE010596BE01675E7F4F71D2CE01CF
:100480000196BE016F5E7F4F6BD2CE014996BE01D1
:100490006F5E7F4FAE01475F5F4F8ADE8AD1462F86
:1004A000572F682F792FCB01BA01A096E2E00C9468
:1004B0001F15A0E2B0E0EFE5F2E00C940315DC01BB
:1004C000CB018D839E83AF83B88729833A834B8387
:1004D0005C83CE010596BE01675E7F4F41D2CE019F
:1004E0000196BE016F5E7F4F3BD28A8991E08927DA
:1004F0008A8BCE014996BE016F5E7F4FAE01475F8A
:100500005F4F56DE56D1462F572F682F792FCB01DC
:10051000BA01A096E2E00C941F15A8E1B0E0E3E96F
:10052000F2E00C940315DC01CB018D839E83AF8335
:10053000B88729833A834B835C83CE010596BE013D
:100540006F5E7F4F0DD2CE010196BE01675F7F4F78
:1005500007D28989823050F08985823038F0CE0107
:100560004196BE01675F7F4F64D201C08FEF6896EE
:10057000E2E00C941F15ACE0B0E0E1ECF2E00C948A
:100580000115DC01CB0189839A83AB83BC83CE0147
:100590000196BE016B5F7F4FE3D18D81823069F19F
:1005A000823058F1843039F02F81388537FD25C0ED
:1005B0002F31310544F08E81882319F100E010E0DD
:1005C00020E030E822C08EE190E0821B930B098589
:1005D0001A852B853C8504C0369527951795079578
:1005E0008A95D2F78E81882381F0309520951095D9
:1005F00001951F4F2F4F3F4F08C000E010E09801BA
:1006000004C00FEF1FEF2FEF3FE7B801C9012C9691
:10061000E4E00C941D15A8E0B0E0E1E1F3E00C94F7
:10062000FD146B017C011A8261157105810591052C
:1006300019F482E089835DC083E089830EE110E0D4
:100640001C830B83CD82DE82EF82F886C701B60160
:100650005DD09C012150304037FF38C0EE27FF2786
:10066000E21BF30B81E090E0A0E0B0E00E2E04C0AE
:10067000880F991FAA1FBB1F0A94D2F70197A109DF
:10068000B1098C219D21AE21BF2141E050E060E005
:1006900070E00097A105B10519F440E050E0BA01FF
:1006A00004C0F694E794D794C794EA95D2F7C42A85
:1006B000D52AE62AF72ACD82DE82EF82F8868EE1FD
:1006C00090E0821B930B9C838B8313C02115310513
:1006D00081F0022E04C0CC0CDD1CEE1CFF1C0A9421
:1006E000D2F7CD82DE82EF82F886021B130B1C83C9
:1006F0000B83CE0101965DD0462F572F682F792F9F
:10070000CB01BA012896E8E00C941915CF92DF923C
:10071000EF92FF920F931F938B019C01003080E0BA
:10072000180781E0280780E0380750F40F3F1105D3
:100730002105310509F088F480E090E0DC0116C065
:100740000030E0E01E07E0E02E07E1E03E0750F455
:1007500080E190E0A0E0B0E009C088E090E0A0E097
:10076000B0E004C088E190E0A0E0B0E040E250E0FA
:1007700060E070E0481B590B6A0B7B0B6801790144
:1007800004C0F694E794D794C7948A95D2F7D7011A
:10079000C6018E5B9E4FFC018081481B5109610997
:1007A0007109CA011F910F91FF90EF90DF90CF90D8
:1007B0000895CF92DF92EF92FF920F931F93DC0187
:1007C00014964D915D916D917C9117971196EC91D6
:1007D00011978C91823020F460618FEF90E0A5C07A
:1007E000843009F49DC0823009F494C0411551054C
:1007F0006105710509F491C012968D919C91139732
:100800002FEF823892070CF059C022E83FEF281BE7
:10081000390B2A31310564F56A017B01022E04C0CF
:10082000F694E794D794C7940A94D2F781E090E0C5
:10083000A0E0B0E004C0880F991FAA1FBB1F2A9533
:10084000D2F70197A109B10984239523A623B723E1
:1008500041E050E060E070E00097A105B10519F4B7
:1008600040E050E0BA014C295D296E297F2903C080
:1008700040E050E0BA01DB01CA018F779070A070B0
:10088000B07080349105A105B10539F447FF09C066
:10089000405C5F4F6F4F7F4F04C0415C5F4F6F4FB5
:1008A0007F4F81E090E0403020E0520720E0620777
:1008B00020E4720738F580E090E024C0803891058C
:1008C0007CF58A019B010F77107020703070003426
:1008D00011052105310539F447FF09C0405C5F4F20
:1008E0006F4F7F4F04C0415C5F4F6F4F7F4F77FD6D
:1008F00003C081589F4F06C07695679557954795D9
:1009000080589F4F97E076956795579547959A95AC
:10091000D1F70BC080E090E005C080E090E005C01A
:100920008FEF90E040E050E0BA01982F979599271B
:100930009795A62FAF77E795EE27E79586953A2FFF
:10094000392B282F2E2B842F952FA32FB22FBC01AC
:10095000CD011F910F91FF90EF90DF90CF90089500
:10096000DC01FB014C9111965C91119712968C91D0
:100970001297682F6F7770E0982F991F9927991F0A
:1009800013962C911397822F880F892B90E0221FAA
:100990002227221F2183009739F541155105610552
:1009A000710511F482E029C082E89FEF938382836E
:1009B00027E0440F551F661F771F2A95D1F783E064
:1009C000808309C0440F551F661F771F8281938162
:1009D000019793838283403080E0580780E0680766
:1009E00080E4780778F320C08F3F910579F44115B2
:1009F00051056105710519F484E08083089564FF51
:100A000003C081E0808310C010820EC08F579040D9
:100A10009383828383E0808387E0440F551F661FA2
:100A2000771F8A95D1F770644483558366837783F3
:100A30000895CF93FC01DB019081923008F44CC003
:100A40008C91823008F448C0943069F4218184305C
:100A500039F411968C91119790E0821B910944C052
:100A60002223D1F13FC0843021F0923041F4823012
:100A7000B1F111968C9111978823A1F12DC0C181FC
:100A8000823001F111968C911197C817D9F48281A7
:100A9000938112962D913C9113972817390794F062
:100AA00082179307BCF04481558166817781149643
:100AB0008D919D910D90BC91A02D84179507A6074F
:100AC000B70718F4CC2341F00DC0481759076A073F
:100AD0007B0728F4CC2331F081E090E005C080E072
:100AE00090E002C08FEF9FEFCF9108958093420274
:100AF00090914402982B9093440208950F931F9372
:100B000020914502223011F1233030F4213079F167
:100B1000FFD31F910F9108952E3F69F02F3FC1F72A
:100B20008FEF60E040E025E535E500E010E013D60A
:100B30001F910F9108958FEF60E040E02FEF3FEF9E
:100B400000E010E008D61F910F9108953091130135
:100B5000209145023217B1F080E06FEF40E02FEFB7
:100B60003FEF00E010E0F7D51F910F91089580E06E
:100B700060E04FEF2FEF3FEF00E010E0ECD51F916A
:100B80000F9108952FEF30E0FC0136832583C1CF0C
:100B90008093420220914402982F90959223909343
:100BA000440283FF03C08091450281110895E6D578
:100BB000BBC378941F920F920FB60F9211242F93FC
:100BC0003F934F935F936F937F938F939F93AF93D5
:100BD000BF93EF93FF93B2D51CD7FF91EF91BF91D5
:100BE000AF919F918F917F916F915F914F913F91C5
:100BF0002F910F900FBE0F901F90189584B7877F8D
:100C000084BF88E10FB6F894809360001092600072
:100C10000FBE90E080E80FB6F89480936100909347
:100C200061000FBE8AEF60E043E07BD781E060E0C7
:100C300040E080D787D686E795E068EC75E0A6D5DA
:100C40008EE795E07CD3DFD661D30E94BE0E96C5B9
:100C5000D5DF78940FC0813041F480E060E04FEF41
:100C60002FEF3FEF00E010E076D5809145028093B2
:100C700013016AD380E091E00E9428140E94AE1212
:100C80008ED5E0D6809145028230C1F0833018F3D2
:100C90008E3F59F08F3F49F78FEF60E040E02FEF34
:100CA0003FEF00E010E057D5E0CF8FEF60E040E08D
:100CB00025E535E500E010E04ED5D7CF9091130142
:100CC00080914502981789F280E06FEF40E02FEFA6
:100CD0003FEF00E010E03FD5C8CF81E080934502B0
:100CE000089510924502089580E091E00E940F144B
:100CF0009091E20094609093E200882321F48EEFBB
:100D000080934502089582E080934502089580E033
:100D100091E00C94D11280910E0190910F010097F7
:100D200029F0019790930F0180930E010895EF929F
:100D3000FF920F931F93CF93DF9300D0CDB7DEB711
:100D400079014230C9F18FEF9FEF9A838983CE01F9
:100D500001969FD680914402F70180838981818327
:100D60008A81828388E090E0F8019183808390916A
:100D70004402809143029817A1F089819A812091C1
:100D8000440220934302909311018093100181E06B
:100D90000F900F90DF91CF911F910F91FF90EF90E7
:100DA000089589819A812091100130911101821753
:100DB000930729F780E0ECCFC901F1D5F8019183C1
:100DC000808381E0E5CFCF93DF93E901423059F092
:100DD000EAD58F3F29F0CE01B5D4DF91CF910895A8
:100DE000CE01E4D5F8CFC901B1D5DF91CF910895F7
:100DF000DA01933091F1943060F09132F1F0923257
:100E0000A1F080E090E0E0E0F0E01196FC93EE933A
:100E100008959130D1F09230A1F782E290E0ECECAD
:100E2000F0E01196FC93EE9308958DE190E0E0E000
:100E3000F1E01196FC93EE93089589E090E0EEEDD9
:100E4000F0E01196FC93EE93089582E190E0EEEECF
:100E5000F0E01196FC93EE930895813071F08130AB
:100E600028F4E8ECF0E0849190E0CFCF823049F6AE
:100E7000E4E7F0E0849190E0C8CFE6E9F0E0849107
:100E800090E0C3CFFC018091140180838091150113
:100E900081838091160182838FEF9FEF94838383F8
:100EA0008FEF90E0968385830895FC018FEF808318
:100EB0001182828385E595E59483838381E090E0C8
:100EC000968385830895FC0180915802833009F44C
:100ED00061C08430D0F0853009F442C0853030F1F3
:100EE000863009F463C0809155029091560220919A
:100EF00057028083918322838FEF9FEF94838383B4
:100F000088E090E09683858308958130B1F1823046
:100F1000D0F080915502882309F45EC081508093FF
:100F200055029091560220915702E3CF90915602BC
:100F3000992309F448C0915090935602809155022C
:100F400020915702D6CF809155028F3F09F455C0AA
:100F50008F5F809355029091560220915702C9CF1E
:100F6000809155028F3FA1F786E0809358029091BF
:100F70005602209157028FEFBCCF909156029F3FAF
:100F800009F44DC09F5F90935602809155022091C5
:100F90005702AFCF209157022F3FC1F12F5F20930F
:100FA00057028091550290915602A3CF209157028B
:100FB0002223D9F481E080935802809155029091C8
:100FC000560220E096CF85E080935802809155022A
:100FD0002091570290E08DCF83E08093580290914A
:100FE00056022091570280E084CF2150209357026F
:100FF00080915502909156027CCF81E080935802F7
:1010000090915602209157028FEF73CF84E0809326
:10101000580280915502909156022FEF6ACF82E0DC
:101020008093580280915502209157029FEF61CF23
:10103000FC011082118212821482138216821582A0
:101040000895CF93DF93CDB7DEB728970FB6F89406
:10105000DEBF0FBECDBFCE010196F2D380914E020E
:10106000823079F18330A1F0882349F4898180931B
:1010700014018A81809315018B8180931601289633
:101080000FB6F894DEBF0FBECDBFDF91CF910895AC
:101090001092500210924F0210925102109252027E
:1010A00010924A0210924C02EFD390935402809314
:1010B00053028038910518F3109254021092530293
:1010C000DECF1092550210925602109257021092E3
:1010D0005802D5CFCF93DF93EC01809153029091CA
:1010E0005402009709F474C080914D028F708130D2
:1010F00009F441C080914F029091500266E472E081
:10110000D3D380914D028F7090E08130910509F426
:10111000C2C08330910509F4DCC00097A9F4809126
:1011200046028883809147028983809148028A839E
:101130008091490290914A029C838B8380914B025B
:1011400090914C029E838D8380914F02909150022A
:1011500001969093500280934F0220915302309158
:10116000540228173907B8F51092500210924F0216
:10117000DF91CF91089580914A02882379F580917B
:101180005102882369F591E080914C02882309F48B
:1011900097C0809152028150809352028823D9F4E3
:1011A00080914C028823B9F080914B0280935202C7
:1011B00080914C02815080934C0280914D0280734B
:1011C00009F08FC08B819C816CD49C838B8303C07E
:1011D00084E080934E02DF91CF9108958091510277
:1011E000815080935102882309F064C080914A02A3
:1011F000882309F45FC08091490280935102809155
:101200004A02815080934A0228814A8169818091F3
:101210004602992787FD9095820F911D20914802E3
:10122000332727FD3095240F311D40914702552764
:1012300047FD5095460F511D60914602161634F435
:101240008F3F910519F014F08FEF90E06091460206
:1012500067FD57C060914802161634F42F3F3105E0
:1012600019F014F02FEF30E06091480267FD44C0A0
:1012700060914702161634F44F3F510519F014F0EF
:101280004FEF50E06091470267FD31C088832A83A9
:10129000498390E079CF2091490220935102209117
:1012A0004B02209352029E838D8380914F02909136
:1012B00050024ECF90E080914C02882309F069CF14
:1012C00080915202882309F066CF992309F483CFD5
:1012D00011CF809146029091470201971E821D8294
:1012E00037CF8B819C81E4D39C838B8374CF57FF52
:1012F000CDCF40E050E0CACF37FFBACF20E030E09A
:10130000B7CF97FFA7CF80E090E0A4CF9ACE089503
:10131000E0914E02F0E0EE0FFF1FE95EFE4F0190FC
:10132000F081E02D0995089580914E02843021F0DE
:101330008F5F80934E0285CE10924E0282CE9093A4
:101340005A0280935902BBC320915E0280915B02D6
:1013500090E0909389008093880080915D0290E0F6
:1013600090938D0080938C0080915C0290E090932C
:101370008B0080938A0020FD2D9AE0912101F0914D
:101380002201208181E090E00090230102C0880FBB
:10139000991F0A94E2F780958223808385E290E08A
:1013A000909322018093210185E0809323018FE8AF
:1013B00091E00197F1F700C0000020915E0280915A
:1013C0005B0290E0909389008093880080915D0299
:1013D00090E090938D0080938C0080915C0290E06F
:1013E00090938B0080938A0021FF03C02C9A209158
:1013F0005E022D9885E290E0909322018093210176
:1014000084E0809323018FE891E00197F1F700C019
:10141000000080915B0290E09093890080938800A7
:1014200080915D0290E090938D0080938C0080917C
:101430005C0290E090938B0080938A0022FF03C0AF
:10144000289A20915E022C9885E290E090932201E8
:1014500080932101109223018FE891E00197F1F729
:1014600000C0000080915B0290E09093890080931F
:10147000880080915D0290E090938D0080938C00B5
:1014800080915C0290E090938B0080938A0023FF10
:1014900003C05D9A20915E0228988BE290E09093C1
:1014A00022018093210185E0809323018FE891E060
:1014B0000197F1F700C0000080915B0290E09093EB
:1014C00089008093880080915D0290E090938D0068
:1014D00080938C0080915C0290E090938B008093CD
:1014E0008A0024FF03C05C9A20915E025D988BE223
:1014F00090E0909322018093210184E08093230166
:101500008FE891E00197F1F700C0000080915B0245
:1015100090E0909389008093880080915D0290E034
:1015200090938D0080938C0080915C0290E090936A
:101530008B0080938A0025FF03C0599A20915E0298
:101540005C988BE290E0909322018093210181E0EE
:10155000809323018FE891E00197F1F700C000002C
:1015600080915B0290E09093890080938800809145
:101570005D0290E090938D0080938C0080915C02DE
:1015800090E090938B0080938A0026FF03C0589AC6
:1015900020915E0259988BE290E090932201809313
:1015A0002101109223018FE891E00197F1F700C02B
:1015B000000080915B0290E0909389008093880006
:1015C00080915D0290E090938D0080938C008091DB
:1015D0005C0290E090938B0080938A0027FD429AF2
:1015E000589888E290E0909322018093210182E054
:1015F000809323018FE891E00197F1F700C000008C
:1016000080915E0290915F0220915B0230E0309306
:1016100089002093880020915D0230E030938D0096
:1016200020938C0020915C0230E030938B0020935B
:101630008A0090FD449A429888E290E090932201BB
:101640008093210184E0809323018FE891E001974A
:10165000F1F700C0000080915E0290915F0220913E
:101660005B0230E0309389002093880020915D0276
:1016700030E030938D0020938C0020915C0230E0AC
:1016800030938B0020938A0091FD479A449888E21A
:1016900090E0909322018093210187E080932301C1
:1016A0008FE891E00197F1F700C0000080915E02A1
:1016B00090915F0220915B0230E03093890020938B
:1016C000880020915D0230E030938D0020938C00E3
:1016D00020915C0230E030938B0020938A0092FDD1
:1016E0002E9A479885E290E0909322018093210101
:1016F00086E0809323018FE891E00197F1F700C025
:1017000000002E9880916302882369F01092630292
:101710008091600290916102009739F00197909357
:1017200061028093600281E00895E0915902F09196
:101730005A028BE592E0099581E0089581E080935B
:1017400063020895ABE5B2E0FC0188E001900D92E0
:101750008150E1F708950F931F9380935B0260938C
:101760005C0240935D0230935F0220935E0210930F
:101770006102009360021F910F910895EBE5F2E082
:1017800088E0DF011D928A95E9F7089590936F0232
:1017900080936E0270937102609370020895E091DD
:1017A0006602F0E089B18095E959FD4F8083809110
:1017B00066028F5F80936602809167029091680253
:1017C000892390916902892390916A0289239091DB
:1017D0006B0220916D0220936C029823987C909369
:1017E0006D0280916C0290916D02809589238093A7
:1017F000650280916D0290916C028095892380939F
:10180000640280916602853010F010926602809129
:101810006502882369F480916402882309F408959D
:1018200080916402E0917002F0917102099508952F
:1018300080916502E0916E02F0916F020995EBCF05
:101840000F931F93CF93DF93EC018DEF93E00E94F2
:101850005715082F8CEF93E00E945715182F8BEF28
:1018600093E00E945715088319838A838FE790E0DD
:101870009E838D83DF91CF911F910F910895BC01BD
:1018800089EF93E00C94851589EF93E00C945F1534
:10189000660F771F660F771F660F771F60507040C7
:1018A00048E050E00C9464150F931F93CF93DF939F
:1018B000CDB7DEB728970FB6F894DEBF0FBECDBF09
:1018C0008B019C01220F331F220F331F220F331F66
:1018D00020503040CE010196B90148E050E00E940E
:1018E0004715F801DE01119688E00D9001928150B4
:1018F000E1F728960FB6F894DEBF0FBECDBFDF919B
:10190000CF911F910F9108951F93CF93DF930F9263
:10191000CDB7DEB7282F162F8DEF93E0622F4983C6
:101920000E9489158CEF93E0612F0E9489158BEF3F
:1019300093E04981642F0E9489150F90DF91CF9128
:101940001F91089581E0809372020895FC018081C7
:101950008130B9F0833009F008958281982F915039
:101960009330D0F780937202823079F08330A1F700
:10197000809124019091250182DF81E080937202A1
:101980000895828163814481BFCF8FEF9FEF909351
:101990002501809324018FEF80937202089550DF18
:1019A00088E090E00895809172020895CF93DF93CC
:1019B000CDB7DEB728970FB6F894DEBF0FBECDBF08
:1019C000209172022F3F49F028960FB6F894DEBF9F
:1019D0000FBECDBFDF91CF9108956091240170912A
:1019E00025016F5F7F4F7093250160932401DE0115
:1019F0001196FC0188E001900D928150E1F7CE0133
:101A0000019646DFE1CF229A219A529A81E58CBD58
:101A100008958091270190912801019790932801C2
:101A2000809327018091270190912801009749F424
:101A300081E090E0909328018093270181E08093DA
:101A40002601089580912601882311F15A981EBC21
:101A50000DB407FEFDCF8EB51EBC0DB407FEFDCF45
:101A60006EB55A9A809373026093740265FF0EC03C
:101A70008695679566276795682B70E080E090E013
:101A80000E940B030E94AC00609329011092260172
:101A900008952091730230917402FC0131832083F8
:101AA00008959C01220F331F92FD2160C901089502
:101AB0009C013695279580FD3460C9010895E0E8C2
:101AC000F0E0808181608083A1E8B0E08C91886043
:101AD0008C938081806C808380818063808380810F
:101AE0008C608083109289001092880010928B0085
:101AF00010928A0010928D0010928C0087B1846F32
:101B000087B984B1816F84B98AB183638AB98C91B2
:101B100081608C935398569857985B9A5E9A5F9A17
:101B2000089594B5916094BD95B5492B45BD87BD89
:101B300068BD0895882329F080916E0082608093AB
:101B40006E00662329F080916E00846080936E00A1
:101B50000895853098F58093E900982F242F762FEB
:101B600050E021FF19C03091EB003E7F3093EB0035
:101B70003091ED003D7F3093ED003091EB0031600E
:101B80003093EB007093EC002093ED005093F00045
:101B90002091EE0027FF1BC09F5F953079F0909356
:101BA000E900891781F07091EC002091ED005091CF
:101BB000F00021FDD8CF9F5F953089F78F7080931B
:101BC000E90081E00895242F762F50E0CACF80E00D
:101BD00008950F931F93CF93DF93062F662379F118
:101BE000EC0110E09881992331F16B81E981FA8150
:101BF0002C81892F8F70853040F56295660F660FB6
:101C0000607C991F9927991F692B223020F146E0AB
:101C100096E0E930F10560F028E030E040E04F5F09
:101C2000220F331F2E173F07D0F34295407F492BD9
:101C300090DF882351F01F5F2596101799F681E0F9
:101C4000DF91CF911F910F91089580E0DF91CF91A7
:101C50001F910F91089542E092E0DBCF80918202C4
:101C600087FD09C08091E80080FD0EC0809181024F
:101C70008823C1F708958091E80082FD0BC0809110
:101C800081028823C1F708958091E8008E778093C0
:101C9000E80008958091E8008B778093E80008952C
:101CA0002091E4003091E50045E68091EC0080FF52
:101CB0001CC08091E80080FD26C0809181028823AD
:101CC000D1F08530D1F08091EB0085FD18C0809176
:101CD000E4009091E5002817390739F3415089F065
:101CE0009C018091EC0080FDE4CF8091E80082FFB0
:101CF000E4CF80E0089582E0089583E0089581E0D4
:101D0000089584E0089580E0089541D043D0809103
:101D1000D8008F778093D8008091D8008068809316
:101D2000D8008091D8008F7D8093D80084E089BD51
:101D300086E089BD09B400FEFDCF109281021092A9
:101D40007D0210927F0210927E0280E060E042E00D
:101D500000DF8091E1008E7F8093E1008091E200BE
:101D600081608093E2008091E20088608093E200CD
:101D70008091E0008E7F8093E0000895E3E6F0E03C
:101D800080818E7F808381E080938002BECF10921D
:101D9000E20008951092E10008951F920F920FB68D
:101DA0000F9211242F933F934F935F936F937F93E1
:101DB0008F939F93AF93BF93EF93FF938091E10035
:101DC00082FF04C08091E20082FD86C08091E10024
:101DD00080FF04C08091E20080FD69C08091E10035
:101DE00084FF2DC08091E20084FF29C084E089BD7A
:101DF00086E089BD09B400FEFDCF8091D8008F7DBB
:101E00008093D8008091E1008F7E8093E1008091E3
:101E1000E2008F7E8093E2008091E20081608093F7
:101E2000E20080917D02882309F05EC08091E3008A
:101E300087FF5EC084E0809381020E946D068091DE
:101E4000E10083FF04C08091E20083FD11C0FF9197
:101E5000EF91BF91AF919F918F917F916F915F9122
:101E60004F913F912F910F900FBE0F901F9018959B
:101E70008091E100877F8093E10082E0809381027E
:101E800010927D028091E1008E7F8093E10080912D
:101E9000E2008E7F8093E2008091E2008061809377
:101EA000E20080E060E042E054DE57D3D0CF809182
:101EB000E2008E7F8093E2008091E2008061809357
:101EC000E2008091D80080628093D80019BC109203
:101ED00081020E94710682CF8091E1008B7F809306
:101EE000E1000E948B0672CF84E080938102A5CF2F
:101EF00081E0A1CFAF92BF92CF92DF92FF920F937A
:101F00001F93CF93DF93EC018B016A01C9DEF82E9A
:101F1000882339F5C114D10439F0F601808191810B
:101F2000081B190BC80FD91F01151105D1F0C114D9
:101F3000D10449F021C089918093F10001501040F3
:101F40000115110571F08091E80085FDF4CF8091B5
:101F5000E8008E778093E80001D3A2DE882381F326
:101F6000F82E8F2DDF91CF911F910F91FF90DF9071
:101F7000CF90BF90AF900895AA24BB248091E80031
:101F800085FF0DC089918093F1000894A11CB11CBC
:101F90000A151B0531F38091E80085FDF3CF809190
:101FA000E8008E778093E800D9D2F6018081918194
:101FB0008A0D9B1D9183808365E0F62ED2CF209100
:101FC0008802309189022617370758F0611571058C
:101FD00009F067C02091E8002E772093E80020E008
:101FE00030E060E02115310539F5662309F44DC074
:101FF00040918102442309F456C0453009F455C08C
:102000004091E80043FD53C04091E80042FD3DC0CF
:102010004091E80040FFECCF4091F20050E061E0D9
:102020004830510509F060E04091E8004E77409358
:10203000E80021153105C9F240918102442399F14C
:10204000453099F14091E80043FD31C04091E800EE
:1020500042FD1BC04091E80040FFEECF4091F200EE
:1020600050E048305105D8F6FC0103C04830510516
:10207000B1F281918093F100CF01215030404F5F48
:102080005F4F2115310591F7CACF8091E80082FD9D
:1020900010C080918102882331F08530B1F783E050
:1020A00008959B019ECF82E0089583E0089581E02A
:1020B000089580E008956115710529F42091E800E4
:1020C0002B772093E800382F292F6115710521F116
:1020D00080918102882361F1853061F18091E8006F
:1020E00083FD2AC08091E80082FFF2CFE32FF22F18
:1020F0003E2F2F2F8091F200882341F08091F10034
:1021000081933E2F2F2F6150704091F78091E8000E
:102110008B778093E800D9CF8091E80080FD0EC0D6
:1021200080918102882321F08530B1F783E0089502
:1021300082E0089583E0089581E0089580E00895A5
:1021400020918802309189022617370758F06115CF
:10215000710509F066C02091E8002E772093E80011
:1021600020E030E0FC0140E02115310539F5442341
:1021700009F44BC080918102882309F454C0853052
:1021800009F453C08091E80083FD51C08091E800BC
:1021900082FD3BC08091E80080FFECCF8091F2008F
:1021A00090E041E08830910509F040E08091E8003E
:1021B0008E778093E80021153105C9F28091810264
:1021C000882389F1853089F18091E80083FD2FC053
:1021D0008091E80082FD19C08091E80080FFEECF79
:1021E0008091F20090E08830910520F0DACF8830BD
:1021F0009105B9F244914093F1003196215030405D
:1022000001962115310599F7CCCF8091E80082FD28
:1022100010C080918102882331F08530B1F783E0CE
:1022200008959B019FCF82E0089583E0089581E0A7
:10223000089580E008950F931F93CF93DF93CDB758
:10224000DEB7AC970FB6F894DEBF0FBECDBF80915E
:10225000F100809382028091F1008093830280914B
:10226000F100809384028091F10080938502809137
:10227000F100809386028091F10080938702809123
:10228000F100809388028091F100809389020E947E
:1022900087068091E80083FF12C0909182028091AE
:1022A0008302853009F461C0863010F1883009F46A
:1022B000E2C0893009F4C4C0863009F479C0809145
:1022C000E80083FF0AC08091EB0080628093EB00FE
:1022D0008091E800877F8093E800AC960FB6F89471
:1022E000DEBF0FBECDBFDF91CF911F910F9108953B
:1022F000813029F0813008F481C0833001F79923BF
:1023000009F4CCC09230D9F680918402882321F55B
:10231000209186022F7099F22093E9008091EB00C2
:1023200080FF1AC080918302833009F40EC180912E
:10233000EB0080618093EB0081E090E002C0880FA9
:10234000991F2A95E2F78093EA001092EA008091A3
:10235000EB0088608093EB001092E9008091E80028
:10236000877F8093E8007ADCAACF992309F0A7CF72
:10237000109184021F770FB7F8948091E800877F4F
:102380008093E8006BDC8091E80080FFFCCF8091B7
:10239000E3008078812B8093E30080688093E300E2
:1023A000112309F090C082E0809381020FBF87CF94
:1023B0009058923008F083CF8091840290918502EA
:1023C00023E08C3D920709F480C060918602AE0143
:1023D0004F5F5F4F0E94F806BC01009709F46FCF72
:1023E0008091E800877F8093E80089819A81A8DE48
:1023F0008091E8008B778093E80061CF903809F4F2
:1024000059C0923809F05BCF809186028F7080931B
:10241000E9008091EB0091E085FF90E01092E900E7
:102420008091E800877F8093E8009093F1001092FC
:10243000F1008091E8008E778093E8000FDC3FCFB9
:10244000992309F03CCF80918402823008F037CF85
:102450009091E800977F9093E80080937D02FEDBE7
:1024600080917D02882309F468C084E08093810212
:102470000E94740624CF903809F021CF8091E800A3
:10248000877F8093E80080917D028093F1008091A6
:10249000E8008E778093E800E1DB11CF9091840211
:1024A000913009F00CCF91E0833009F090E09093E7
:1024B0007F0252CF90917E0280917F02882309F49F
:1024C000AFCF9260ADCF83E06FCF83E08C838AE2A1
:1024D0008B836FB7F894DE01159680E090E04EE0B4
:1024E00051E209C030E0295C3F4F2D933D930196A6
:1024F0008431910589F0E42FF0E050935700249146
:1025000080FF03C022952F704F5F2F702A3050F745
:1025100030E0205D3F4FE9CF6FBF8091E800877FBB
:102520008093E800CE0103966AE270E048DD809176
:10253000E8008B778093E800C2CE8091E30087FFAC
:102540000AC084E08093810293CF8091EB00806287
:102550008093EB0001CF81E0F5CF0895CF93809178
:102560008102882391F08091E9008F709091EC00B6
:1025700090FD0DC0C0E0C82B1092E9008091E800EA
:1025800083FD0DC0CF70C093E900CF910895C0E8DE
:10259000C82B1092E9008091E80083FFF3CF4BDE57
:1025A000F1CF6F927F928F929F92AF92BF92CF9214
:1025B000DF92EF92FF920F931F93CF93DF9300D0A0
:1025C00000D0CDB7DEB76C01EDB6FEB68091E80065
:1025D00083FF0AC0F601808190E02091860230914D
:1025E000870228173907C1F00FB6F894FEBE0FBE58
:1025F000EDBE0F900F900F900F90DF91CF911F9134
:102600000F91FF90EF90DF90CF90BF90AF909F9091
:102610008F907F906F90089580918302833009F4AA
:1026200063C08430D0F4813009F4A8C08230E1F670
:1026300080918202813AC1F68091E800877F809381
:10264000E8008091E80080FFFCCFF6018485958545
:10265000969587959695879557C08A3009F471C0ED
:102660008B3009F45AC0893009F0BECF80918202C4
:10267000813209F0B9CF7DB68EB6009188021091F3
:102680008902909084024091850241508DB79EB797
:10269000801B910B0FB6F8949EBF0FBE8DBFADB6D9
:1026A000BEB60894A11CB11C8091E800877F80937E
:1026B000E800C501B8014C83FEDC8091E8008E770C
:1026C0008093E8004C819501992009F4A5C02F5F03
:1026D0003F4F81E090E0081B190BC601692D0E9455
:1026E000E3067DBE8EBE80CF80918202813A09F0E2
:1026F0007BCF8091E800877F8093E8008091E8009D
:1027000080FFFCCFF60181858093F1008091E80085
:102710008E778093E800A2DA67CF809182028132BF
:1027200009F062CF8091E800877F8093E80096DA15
:102730009091840281E0992309F480E0F601818779
:1027400053CF80918202813209F04ECF8091E80010
:10275000877F8093E80082DA8091840290918502DD
:1027600080700024880F991F001C880F991F001C7F
:10277000892F902DF6019587848736CF809182022C
:10278000813A09F031CF7DB66EB61B821A828091F4
:102790008402009185028983F60140858DB79EB73A
:1027A000841B91090FB6F8949EBF0FBE8DBFADB6C6
:1027B000BEB60894A11CB11C9A2C8B2CC50160E0FC
:1027C00070E050E05DD1402F4150C601BE016F5F07
:1027D0007F4F95018E010E5F1F4F0E949706F601F5
:1027E00086819781009721F04085B50150E03FD167
:1027F0001092E9008091E800877F8093E8006A8169
:102800007B81892D982DDBDB8091E8008B7780938D
:10281000E8007DBE6EBEE8CE80E090E05CCFCF9356
:10282000DF93FC010996DC0187E0ED0119928A959E
:10283000E9F781E0818784EF91E09587848783E0E1
:102840008483CF01019661E0C4D9DF91CF910895CF
:102850004F925F926F927F928F929F92AF92BF92B0
:10286000CF92DF92EF92FF920F931F93CF93DF935C
:1028700000D00F92CDB7DEB77C01CDB6DEB6809129
:1028800081028430C9F00FB6F894DEBE0FBECDBE13
:102890000F900F900F90DF91CF911F910F91FF90AC
:1028A000EF90DF90CF90BF90AF909F908F907F90F0
:1028B0006F905F904F9008958091E4009091E500B3
:1028C000F7012285338528173907E9F281818F7056
:1028D0008093E9008091E80085FFD5CF7DB66EB684
:1028E00040858DB79EB7841B91090FB6F8949EBFA3
:1028F0000FBE8DBF0DB71EB70F5F1F4F19821B8212
:102900001A82902E812EC80160E070E050E0B8D0AD
:10291000C701BE016F5F7F4F40E098018E010E5FDF
:102920001F4F0E949706182FF70184859585009701
:1029300009F44CC021E030E086859785009709F0C6
:102940004AC02901F701A680B780A114B10409F497
:1029500048C04A815B81892D982DB5017BD001E06B
:102960000097B9F1F7014085C501692D782D50E038
:102970007ED08A819B810097F9F0112329F40023EE
:1029800019F441145104C1F0F701848595859787A6
:10299000868781818F708093E90089818823F1F493
:1029A0006A817B81892D982D40E050E0A3DA8091E7
:1029B000E8008E778093E8008091E4009091E50034
:1029C000F701938782877DBE6EBE5DCF4424552478
:1029D000B9CF00E0C7CF20E030E0B3CF8093F10063
:1029E000DFCF00E0C6CF2F923F924F925F926F925F
:1029F0007F928F929F92AF92BF92CF92DF92EF928F
:102A0000FF920F931F93CF93DF93CDB7DEB7CA1B0F
:102A1000DB0B0FB6F894DEBF0FBECDBF09942A883A
:102A2000398848885F846E847D848C849B84AA84E2
:102A3000B984C884DF80EE80FD800C811B81AA816F
:102A4000B981CE0FD11D0FB6F894DEBF0FBECDBF3A
:102A5000ED010895FB01DC0104C08D910190801906
:102A600021F441505040C8F7881B990B0895FB0191
:102A7000DC0102C001900D9241505040D8F70895FA
:102A8000DC0101C06D9341505040E0F70895DC0136
:102A9000CB01FC01F999FECF06C0F2BDE1BDF89A69
:102AA000319600B40D9241505040B8F70895F9990D
:102AB000FECF92BD81BDF89A992780B50895A8E10F
:102AC000B0E042E050E0E5CFDC01A40FB51F41507B
:102AD000504040F0CB01840F951F2E9105D04150FE
:102AE0005040D8F70895262FF999FECF92BD81BDA9
:102AF000F89A019700B4021639F01FBA20BD0FB63C
:102B0000F894FA9AF99A0FBE08950196272FECDFF0
:102B1000EACF262FF999FECF1FBA92BD81BD20BD05
:102B20000FB6F894FA9AF99A0FBE01960895F894A0
:022B3000FFCFD5
:102B3200008108000001750208000000000000008A
:102B4200FFFF01FDFFFFFF4207550763076A0818F1
:102B520008250005FFFF01010015A120000000006B
:102B62000200A101000000000000000000000000BF
:102B7200000000010202030303030404040404042A
:102B820004040505050505050505050505050505F5
:102B920005050606060606060606060606060606D5
:102BA20006060606060606060606060606060606C3
:102BB20006060707070707070707070707070707A5
:102BC2000707070707070707070707070707070793
:102BD2000707070707070707070707070707070783
:102BE2000707070707070707070707070707070773
:102BF2000707080808080808080808080808080855
:102C02000808080808080808080808080808080842
:102C12000808080808080808080808080808080832
:102C22000808080808080808080808080808080822
:102C32000808080808080808080808080808080812
:102C42000808080808080808080808080808080802
:102C520008080808080808080808080808080808F2
:102C620008080808080808080808080808080808E2
:022C7200080850
:00000001FF
