:100000008EC00000A8C00000A6C00000A4C0000070
:10001000A2C00000A0C000009EC000009CC0000064
:100020009AC0000098C0000096C000000C94791897
:1000300092C0000090C000008EC000008CC0000084
:100040008AC0000088C0000086C0000079C7000098
:1000500082C0000080C000007EC000007CC00000A4
:100060007AC0000078C0000076C0000074C00000B4
:1000700072C00000200347006C006F007700420050
:10008000650061006E0047006C006F007700200083
:1000900056003200000030035400720061006E0010
:1000A00073006900730074006F0072002E004C0032
:1000B000610062006F007200610074006F007200E6
:1000C00069006500730000000403090409022200AE
:1000D00001010080FA090400000103000000092169
:1000E00011010001221D000705810308000512010E
:1000F000100100000008EB034F2001000102000185
:100100000600FF0901A101150026FF0075089508EA
:1001100009028102090291020902B102C000112400
:100120001FBECFEFD4E0DEBFCDBF11E0A0E0B1E055
:10013000EEECFEE302C005900D92AC33B107D9F7A7
:1001400021E0ACE3B1E001C01D92A63FB207E1F7A8
:100150004ED70C94651F54CFCF92DF92EF92FF924F
:100160000F931F936B017C0120E030E040E05FE4DF
:100170007AD387FD0CC020E030E040E05FE4C701A7
:10018000B60197D123D48B019C01305805C0C7011B
:10019000B6011CD48B019C01B801C9011F910F91BC
:1001A000FF90EF90DF90CF900895A4E0B0E0EBEDEA
:1001B000F0E00C94C31E7C016A01FC018081823056
:1001C00008F44AC1FB019081923008F442C18430A6
:1001D00079F4943009F040C1F7019181FB018181EC
:1001E000981709F439C1A3E3EA2EA1E0FA2E34C12D
:1001F000943009F42EC1923091F4823009F02CC170
:1002000088E0F701DA0101900D928A95E1F7FB0190
:100210008181F70191818923FA0181831CC1823098
:1002200009F417C1F70182819381FB01A281B38197
:10023000F7010481158126813781FB018480958037
:10024000A680B780FC01EA1BFB0BAF01F7FF04C0DF
:10025000442755274E1B5F0B403251050CF074C0EC
:100260001E161F06B4F524013501042E04C0769431
:100270006794579447940A94D2F749825A826B82C2
:100280007C82412C512C3201439404C0440C551CF7
:10029000661C771C4A95D2F741E0441A5108610860
:1002A0007108482059206A207B20812C912C540110
:1002B000839445284628472819F4812C912C540111
:1002C00049805A806B807C8084289528A628B7288E
:1002D00046C0EF2B09F443C0840F951F2801390154
:1002E000042E04C076946794579447940A94D2F7E6
:1002F00049825A826B827C82412C512C3201439478
:1003000004C0440C551C661C771C4A95D2F741E08A
:10031000441A510861087108402251226222732256
:1003200001E010E020E030E045284628472819F495
:1003300000E010E0980149805A806B807C8004299D
:100340001529262937290BC0A817B90724F4812CB1
:10035000912C540104C0CD0100E010E09801F70198
:100360004181FB015181451709F446C0442349F0FE
:1003700024013501401A510A620A730A930182016D
:1003800004C0081919092A093B0937FD05C0F601FF
:100390001182938382830CC041E0F60141839383F1
:1003A000828330952095109501951F4F2F4F3F4F19
:1003B00004831583268337830EC0880F991FAA1FD5
:1003C000BB1FF60184839583A683B78382819381C3
:1003D000019793838283F60184819581A681B781F9
:1003E000AC01BD0141505109610971094F3F5F4F97
:1003F0006F4F7F4310F30CC0F601418393838283D8
:10040000080D191D2A1D3B1D048315832683378380
:1004100083E0F6018083448155816681778177FF8F
:100420001AC0DB01CA0181709927AA27BB277695DC
:10043000679557954795842B952BA62BB72B8483CF
:100440009583A683B7838281938101969383828368
:1004500002C07B0101C07601C7012496E0E10C9443
:10046000DF1EA0E2B0E0E7E3F2E00C94D11E6D8F56
:100470007E8F8F8F98A3298F3A8F4B8F5C8FBE0111
:100480006F5E7F4FCE014D962ED4BE01675F7F4FCA
:10049000CE01499628D4AE014F5F5F4FBE01675F22
:1004A0007F4FCE01419681DE54D3A096E2E00C94BA
:1004B000ED1EA0E2B0E0EFE5F2E00C94D11E6D8FEE
:1004C0007E8F8F8F98A3298F3A8F4B8F5C8FBE01C1
:1004D0006F5E7F4FCE014D9606D4BE01675F7F4FA2
:1004E000CE01499600D48A8591E089278A87AE019A
:1004F0004F5F5F4FBE01675F7F4FCE01419655DE74
:1005000028D3A096E2E00C94ED1EA0E2B0E0EBE868
:10051000F2E00C94C31E6D8F7E8F8F8F98A3298F6E
:100520003A8F4B8F5C8FBE016F5E7F4FCE014D9631
:10053000DAD3BE01675F7F4FCE014996D4D3998944
:10054000923008F412C08985823008F41AC09430C1
:1005500021F4823009F4B4C008C0843021F4923010
:1005600009F4AEC00EC0923051F481E02A899A8518
:10057000291301C080E08A8BCE014196A3C082304E
:1005800051F481E02A899A85291301C080E08A8785
:10059000CE01099697C08D889E88AF88B88C0D854E
:1005A0001E852F853889E0E2F0E080E090E0DC01F4
:1005B000C12CD12C760140E050E0BA0180FE18C079
:1005C000400F511F621F731F8C0D9D1DAE1DBF1D5F
:1005D000412C512C32014394401751076207730795
:1005E00018F0412C512C3201840D951DA61DB71D0C
:1005F000CC0CDD1CEE1CFF1C37FF02C06894C0F859
:10060000000F111F221F331FB694A794979487944D
:100610003197A1F62B893C89EB85FC852E0F3F1F76
:100620002E5F3F4F3C832B8321E0EA893A85E31319
:1006300001C020E02A83EB81FC810CC080FF05C053
:1006400076956795579547957068B695A795979550
:1006500087953196B7FDF2CF9F010CC0880F991F87
:10066000AA1FBB1F77FD8160440F551F661F771FB0
:10067000215031090097A105E0E4BE0778F32B83F0
:100680003C838C019D010F771127222733270034EB
:1006900011052105310559F487FD09C0452B462B6D
:1006A000472B29F0805C9F4FAF4FBF4F80788D83E1
:1006B0009E83AF83B88783E08983CE01019602C011
:1006C00083E391E046D2A096E0E10C94DF1EA8E11E
:1006D000B0E0EDE6F3E00C94CB1E6D8B7E8B8F8B40
:1006E000988F298B3A8B4B8B5C8BBE01675F7F4F5A
:1006F000CE014596F8D2BE016F5F7F4FCE01419685
:10070000F2D29985923008F475C08981823008F45C
:1007100074C02A853A8123272A87943011F09230B9
:1007200019F4981367C06CC0843039F41D861E8696
:100730001F86188A1C861B8604C0823029F484E038
:100740008987CE0109965EC08B859C852B813C8173
:10075000821B930B9C878B874D855E856F8578897F
:10076000CD80DE80EF80F8844C155D056E057F0539
:1007700038F4440F551F661F771F01979C878B879E
:10078000EFE1F0E000E010E020E030E480E090E015
:10079000DC014C155D056E057F0540F0802B912B2B
:1007A000A22BB32B4C195D096E097F09369527954D
:1007B00017950795440F551F661F771F319749F707
:1007C0008C019D010F771127222733270034110553
:1007D0002105310559F487FD09C0452B462B472BD0
:1007E00029F0805C9F4FAF4FBF4F80788D879E87E9
:1007F000AF87B88BCE01099605C0CE01019602C025
:1008000083E391E0A6D16896E8E00C94E71EA8E1A6
:10081000B0E0EDE0F4E00C94D11E6D8B7E8B8F8BFD
:10082000988F298B3A8B4B8B5C8BBE01675F7F4F18
:10083000CE01459658D2BE016F5F7F4FCE014196E3
:1008400052D28985823050F08981823038F0BE01E1
:100850006F5F7F4FCE010996B5D201C08FEF6896CA
:10086000E2E00C94ED1EA8E1B0E0E9E3F4E00C94C2
:10087000D11E6D8B7E8B8F8B988F298B3A8B4B8BF8
:100880005C8BBE01675F7F4FCE0145962CD2BE01C7
:100890006F5F7F4FCE01419626D28985823050F01E
:1008A0008981823038F0BE016F5F7F4FCE0109969B
:1008B00089D201C08FEF6896E2E00C94ED1EA8E1AA
:1008C000B0E0E5E6F4E00C94D11E6D8B7E8B8F8B4F
:1008D000988F298B3A8B4B8B5C8BBE01675F7F4F68
:1008E000CE01459600D2BE016F5F7F4FCE0141968B
:1008F000FAD18985823050F08981823038F0BE018A
:100900006F5F7F4FCE0109965DD201C081E068968E
:10091000E2E00C94ED1EA8E0B0E0E1E9F4E00C9414
:10092000CF1E23E029838B019C01002737FD03950F
:10093000112722273327402F0A836115710581056E
:10094000910519F482E0898335C02EE130E03C83C3
:100950002B83442371F061157105810520E892070E
:1009600069F1002711279801061B170B280B390B7B
:1009700002C08B019C01C901B8010E94A81E019709
:10098000181619062CF00D831E832F83388712C08A
:10099000082E04C0000F111F221F331F0A94D2F724
:1009A0000D831E832F8338872EE130E0281B390BFF
:1009B0003C832B83CE010196CCD004C060E070E074
:1009C00080E09FEC2896E4E00C94EB1EACE0B0E0F5
:1009D000ECEEF4E00C94CF1E69877A878B879C87B6
:1009E000BE016F5F7F4FCE0109967DD18981823034
:1009F00091F1823080F1843041F48A81882331F191
:100A000000E010E020E030E829C02B813C8137FD78
:100A100022C02F3131058CF78EE190E0821B930BC1
:100A20000D811E812F81388504C036952795179535
:100A300007958A95D2F78A81882381F03095209591
:100A4000109501951F4F2F4F3F4F08C00FEF1FEF1D
:100A50002FEF3FE703C000E010E09801B801C901A3
:100A60002C96E4E00C94EB1EA8E0B0E0EAE3F5E09D
:100A70000C94CB1E8B019C011A82611571058105B6
:100A8000910519F482E089835DC083E089834EE19A
:100A900050E05C834B83C901B8010E94A81E0197F6
:100AA00097FF39C0EE27FF27E81BF90B41E050E024
:100AB00060E070E00E2E04C0440F551F661F771FC4
:100AC0000A94D2F741505109610971094023512319
:100AD00062237323C12CD12C7601C394452B462B62
:100AE000472B19F4C12CD12C760104C036952795DB
:100AF00017950795EA95D2F70C291D292E293F292C
:100B00000D831E832F8338872EE130E0281B390B9D
:100B10003C832B8317C0009729F40D831E832F83FA
:100B2000388710C0082E04C0000F111F221F331F6A
:100B30000A94D2F70D831E832F833887481B590BE5
:100B40005C834B83CE01019604D02896E8E00C9498
:100B5000E71E0F931F93CF93DF93DC0114964D9103
:100B60005D916D917C9117971196EC9111978C91F5
:100B7000823020F460618FEF90E0A6C0843009F4E9
:100B80009EC0823009F495C041155105610571057B
:100B900009F492C012962D913C91139722388FEF51
:100BA00038070CF058C0C2E8DFEFC21BD30BCA31C4
:100BB000D1056CF58A019B010C2E04C03695279552
:100BC000179507950A94D2F781E090E0A0E0B0E095
:100BD0000C2E04C0880F991FAA1FBB1F0A94D2F7BE
:100BE0000197A109B10984239523A623B72341E0E6
:100BF00050E060E070E0892B8A2B8B2B19F440E0E9
:100C000050E0BA01402B512B622B732B03C040E004
:100C100050E0BA01DB01CA018F779927AA27BB27C9
:100C200080349105A105B10539F447FF09C0405C46
:100C30005F4F6F4F7F4F04C0415C5F4F6F4F7F4FDF
:100C400081E090E041155105610520E4720748F507
:100C500080E090E026C0203831058CF5DB01CA0128
:100C60008F779927AA27BB2780349105A105B10565
:100C700039F447FF09C0405C5F4F6F4F7F4F04C09E
:100C8000415C5F4F6F4F7F4F77FD04C0C9018158B2
:100C90009F4F07C07695679557954795C90180582E
:100CA0009F4F97E076956795579547959A95D1F719
:100CB0000BC080E090E005C080E090E005C08FEFC1
:100CC00090E040E050E0BA01982F9695E0FB97F94C
:100CD000362F80FB37F9642F752F832FDF91CF914B
:100CE0001F910F910895CF92DF92EF92DC01FB01EB
:100CF000CC901196DC90119712968C9112973FE749
:100D0000E32EE8226E2DA60170E0982F991F9927F7
:100D1000991F13962C91822F880F892B90E027FB27
:100D2000222720F92183009729F5411551056105F6
:100D3000710511F482E027C082E89FEF93838283DC
:100D400027E0440F551F661F771F2A95D1F783E0D0
:100D5000808309C0440F551F661F771F82819381CE
:100D600001979383828341155105610580E47807DB
:100D700088F320C08F3F910579F441155105610535
:100D8000710519F484E0808319C0E4FE03C081E09A
:100D9000808310C010820EC08F5791099383828385
:100DA00083E0808387E0440F551F661F771F8A9575
:100DB000D1F770644483558366837783EF90DF9027
:100DC000CF900895CF93FC01DB019081923008F41D
:100DD00052C08C91823008F44EC0943071F484304B
:100DE00039F411962C9130E08181281B310948C0DB
:100DF0008181882309F43FC03BC0843029F41196D7
:100E00008C91811138C034C0923019F48230B9F716
:100E100035C0823069F3C18111968C911197C81346
:100E20001DC02281338112968D919C911397821758
:100E300093070CF413C0281739070CF417C044812A
:100E400055816681778114968D919D910D90BC910D
:100E5000A02D84179507A607B70718F4C11108C07D
:100E60000AC0481759076A077B0740F4C11103C03D
:100E70002FEF3FEF05C021E030E002C020E030E07E
:100E8000C901CF9108950F931F93CF93DF93EC0186
:100E900080914001823049F190F08E3FC1F08F3F48
:100EA00081F400E010E025E535E540E060E08FEFFB
:100EB0000E949814DF91CF911F910F910895813076
:100EC000C9F3CE01DF91CF911F910F91AAC500E028
:100ED00010E02FEF3FEF40E060E08FEF0E949814AA
:100EE000DF91CF911F910F91089590911201809100
:100EF00040019813DFCF0E94DC158E3F11F38FEF76
:100F000090E09E838D83D6CF80933C0190913E01EB
:100F1000982B90933E0186FF08959DC580933C01D8
:100F200020913E01982F9095922390933E019091AD
:100F30004001911101C083FF08950E94B1147CC546
:100F400078941F920F920FB60F9211242F933F9314
:100F50004F935F936F937F938F939F93AF93BF93C1
:100F6000EF93FF930E9482130E941216FF91EF915C
:100F7000BF91AF919F918F917F916F915F914F91B1
:100F80003F912F910F900FBE0F901F90189584B72F
:100F9000877F84BF88E10FB6F89480936000109239
:100FA00060000FBE90E080E80FB6F8948093610077
:100FB000909361000FBE43E060E08AEF0E94351716
:100FC00040E060E081E00E943E170E949B156EE8C1
:100FD00077E084E897E00E94BF1483E497E05AD555
:100FE0000E940C161DD50E946A180C94B114CFDF14
:100FF000789410C0813049F40FEF10E02FEF3FEFED
:101000004FEF60E080E00E94F513809140018093F3
:10101000120146D580E091E00E94D11D0E94501C33
:101020000E94C8140E946216809140018230C9F06B
:1010300008F38E3F61F08F3F41F700E010E02FEFA3
:101040003FEF40E060E08FEF0E949814DECF00E0B9
:1010500010E025E535E540E060E08FEF0E94981450
:10106000D4CF9091120180914001981771F20FEF47
:1010700010E02FEF3FEF40E06FEF80E00E94F513AC
:10108000C4CF81E0809340010895109240010895FB
:1010900080E091E00E94BC1D9091E20094609093EA
:1010A000E200811104C08EEF80934001089582E038
:1010B00080934001089580E091E00C94761C80912B
:1010C0000E0190910F01009729F0019790930F0165
:1010D00080930E010895EF92FF920F931F93CF9389
:1010E000DF9300D0CDB7DEB779014230D1F18FEF79
:1010F0009FEF9A838983CE0101960E942B168091DF
:101100003E01F7018083898181838A81828388E01F
:1011100090E0F8019183808390913E0180913D01A0
:101120009817A1F089819A8120913E0120933D0179
:10113000909311018093100181E00F900F90DF9147
:10114000CF911F910F91FF90EF9008952091100182
:101150003091110189819A818217930729F780E0E4
:10116000ECCFC9010E94D815F8019183808381E0FA
:10117000E4CFCF93DF93E9014230B1F00E94DC1558
:10118000833079F08F3F29F0CE01DF91CF910C941D
:101190008613CE010E94DF15CE01DF91CF910C9412
:1011A0008613DF91CF910895C901DF91CF910C94FF
:1011B000A015292F332723303105D1F17CF02132BE
:1011C000310521F122323105C1F020E030E080E02C
:1011D00090E0FA0191838083C9010895213031059F
:1011E000F1F02230310589F722E230E08CEC90E01A
:1011F000FA0191838083C90108952DE130E080E0F8
:1012000091E0FA0191838083C901089529E030E0DB
:101210008EED90E0FA0191838083C901089522E167
:1012200030E08EEE90E0FA0191838083C901089549
:1012300099278130910589F08230910541F0892B01
:1012400021F6E8ECF0E0249130E0CF01C2CFE4E7F2
:10125000F0E0249130E0CF01BCCFE6E9F0E024914A
:1012600030E0CF01B6CFFC0180915301833009F407
:101270005EC0C8F0853009F440C028F1863009F41A
:1012800062C0809150019091510120915201808360
:10129000918322838FEF9FEF9483838388E090E094
:1012A0009683858308958130A9F1D0F08091500113
:1012B000882309F45EC081508093500190915101C0
:1012C00020915201E4CF90915101992309F448C033
:1012D0009150909351018091500120915201D7CFAC
:1012E000809150018F3F09F455C08F5F809350016A
:1012F0009091510120915201CACF809150018F3FAE
:10130000A1F786E080935301909151012091520101
:101310008FEFBDCF909151019F3F09F44DC09F5F6A
:10132000909351018091500120915201B0CF2091B2
:1013300052012F3FC1F12F5F209352018091500144
:1013400090915101A4CF2091520121111BC081E045
:1013500080935301809150019091510120E097CFEB
:1013600085E080935301809150012091520190E0DB
:101370008ECF83E0809353019091510120915201CF
:1013800080E085CF215020935201809150019091AF
:1013900051017DCF81E080935301909151012091C3
:1013A00052018FEF74CF84E08093530180915001FC
:1013B000909151012FEF6BCF82E080935301809188
:1013C0005001209152019FEF62CFFC0110821182E7
:1013D0001282148213821682158208952F923F92F0
:1013E0004F925F926F927F928F929F92AF92BF9235
:1013F000CF92DF92EF92FF920F931F93CF93DF93E1
:10140000CDB7DEB72F970FB6F894DEBF0FBECDBFB6
:101410009A8389830E943316209118013091190113
:1014200040911A0150911B0144D88B015C016B0162
:101430007C0120E030E0A901EAD918160CF001C1C6
:1014400020E030E040EA51E4B801C5015ED820E078
:1014500030E0A90106D86C837D838E839F8320E0D2
:1014600030E04FE753E4D3D918160CF4E3C020E082
:1014700030E0A901C701B60122DA87FDECC0188669
:1014800019861A861B86C701B601A0DACB0177FD43
:1014900008C16CEE7FEF0E94961E81589F4FBC01E1
:1014A000882777FD8095982F36DA6B83272E382E84
:1014B000092F20E030E0A90102DA87FDC7C01091B2
:1014C0005401612F70E080E090E025DA2B013C01AF
:1014D0009B01AC01BC81AD81EE81FF806B2F7A2F27
:1014E0008E2F9F2DECD987FF0AC011501093540105
:1014F000612F70E080E090E00EDA2B013C0120913A
:101500001C012F87622F70E080E090E004DA4B012D
:101510005C019B01AC01BB816B2F722D832D902F41
:10152000CED987FF0CC08F8581508F8780931C0197
:10153000682F70E080E090E0EED94B015C01F09103
:101540005501FC876F2F70E080E090E0E4D96B01DB
:101550007C019B01AC01B885A985EA85FB856B2FD1
:101560007A2FCF01ACD987FF0CC02C8521502C8756
:1015700020935501622F70E080E090E0CCD96B01A0
:101580007C01A3019201BC81AD817E806F806B2FB5
:101590007A2F872D962D3BD918161CF41F5F1093B8
:1015A0005401A5019401BB816B2F722D832D902FC7
:1015B0002ED918162CF48F858F5F8F8780931C018E
:1015C000A7019601B885A9850A85FB846B2F7A2F20
:1015D000802F9F2D1CD918162CF4EC85EF5FEC871B
:1015E000E0935501E981FA8110832F8521838C8551
:1015F00082838FEF9FEF9483838388E090E09683CC
:1016000085832F960FB6F894DEBF0FBECDBFDF9156
:10161000CF911F910F91FF90EF90DF90CF90BF90EF
:10162000AF909F908F907F906F905F904F903F9082
:101630002F9008951C821D822FE72E8383E48F83D1
:1016400016CF1C821D821E821F8211CF1B82212C6D
:10165000312C00E034CFC701B601905820E030E0D3
:1016600040EA51E40E94850220E030E0A9010E9496
:101670003102688779878A879B8720E030E04FE7CF
:1016800053E4C5D818160CF0FECE18861986EFE77D
:10169000EA87F3E4FB87C701B60198D9CB0177FF4E
:1016A000F8CE919581959109F4CECF93DF93CDB784
:1016B000DEB728970FB6F894DEBF0FBECDBFCE01C0
:1016C00001960E94181580914901823061F18330A2
:1016D000A1F0811109C08981809313018A818093CF
:1016E00014018B818093150128960FB6F894DEBF04
:1016F0000FBECDBFDF91CF91089510924B01109294
:101700004A0110924C0110924D0110924501109225
:1017100047010E9440158038910570F010924F01EA
:1017200010924E01E1CF109250011092510110928F
:10173000520110925301D8CF90934F0180934E01E4
:10174000D3CFCF93DF93EC0120914E0130914F0125
:10175000232B09F45BC0809148018F70813041F1E7
:1017600061E471E080914A0190914B010E94501513
:10177000809148018F7090E08230910509F4E9C0B2
:101780000CF0C8C0009709F4F3C08130910509F04E
:10179000C8C02091440120934C0120914601209320
:1017A0004D019E838D8380914A0190914B01BDC074
:1017B00080914501811130C080914C0181112EC072
:1017C00091E080914701882309F49CC080914D01EC
:1017D000815080934D0181111CC080914701882365
:1017E000C1F08091460180934D0180914701815065
:1017F0008093470180914801807309F0CFC08B81AD
:101800009C810E94F7169C838B8303C084E08093A5
:101810004901DF91CF91089580914C0181508093CF
:101820004C0181116AC080914501882309F465C08B
:101830008091440180934C018091450181508093B7
:10184000450198818A81698140914101552747FD71
:101850005095490F511D20914301332727FD3095A5
:10186000280F311D80914201992787FD9095860FA1
:10187000911D60914101161644F54F3F510529F124
:1018800024F14091410147FDB2C04FEF5091430117
:1018900015161CF52F3F310501F1FCF02091430195
:1018A00027FDA2C02FEF309142011316F4F48F3FB1
:1018B0009105D9F0D4F08091420187FD9BC08FEF54
:1018C00048832A83898390E07CCF6091410167FF40
:1018D000DDCF57FFDBCF40E0D9CF5091430157FF19
:1018E000E2CF37FFE0CF20E0DECF3091420137FF7B
:1018F000E7CF97FFE5CF80E0E3CF90E0809147010D
:10190000811164CF80914D01811162CF992309F437
:1019100080CF26CF8330910509F460C0049709F485
:1019200044C080914A0190914B01019690934B01E4
:1019300080934A0120914E0130914F0128173907B9
:1019400008F067CF10924B0110924A01DF91CF91BE
:1019500008958091410190914201909317018093E5
:1019600016011E821D8280914A0190914B01DDCFAC
:101970008091410188838091420189838091430154
:101980008A8380914401909145019C838B8380914F
:101990004601909147019E838D83C3CF8B819C81AB
:1019A0000E94FE169C838B8334CF0E9433160E94C4
:1019B000AC0080914301909144016817790738F099
:1019C00080914501909146018617970738F48091E0
:1019D0004A0190914B011E821D82A7CF8091410147
:1019E000909142010197F7CF2FEF30E05CCF4FEF9E
:1019F00050E04CCF8FEF90E063CF0F931F932FEF0A
:101A00003FEFFC01348323830FEF10E04091150179
:101A10006091140180911301E8D61F910F910895F0
:101A200044CEE0914901F0E0EE0FFF1FE75DFE4F6D
:101A30000190F081E02D099480914901843021F0DA
:101A40008F5F8093490131CE109249012ECE83E001
:101A5000809349012ACE80914901813081F0833001
:101A600009F0089580911601909117018F3F2FEF93
:101A70009207B9F390934B0180934A0108950E9415
:101A80003316609318017093190180931A01909393
:101A90001B01089590935701809356010C940517EC
:101AA0006F927F928F929F92AF92BF92CF92DF926E
:101AB000EF92FF920F931F93CF93DF938091580182
:101AC0008111F4C220915C018091590190E09093C2
:101AD00089008093880080915B0190E090938D0055
:101AE00080938C0080915A0190E090938B008093BA
:101AF0008A0020FD6FC5E0911D01F0911E0120813B
:101B000081E090E000901F0102C0880F991F0A94A5
:101B1000E2F780958223808385E290E090931E0116
:101B200080931D0185E080931F018FE891E001976C
:101B3000F1F700C0000020915C018091590190E014
:101B4000909389008093880080915B0190E090934E
:101B50008D0080938C0080915A0190E090938B00CF
:101B600080938A0021FD2C9AE0911D01F0911E01C5
:101B7000208181E090E000901F0102C0880F991F32
:101B80000A94E2F780958223808385E290E0909327
:101B90001E0180931D0184E080931F018FE891E076
:101BA0000197F1F700C0000020915C01809159017C
:101BB00090E0909389008093880080915B0190E091
:101BC00090938D0080938C0080915A0190E09093C7
:101BD0008B0080938A0022FD289AE0911D01F091EC
:101BE0001E01208181E090E000901F0102C0880F5B
:101BF000991F0A94E2F780958223808385E290E022
:101C000090931E0180931D0110921F018FE891E0B7
:101C10000197F1F700C0000020915C01809159010B
:101C200090E0909389008093880080915B0190E020
:101C300090938D0080938C0080915A0190E0909356
:101C40008B0080938A0023FD5F9AE0911D01F09143
:101C50001E01208181E090E000901F0102C0880FEA
:101C6000991F0A94E2F78095822380838BE290E0AB
:101C700090931E0180931D0187E080931F018FE8E0
:101C800091E00197F1F700C0000020915C01809184
:101C9000590190E0909389008093880080915B01C6
:101CA00090E090938D0080938C0080915A0190E099
:101CB00090938B0080938A0024FD5D9AE0911D0132
:101CC000F0911E01208181E090E000901F0102C090
:101CD000880F991F0A94E2F78095822380838BE214
:101CE00090E090931E0180931D0185E080931F0179
:101CF0008FE891E00197F1F700C0000020915C01AE
:101D00008091590190E090938900809388008091A0
:101D10005B0190E090938D0080938C0080915A013C
:101D200090E090938B0080938A0025FD5C9AE0916F
:101D30001D01F0911E01208181E090E000901F01C3
:101D400002C0880F991F0A94E2F78095822380834E
:101D50008BE290E090931E0180931D0184E08093BC
:101D60001F018FE891E00197F1F700C0000020917A
:101D70005C018091590190E09093890080938800E4
:101D800080915B0190E090938D0080938C00809116
:101D90005A0190E090938B0080938A0026FD599A17
:101DA000E0911D01F0911E01208181E090E0009002
:101DB0001F0102C0880F991F0A94E2F780958223C1
:101DC00080838BE290E090931E0180931D0181E05F
:101DD00080931F018FE891E00197F1F700C00000A8
:101DE00020915C018091590190E09093890080934B
:101DF000880080915B0190E090938D0080938C002F
:101E000080915A0190E090938B0080938A0027FD87
:101E1000429AE0911D01F0911E01208181E090E045
:101E200000901F0102C0880F991F0A94E2F7809565
:101E30008223808388E290E090931E0180931D01AD
:101E400082E080931F018FE891E00197F1F700C0D5
:101E5000000080915C0190915D012091590130E07A
:101E6000309389002093880020915B0130E030930B
:101E70008D0020938C0020915A0130E030938B002C
:101E800020938A0090FD589AE0911D01F0911E0167
:101E9000208181E090E000901F0102C0880F991F0F
:101EA0000A94E2F78095822380838BE290E09093FE
:101EB0001E0180931D0110921F018FE891E0019790
:101EC000F1F700C0000080915C0190915D012091CC
:101ED000590130E0309389002093880020915B0104
:101EE00030E030938D0020938C0020915A0130E037
:101EF00030938B0020938A0091FD449AE0911D015C
:101F0000F0911E01208181E090E000901F0102C04D
:101F1000880F991F0A94E2F780958223808388E2D4
:101F200090E090931E0180931D0184E080931F0137
:101F30008FE891E00197F1F700C0000080915C010B
:101F400090915D012091590130E0309389002093F8
:101F5000880020915B0130E030938D0020938C004D
:101F600020915A0130E030938B0020938A0092FD3B
:101F7000479AE0911D01F0911E01208181E090E0DF
:101F800000901F0102C0880F991F0A94E2F7809504
:101F90008223808388E290E090931E0180931D014C
:101FA00087E080931F018FE891E00197F1F700C06F
:101FB000000080915C0190915D012091590130E019
:101FC000309389002093880020915B0130E03093AA
:101FD0008D0020938C0020915A0130E030938B00CB
:101FE00020938A0093FDF4C2E0911D01F0911E013F
:101FF000208181E090E000901F0102C0880F991FAE
:102000000A94E2F780958223808385E290E09093A2
:102010001E0180931D0186E080931F018FE891E0EF
:102020000197F1F700C00000E0911D01F0911E0141
:10203000208181E090E000901F0102C0880F991F6D
:102040000A94E2F780958223808380918901882316
:10205000E9F01092890180915801811117C0C09157
:102060008A01D0918B01209709F0B6C280915E0160
:1020700090915F01009709F026C3E0915601F0911D
:102080005701309719F089E591E0099581E0DF91DA
:10209000CF911F910F91FF90EF90DF90CF90BF9065
:1020A000AF909F908F907F906F90089520918501C1
:1020B0008091610190E090938900809388008091E5
:1020C000620190E090938B0080938A00809163017D
:1020D00090E090938D0080938C0020FD2D9AE091EC
:1020E0001D01F0911E01208181E090E000901F0110
:1020F00002C0880F991F0A94E2F78095822380839B
:1021000085E290E090931E0180931D0185E080930D
:102110001F018FE891E00197F1F700C000002091C6
:1021200085018091640190E09093890080938800FC
:102130008091650190E090938B0080938A0080915C
:10214000660190E090938D0080938C0021FD2C9A85
:10215000E0911D01F0911E01208181E090E000904E
:102160001F0102C0880F991F0A94E2F7809582230D
:10217000808385E290E090931E0180931D0184E0AE
:1021800080931F018FE891E00197F1F700C00000F4
:10219000209185018091670190E090938900809360
:1021A00088008091680190E090938B0080938A0072
:1021B0008091690190E090938D0080938C0022FDC6
:1021C000289AE0911D01F0911E01208181E090E0AC
:1021D00000901F0102C0880F991F0A94E2F78095B2
:1021E0008223808385E290E090931E0180931D01FD
:1021F00010921F018FE891E00197F1F700C00000F5
:102200002091850180916A0190E0909389008093EC
:10221000880080916B0190E090938B0080938A00FE
:1022200080916C0190E090938D0080938C0023FD51
:102230005F9AE0911D01F0911E01208181E090E004
:1022400000901F0102C0880F991F0A94E2F7809541
:10225000822380838BE290E090931E0180931D0186
:1022600087E080931F018FE891E00197F1F700C0AC
:1022700000002091850180916D0190E0909389008C
:102280008093880080916E0190E090938B00809302
:102290008A0080916F0190E090938D0080938C0074
:1022A00024FD5D9AE0911D01F0911E01208181E0E5
:1022B00090E000901F0102C0880F991F0A94E2F776
:1022C0008095822380838BE290E090931E0180931F
:1022D0001D0185E080931F018FE891E00197F1F7E0
:1022E00000C00000209185018091700190E09093E2
:1022F0008900809388008091710190E090938B0019
:1023000080938A008091720190E090938D00809379
:102310008C0025FD5C9AE0911D01F0911E01208149
:1023200081E090E000901F0102C0880F991F0A947D
:10233000E2F78095822380838BE290E090931E01E8
:1023400080931D0184E080931F018FE891E0019745
:10235000F1F700C00000209185018091730190E0A9
:1023600090938900809388008091740190E090930D
:102370008B0080938A008091750190E090938D008E
:1023800080938C0026FD599AE0911D01F0911E0169
:10239000208181E090E000901F0102C0880F991F0A
:1023A0000A94E2F78095822380838BE290E09093F9
:1023B0001E0180931D0181E080931F018FE891E051
:1023C0000197F1F700C0000020918501809176010E
:1023D00090E090938900809388008091770190E04D
:1023E00090938B0080938A008091780190E0909385
:1023F0008D0080938C0027FD429AE0911D01F091A1
:102400001E01208181E090E000901F0102C0880F32
:10241000991F0A94E2F780958223808388E290E0F6
:1024200090931E0180931D0182E080931F018FE82D
:1024300091E00197F1F700C0000080918501909133
:1024400086012091790130E0309389002093880043
:1024500020917A0130E030938B0020938A00209104
:102460007B0130E030938D0020938C0090FD589AD2
:10247000E0911D01F0911E01208181E090E000902B
:102480001F0102C0880F991F0A94E2F780958223EA
:1024900080838BE290E090931E0180931D01109247
:1024A0001F018FE891E00197F1F700C000008091D3
:1024B00085019091860120917C0130E03093890064
:1024C0002093880020917D0130E030938B00209391
:1024D0008A0020917E0130E030938D0020938C00A3
:1024E00091FD449AE0911D01F0911E01208181E04F
:1024F00090E000901F0102C0880F991F0A94E2F734
:1025000080958223808388E290E090931E018093DF
:102510001D0184E080931F018FE891E00197F1F79E
:1025200000C00000809185019091860120917F017B
:1025300030E030938900209388002091800130E0C2
:1025400030938B0020938A002091810130E03093FA
:102550008D0020938C0092FD479AE0911D01F0912F
:102560001E01208181E090E000901F0102C0880FD1
:10257000991F0A94E2F780958223808388E290E095
:1025800090931E0180931D0187E080931F018FE8C7
:1025900091E00197F1F700C00000809185019091D2
:1025A00086012091820130E03093890020938800D9
:1025B0002091830130E030938B0020938A0020919A
:1025C000840130E030938D0020938C0093FF0CCD7C
:1025D0002E9A0ACD2D9A8FCA2197D0938B01C09342
:1025E0008A01209190013091910140919201509186
:1025F000930160918C0170918D0180918E01909179
:102600008F010E9431027B018C01982F4E2D5F2D8E
:10261000692F712F40938C0150938D0160938E012F
:1026200070938F01209198013091990140919A0106
:1026300050919B0160919401709195018091960158
:10264000909197010E9431025B016C01982F4A2DF5
:102650005B2D692F7D2D40939401509395016093DC
:102660009601709397012091A0013091A1014091B2
:10267000A2015091A30160919C0170919D018091F4
:102680009E0190919F010E9431023B014C01982FC5
:10269000462D572D692F792D40939C0150939D0114
:1026A00060939E0170939F01CD2B99F48091A401BA
:1026B000809359018091A50180935A018091A601D0
:1026C00080935B01E3CC019790935F0180935E015F
:1026D000DDCC6E2D7F2D802F912F0E94AC0060935A
:1026E00059016A2D7B2D8C2D9D2D0E94AC0060938D
:1026F0005A01662D772D882D992D0E94AC0060938C
:102700005B01C4CC81E0809389010895FC011092A3
:102710008B0110928A012781622F6F70E9F161307D
:1027200009F0089522952F70822F90E08630910550
:10273000C4F7220F422F50E0DA01AA0FBB1FA40FEB
:10274000B51FA955BE4F30813C93318111963C9302
:102750001197328112963C932F5F30E0D901AA0F76
:10276000BB1FA20FB31FA955BE4F23812C932481F9
:1027700011962C931197258112962C9381309105F7
:1027800039F18530910591F0892B59F68681809336
:10279000CB011092CC01089588E0A9E5B1E0019049
:1027A0000D928A95E1F710925801089584E090E027
:1027B0009093CE018093CD0188E2E7EAF1E0A1E6B3
:1027C000B1E001900D928A95E1F760935801089568
:1027D000368120E08091CB019091CC01822B932B0C
:1027E0009093CC018093CB0108958F929F92AF92EA
:1027F000BF92CF92DF92EF92FF920F931F93CF93EE
:10280000DF93982EB62EC42F30935D0120935C0188
:102810008093A4016093A5014093A6018090590183
:10282000682D70E080E090E00E94340560938C0198
:1028300070938D0180938E0190938F01A0905A0127
:102840006A2D70E080E090E00E943405609394016E
:10285000709395018093960190939701D0915B01BD
:102860006D2F70E080E090E00E94340560939C0141
:1028700070939D0180939E0190939F01B80180E029
:1028800090E00E9434056B017C01692D70E06819AD
:102890007109882777FD8095982F0E948B04A701E6
:1028A00096010E9467036093900170939101809359
:1028B0009201909393016B2D70E06A19710988273A
:1028C00077FD8095982F0E948B04A70196010E94A6
:1028D0006703609398017093990180939A01909394
:1028E0009B016C2F70E06D1B7109882777FD809527
:1028F000982F0E948B04A70196010E9467036093A2
:10290000A0017093A1018093A2019093A301109361
:102910008B0100938A01DF91CF911F910F91FF905E
:10292000EF90DF90CF90BF90AF909F908F900895E1
:102930000F931F9310928B0110928A01809359017B
:1029400060935A0140935B0130935D0120935C01D9
:1029500010935F0100935E01109258011F910F9137
:10296000089510928B0110928A01E9E5F1E088E068
:10297000DF011D928A95E9F710925801089590930E
:10298000DA018093D9017093DC016093DB01089533
:10299000E091D101F0E089B18095EE52FE4F808345
:1029A0008091D1018F5F8093D1018091D20190916C
:1029B000D30189239091D40189239091D501892352
:1029C0009091D6012091D8012093D7019823987433
:1029D0009093D8018091D7019091D8018095892357
:1029E0008093D0018091D8019091D701809589235F
:1029F0008093CF018091D101853010F01092D101E8
:102A00008091D00181110CC08091CF01811101C052
:102A100008958091CF01E091DB01F091DC010994F0
:102A20008091D001E091D901F091DA010995ECCFC4
:102A30000F931F93CF93DF93EC018DEF93E00E94F0
:102A4000251F082F8CEF93E00E94251F182F8BEF76
:102A500093E00E94251F088319838A838CE08B836F
:102A600082E08C838FE790E09E838D83DF91CF910E
:102A70001F910F910895BC0189EF93E00C94531FAF
:102A800089EF93E00C942D1F660F771F660F771F59
:102A9000660F771F6050704048E050E00C94321F82
:102AA0000F931F93CF93DF93CDB7DEB728970FB661
:102AB000F894DEBF0FBECDBF8B01BC01660F771F40
:102AC000660F771F660F771F6050704048E050E038
:102AD000CE0101960E94151F88E0FE013196D801B3
:102AE00001900D928A95E1F728960FB6F894DEBF13
:102AF0000FBECDBFDF91CF911F910F9108951F930E
:102B0000CF93DF931F92CDB7DEB7162F682F8DEFCF
:102B100093E049830E94571F612F8CEF93E00E943E
:102B2000571F4981642F8BEF93E00F90DF91CF9176
:102B30001F910C94571F1092DD011092DE01089531
:102B4000FC018081811104C0448163818281D7CFDF
:102B5000813009F0089522812430E0F72093DD01CF
:102B60002230D1F0233071F02130A1F78FEF9FEFA9
:102B700090932101809320012093DE018FEF8093B9
:102B8000DD0108950E94270D8091DD018093DE0113
:102B90008EEF8093DD0108958091200190912101B5
:102BA0006ADF8091DD018093DE011092DD010895DE
:102BB0003FDF88E090E008958091DD010895CF9394
:102BC000DF93CDB7DEB728970FB6F894DEBF0FBE00
:102BD000CDBF2091DD012F3F49F028960FB6F89424
:102BE000DEBF0FBECDBFDF91CF9108956091200170
:102BF000709121016F5F7F4F7093210160932001DD
:102C000028E0FC01DE01119601900D922A95E1F772
:102C1000CE01019639DFE1CF229A219A529A81E5BD
:102C20008CBD089580912301909124010197909388
:102C30002401809323018091230190912401892B09
:102C400049F488EE93E0909324018093230181E07E
:102C50008093220108952091DF013091E001FC0171
:102C600031832083089520E030E040E151E4609119
:102C700025017091260180912701909128010E94E1
:102C8000850220E030E040EA50E40E94670320E043
:102C900030E040E052E40C9431025A98882361F00D
:102CA0008FEF8EBD0DB407FEFDCF8FEF8EBD0DB43F
:102CB00007FEFDCF5A9A08951EBC0DB407FEFDCF46
:102CC0001EBCF5CF1F93CF93DF938091220181111A
:102CD00004C0DF91CF911F91089580E0DEDF5A9804
:102CE00081E08EBD0DB407FEFDCF6EB581E08EBDD7
:102CF0000DB407FEFDCFCEB55A9A6093DF01C093A5
:102D0000E001C5FF6EC0660F70E080E090E00E94B9
:102D10003405FB01462F5F2F682F792F4093250143
:102D2000509326016093270170932801C695CF70B8
:102D3000C0FF15C020E030E040E85DE36E2F7F2F3C
:102D40000E943102FB01462F5F2F682F792F40939D
:102D50002501509326016093270170932801C1FF3C
:102D600015C020E030E040E05EE36E2F7F2F0E9430
:102D70003102FB01462F5F2F682F792F40932501E9
:102D8000509326016093270170932801C2FF15C05C
:102D900020E030E040E85EE36E2F7F2F0E9431029A
:102DA000FB01462F5F2F682F792F40932501509309
:102DB00026016093270170932801C3FF10C020E013
:102DC00030E040E05FE36E2F7F2F0E94310260937E
:102DD000250170932601809327019093280181E0BB
:102DE0005CDF10922201DF91CF911F9108959C0129
:102DF000220F331F93FD2160C90108959C01369570
:102E0000279580FD3860C9010895E0E8F0E08081F1
:102E100081608083A1E8B0E08C9188608C93808190
:102E2000806C808380818063808380818C608083DC
:102E3000109289001092880010928B0010928A00E4
:102E400010928D0010928C0087B1846F87B984B185
:102E5000816F84B98AB1836B8AB98C9181608C93BC
:102E6000539856985B9A5E9A089594B5916094BD74
:102E700095B5492B45BD87BD68BD0895882329F0C8
:102E800080916E00826080936E00662329F08091AD
:102E90006E00846080936E000895853098F580936D
:102EA000E900982F242F762F50E021FF19C0309190
:102EB000EB003E7F3093EB003091ED003D7F30938F
:102EC000ED003091EB0031603093EB007093EC003B
:102ED0002093ED005093F0002091EE0027FF1BC0DF
:102EE0009F5F953079F09093E900891781F0709198
:102EF000EC002091ED005091F00021FDD8CF9F5FB4
:102F0000953089F78F708093E90081E00895242F30
:102F1000762F50E0CACF80E00895EF92FF920F9392
:102F20001F93CF93DF93E62E6623B9F1EC018C015A
:102F30000C5F1F4FF12C9881992349F1F8012081F2
:102F4000E981FA81D80111976C91892F8F708530B2
:102F500060F5223090F146E056E0E930F10560F08E
:102F600028E030E040E04F5F220F331F2E173F076D
:102F7000D0F34295407F452B6295660F660F607CCB
:102F8000991F9927991F692B88DF882371F0F39483
:102F900025960B5F1F4FFE10CECF81E0DF91CF91C2
:102FA0001F910F91FF90EF90089580E0DF91CF91F6
:102FB0001F910F91FF90EF90089542E052E0CDCF26
:102FC0008091EE0187FD09C08091E80080FD0EC070
:102FD0008091ED018111F8CF08958091E80082FD84
:102FE0000BC08091ED018111F8CF08958091E80028
:102FF0008E778093E80008958091E8008B77809326
:10300000E80008952091E4003091E50045E68091C4
:10301000EC0080FF1AC08091E80080FD1AC080910A
:10302000ED018823C1F08530C1F08091EB0085FD72
:1030300016C08091E4009091E5002817390739F314
:1030400041509C0121F784E008958091E80082FFBF
:10305000E6CF80E0089582E0089583E0089581E05E
:10306000089541D043D08091D8008F778093D800C5
:103070008091D80080688093D8008091D8008F7D9F
:103080008093D80084E089BD86E089BD09B400FE44
:10309000FDCF1092ED011092E9011092EB01109218
:1030A000EA0142E060E080E0F8DE8091E1008E7F9E
:1030B0008093E1008091E20081608093E200809142
:1030C000E20088608093E2008091E0008E7F809330
:1030D000E0000895E3E6F0E080818E7F808381E068
:1030E0008093EC01BECF1092E20008951092E100AF
:1030F00008951F920F920FB60F9211242F933F93B2
:103100004F935F936F937F938F939F93AF93BF93EF
:10311000EF93FF938091E10082FF04C08091E20071
:1031200082FD85C08091E10080FF04C08091E200B3
:1031300080FD68C08091E10084FF2CC08091E20096
:1031400084FF28C084E089BD86E089BD09B400FE03
:10315000FDCF8091D8008F7D8093D8008091E100D1
:103160008F7E8093E1008091E2008F7E8093E20069
:103170008091E20081608093E2008091E9018111F9
:103180005EC08091E30087FF5EC084E08093ED0124
:103190000E9441088091E10083FF04C08091E20019
:1031A00083FD11C0FF91EF91BF91AF919F918F91DE
:1031B0007F916F915F914F913F912F910F900FBE33
:1031C0000F901F9018958091E100877F8093E10018
:1031D00082E08093ED011092E9018091E1008E7F01
:1031E0008093E1008091E2008E7F8093E2008091E5
:1031F000E20080618093E20042E060E080E04DDE2A
:103200004ED3D0CF8091E2008E7F8093E2008091F8
:10321000E20080618093E2008091D8008062809318
:10322000D80019BC1092ED010E94450883CF80910F
:10323000E1008B7F8093E1000E945F0873CF84E000
:103240008093ED01A5CF81E0A1CFBF92CF92DF9215
:10325000EF92FF920F931F93CF93DF938C01EB01BB
:103260007A01D0DEB82E81111CC0E114F10469F19D
:10327000F70120813181C21BD30BF801E20FF31F4C
:10328000209779F0C12CD12C8091E80085FF2BC0CC
:1032900081918093F1008FEFC81AD80ACC15DD0513
:1032A00099F78B2DDF91CF911F910F91FF90EF90A8
:1032B000DF90CF90BF9008958091E8008E77809343
:1032C000E800EED29FDE81111EC0209751F390914D
:1032D000E80095FFF1CFF80181918F018093F10013
:1032E0002197A9F7DECF8091E8008E778093E800E0
:1032F000D7D2F701808191818C0D9D1D91838083B0
:1033000025E0B22ECECFB82ECCCF2091F401309153
:10331000F5012617370758F06115710509F067C0E8
:103320002091E8002E772093E80020E030E060E074
:103330002115310539F5662309F44DC04091ED01A1
:10334000442309F456C0453009F44FC04091E800C9
:1033500043FD51C04091E80042FD3DC04091E8006E
:1033600040FFECCF4091F20050E061E04830510561
:1033700009F060E04091E8004E774093E8002115A5
:103380003105C9F24091ED01442399F1453069F1CD
:103390004091E80043FD2FC04091E80042FD1BC072
:1033A0004091E80040FFEECF4091F20050E04830FD
:1033B0005105D8F6FC0103C048305105B1F28191A6
:1033C0008093F100CF01215031094F5F5F4F2115EC
:1033D000310591F7CACF8091E80082FD0EC080913F
:1033E000ED01882331F08530B1F783E008959B012A
:1033F0009ECF82E0089581E0089580E008956115F0
:10340000710529F42091E8002B772093E800382FEC
:10341000292F6115710521F18091ED01882361F15A
:10342000853041F18091E80083FD28C08091E8005B
:1034300082FFF2CFE32FF22F3E2F2F2F8091F20049
:10344000882341F08091F10081933E2F2F2F61500E
:10345000710991F78091E8008B778093E800D9CFCC
:103460008091E80080FD0CC08091ED01882321F05F
:103470008530B1F783E0089582E0089581E00895F2
:1034800080E008952091F4013091F5012617370767
:1034900058F06115710509F065C02091E8002E779C
:1034A0002093E80020E030E0FC0140E021153105E8
:1034B00031F5442309F44AC08091ED01882309F4D1
:1034C00053C0853009F44CC08091E80083FD4EC0A4
:1034D0008091E80082FD3AC08091E80080FFECCF47
:1034E0008091F20090E041E0089709F040E080917F
:1034F000E8008E778093E80021153105D1F28091A4
:10350000ED01882389F1853059F18091E80083FD30
:103510002DC08091E80082FD19C08091E80080FFF5
:10352000EECF8091F20090E08830910520F0DBCF63
:1035300088309105C1F244914093F10031962150B9
:10354000310901962115310599F7CDCF8091E80019
:1035500082FD0EC08091ED01882331F08530B1F7F6
:1035600083E008959B01A0CF82E0089581E0089553
:1035700080E00895EF92FF920F931F93CF93DF9314
:10358000CDB7DEB7AC970FB6F894DEBF0FBECDBF98
:103590008091F1008093EE018091F1008093EF0122
:1035A0008091F1008093F0018091F1008093F1010E
:1035B0008091F1008093F2018091F1008093F301FA
:1035C0008091F1008093F4018091F1008093F501E6
:1035D0000E945B088091E80083FF11C08091EE019A
:1035E0002091EF01253009F462C020F1283009F460
:1035F000E8C0293009F4CBC0263009F47DC08091A1
:10360000E80083FF0AC08091EB0080628093EB00AA
:103610008091E800877F8093E800AC960FB6F8941D
:10362000DEBF0FBECDBFDF91CF911F910F91FF90F5
:10363000EF900895213021F008F484C02330F9F68A
:10364000882309F4D1C08230D1F68091F001811134
:1036500025C08091F2019091F3018F709927009716
:1036600071F28093E9003091EB0030FF17C02330F6
:1036700009F40DC19091EB0090619093EB0021E073
:1036800030E001C0220F8A95EAF72093EA001092F9
:10369000EA008091EB0088608093EB001092E900D3
:1036A0008091E800877F8093E8008ADCA8CF8111B1
:1036B000A6CF0091F0011091F1010F771127E02EB4
:1036C000FFB6F8948091E800877F8093E80078DC6B
:1036D0008091E80080FFFCCF8091E3008078802B10
:1036E0008093E30080688093E300E11092C082E061
:1036F0008093ED01FFBE83CF8058823008F07FCFEA
:103700008091F0019091F1018C3D23E0920709F442
:1037100082C0AE01455D5F4F6091F2010E94D90801
:10372000009709F46CCF2091E800277F2093E800F0
:10373000BC018BA59CA5A6DE8091E8008B778093C9
:10374000E8005DCF803809F45BC0823809F057CFBC
:103750008091F2019091F3018F7099278093E90095
:103760009091EB0095FB992790F91092E9008091D8
:10377000E800877F8093E8009093F1001092F100B9
:103780008091E8008E778093E8001ADC38CF8111B1
:1037900036CF8091F001823008F031CF9091E8006F
:1037A000977F9093E8008093E9010ADC8091E9011A
:1037B000882309F464C084E08093ED010E944808E6
:1037C0001ECF803809F01BCF8091E800877F80935F
:1037D000E8008091E9018093F1008091E8008E7704
:1037E0008093E800EDDB0BCF8091F001813009F090
:1037F00006CF81E0233009F080E08093EB014ECFCB
:103800009091EA018091EB01882309F4B0CF926096
:10381000AECF83E06DCF83E08A838AE289835FB78E
:10382000F894DE01139620E03EE041E207C090E00C
:10383000C7968D939D932F5F243181F0E32FF0E0A5
:1038400040935700849120FF03C082958F703F5FA3
:103850008F708A3060F790E0C096EBCF5FBF8091A9
:10386000E800877F8093E8006AE270E0CE0101966D
:103870004CDD8091E8008B778093E800C0CE80918A
:10388000E30087FF0AC084E08093ED0197CF809129
:10389000EB0080628093EB0001CF81E0F5CF0895CB
:1038A000CF938091ED018823A1F08091E9008F7082
:1038B0009091EC0090FD0FC090E0C92FC82B1092A2
:1038C000E9009091E80093FD0FC08C2F8F708093DA
:1038D000E900CF91089590E8C92FC82B1092E90014
:1038E0009091E80093FFF1CF45DEEFCF4F925F92CA
:1038F0006F927F928F929F92AF92BF92CF92DF9200
:10390000EF92FF920F931F93CF93DF9300D01F92FC
:10391000CDB7DEB76C01EDB6FEB68091E80083FF4F
:103920000AC0F601808190E02091F2013091F3010C
:1039300028173907C9F00FB6F894FEBE0FBEEDBECA
:103940000F900F900F90DF91CF911F910F91FF90EB
:10395000EF90DF90CF90BF90AF909F908F907F902F
:103960006F905F904F9008958091EF01833009F43C
:1039700066C0D0F4813009F48FC08230E1F68091C6
:10398000EE01813AC1F68091E800877F8093E800DC
:103990008091E80080FFFCCFF6018485958596959F
:1039A0008795969587955BC08A3009F4C8C08B309F
:1039B00009F45EC0893009F0BECF8091EE018132FA
:1039C00009F0B9CF6DB67EB6A090F401B090F501C4
:1039D0005090F0014090F1018DB79EB78A199B0974
:1039E0000FB6F8949EBF0FBE8DBF8DB69EB6EFEF9B
:1039F0008E1A9E0A8091E800877F8093E800B501C7
:103A0000C401FDDC8091E8008E778093E80021E01E
:103A1000511001C020E030E08501021B130B280D7E
:103A2000391D442D4150652DC6010E94B908862DCF
:103A3000972D0FB6F8949EBF0FBE8DBF7CCF80919F
:103A4000EE01813A09F077CF8091E800877F80937B
:103A5000E8008091E80080FFFCCFF601818580932B
:103A6000F1008091E8008E778093E800A9DA63CFB7
:103A70008091EE01813209F05ECF8091E800877F6E
:103A80008093E8009DDA9091F00181E0911101C0EE
:103A900080E0F60181874FCF8091EE01813A09F0F5
:103AA0004ACF8DB69EB61A8219828091F00110918C
:103AB000F1018B83F60140858DB79EB7841B910978
:103AC0000FB6F8949EBF0FBE8DBFADB6BEB6EFEF7A
:103AD000AE1ABE0A350150E060E070E0C5019ED12B
:103AE000412F41508E010F5F1F4F9501BE016D5F49
:103AF0007F4FC6010E946B08F60126813781211590
:103B0000310529F0408550E0B501C9017ED1109200
:103B1000E9008091E800877F8093E80069817A81DD
:103B2000C301F3DB8091E8008B778093E800882D58
:103B3000992D0FB6F8949EBF0FBE8DBFFCCE80911D
:103B4000EE01813209F0F7CE8091E800877F809303
:103B5000E80036DA8091F0019091F1018827002485
:103B6000880F991F001C880F991F001C892F902D0A
:103B7000F60195878487DFCE9C01275F3F4FF901CF
:103B800027E0DF011D922A95E9F721E0FC0121875A
:103B900024EF31E03587248723E0248361E0019618
:103BA000BCC95F926F927F928F929F92AF92BF92A9
:103BB000CF92DF92EF92FF920F931F93CF93DF93F9
:103BC00000D01F92CDB7DEB77C01CDB6DEB68091B6
:103BD000ED018430C1F00FB6F894DEBE0FBECDBE4D
:103BE0000F900F900F90DF91CF911F910F91FF9049
:103BF000EF90DF90CF90BF90AF909F908F907F908D
:103C00006F905F9008958091E4009091E500F70136
:103C10002285338528173907F1F281818F708093CF
:103C2000E9008091E80085FFD6CF8DB69EB640852D
:103C30008DB79EB7841B91090FB6F8949EBF0FBE37
:103C40008DBFADB6BEB6EFEFAE1ABE0A1B821A82AA
:103C50001982350150E060E070E0C501DFD08E01CF
:103C60000F5F1F4F950140E0BE016D5F7F4FC701A1
:103C70000E946B08182FF70184859585892B09F41C
:103C80004CC001E086859785892B09F046C0F70175
:103C9000A680B780A114B10409F446C049815A81B5
:103CA000B501C301A5D0552453940097C1F1F70184
:103CB000408550E0B301C501A8D029813A81232B6A
:103CC000E9F0111104C0511002C00023B9F0F7014E
:103CD000848595859787868781818F708093E90099
:103CE0008B8181111EC069817A8140E050E0C3015F
:103CF000ACDA8091E8008E778093E8008091E40050
:103D00009091E500F70193878287882D992D0FB652
:103D1000F8949EBF0FBE8DBF5ECF00E0B8CF512C90
:103D2000C6CF8093F100DFCF512CC7CF5527002499
:103D300080FF02C0060E571F660F771F61157105C1
:103D400021F096958795009799F7952F802D0895E6
:103D500006D084FF0895CB0102D0805F0895AA2782
:103D6000992329F4A85F982B11F480E108959031EC
:103D700018F4AD5F9295A395990FE8F78A2F9927CC
:103D800008952F923F924F925F926F927F928F92FF
:103D90009F92AF92BF92CF92DF92EF92FF920F93DA
:103DA0001F93CF93DF93CDB7DEB7CA1BDB0B0FB6E4
:103DB000F894DEBF0FBECDBF09942A8839884888A1
:103DC0005F846E847D848C849B84AA84B984C88437
:103DD000DF80EE80FD800C811B81AA81B981CE0F2E
:103DE000D11D0FB6F894DEBF0FBECDBFED01089513
:103DF000FB01DC0104C08D910190801921F4415038
:103E00005040C8F7881B990B0895FB01DC0102C0E4
:103E100001900D9241505040D8F70895DC0101C047
:103E20006D9341505040E0F70895DC01CB01FC0157
:103E3000F999FECF06C0F2BDE1BDF89A319600B403
:103E40000D9241505040B8F70895F999FECF92BDB8
:103E500081BDF89A992780B50895A8E1B0E042E0C5
:103E600050E0E5CFDC01A40FB51F4150504040F0B9
:103E7000CB01840F951F2E9105D041505040D8F7AB
:103E80000895262FF999FECF92BD81BDF89A01972A
:103E900000B4021639F01FBA20BD0FB6F894FA9A92
:103EA000F99A0FBE08950196272FECDFEACF262F4F
:103EB000F999FECF1FBA92BD81BD20BD0FB6F8940F
:0E3EC000FA9AF99A0FBE01960895F894FFCF72
:103ECE00008108000001E101080000000000000070
:103EDE00FFFFFDFFFFFFFFFF00008C427F25000567
:103EEE00FFFF01010088E3A841FD0CEE093309A193
:0C3EFE000BE509000000000000000000BF
:00000001FF
