:100000008EC00000A8C00000A6C00000A4C0000070
:10001000A2C00000A0C000009EC000009CC0000064
:100020009AC0000098C0000096C000000C94D2173F
:1000300092C0000090C000008EC000008CC0000084
:100040008AC0000088C0000086C000000C944C08E4
:1000500082C0000080C000007EC000007CC00000A4
:100060007AC0000078C0000076C0000074C00000B4
:1000700072C00000200347006C006F007700420050
:10008000650061006E0047006C006F007700200083
:1000900056003200000030035400720061006E0010
:1000A00073006900730074006F0072002E004C0032
:1000B000610062006F007200610074006F007200E6
:1000C00069006500730000000403090409022200AE
:1000D00001010080FA090400000103000000092169
:1000E00011010001221D000705810308000512010E
:1000F000100100000008EB034F2001000102000185
:100100000600FF0901A101150026FF0075089508EA
:1001100009028102090291020902B102C000112400
:100120001FBECFEFD4E0DEBFCDBF12E0A0E0B1E054
:10013000E0E6FDE302C005900D92AA34B107D9F7BD
:1001400013E0AAE4B2E001C01D92A330B107E1F7C9
:10015000FAD70C94AE1E54CFCF92DF92EF92FF925B
:100160000F931F936B017C0120E030E040E05FE4DF
:10017000A8D387FD0FC0C701B60120E030E040E002
:100180005FE497D16FD48B019C0100501040204058
:10019000304805C0C701B60165D48B019C01B80188
:1001A000C9011F910F91FF90EF90DF90CF900895BC
:1001B000A0E0B0E0EEEDF0E00C940C1EEC014B0181
:1001C000FA018881823008F43EC1DB019C919230B3
:1001D00008F436C1843059F4943009F034C199815F
:1001E00011968C911197981709F027C12CC1943062
:1001F00009F426C19230A9F4823009F024C1CE015D
:1002000028E0DC010D90CD01DA010D92AD01215005
:10021000C1F7D40111968C9111979981892381831B
:1002200011C1823009F40CC1AA80BB80DB01129697
:100230004D915C911397CC80DD80EE80FF80149609
:100240000D911D912D913C911797C501841B950B24
:10025000DC0197FF04C0AA27BB27A81BB90BA0325B
:10026000B1050CF067C01816190684F5280139018C
:100270000A2E04C076946794579447940A94D2F750
:1002800041E050E060E070E004C0440F551F661F7D
:10029000771FAA95D2F741505040604070404023EC
:1002A00051236223732381E090E0A0E0B0E0411588
:1002B00051056105710519F480E090E0DC018C01C5
:1002C0009D0104291529262937293FC00097E9F106
:1002D000AA0EBB1E260137010A2E04C0769467942D
:1002E000579447940A94D2F741E050E060E070E000
:1002F00004C0440F551F661F771FAA95D2F74150BF
:100300005040604070404C215D216E217F2181E092
:1003100090E0A0E0B0E0411551056105710519F4C8
:1003200080E090E0DC016C017D01C428D528E6283E
:10033000F7280BC04A155B0524F400E010E0980193
:1003400004C05A01CC24DD2476018981D4011196A0
:100350009C911197891709F445C0882329F00C193D
:100360001D092E093F0908C0D701C601801B910B4A
:10037000A20BB30B8C019D0137FD04C01182B38227
:10038000A2820BC081E08183B382A2823095209546
:10039000109501951F4F2F4F3F4F048315832683E0
:1003A00037830DC0880F991FAA1FBB1F84839583B5
:1003B000A683B7838281938101979383828384810B
:1003C0009581A681B781AC01BD014150504060408C
:1003D00070404F3F2FEF52072FEF62072FE3720756
:1003E00008F30BC08183B382A2820C0D1D1D2E1D4C
:1003F0003F1D048315832683378383E080834481F4
:1004000055816681778177FF1DC0DB01CA0181704C
:100410009070A070B0707695679557954795842B2E
:10042000952BA62BB72B84839583A683B7838281D4
:10043000938101969383828305C0C1E4D1E003C018
:10044000E40101C0EF01CE01CDB7DEB7E0E10C94CD
:10045000281EA0E2B0E0EFE2F2E00C941A1EDC01EC
:10046000CB018D839E83AF83B88729833A834B83E7
:100470005C83CE010596BE01675E7F4FE8D4CE0156
:100480000196BE016F5E7F4FE2D4CE014996BE0158
:100490006F5E7F4FAE01475F5F4F8ADE01D4462F0C
:1004A000572F682F792FCB01BA01A096E2E00C9468
:1004B000361EA0E2B0E0EFE5F2E00C941A1EDC017B
:1004C000CB018D839E83AF83B88729833A834B8387
:1004D0005C83CE010596BE01675E7F4FB8D4CE0126
:1004E0000196BE016F5E7F4FB2D48A8991E0892761
:1004F0008A8BCE014996BE016F5E7F4FAE01475F8A
:100500005F4F56DECDD3462F572F682F792FCB0163
:10051000BA01A096E2E00C94361EA0E2B0E0E3E956
:10052000F2E00C940C1EDC01CB018D839E83AF8323
:10053000B88729833A834B835C83CE010596BE013D
:10054000675E7F4F84D4CE010196BE016F5E7F4F00
:100550007ED4998D923078F089898230C0F09430C1
:1005600019F4823041F4CAC0843019F4923079F41D
:10057000C5C0923051F481E02A8D9A89291709F477
:1005800080E08A8FCE014996BBC0823051F481E071
:100590002A8D9A89291709F480E08A8BCE01419629
:1005A000AFC04D8C5E8C6F8C78A00D891E892F8911
:1005B000388DE0E2F0E040E050E0BA018824992470
:1005C0005401CC24DD247601C20181709070009723
:1005D000D1F0C00ED11EE21EF31EDB01CA01880D50
:1005E000991DAA1DBB1D41E050E060E070E0C016FF
:1005F000D106E206F30618F040E050E0BA01480FD9
:10060000591F6A1F7B1F880C991CAA1CBB1C37FF33
:1006100008C081E090E0A0E0B0E0882A992AAA2AE8
:10062000BB2A000F111F221F331F76946794579423
:100630004794319749F68B8D9C8D2B893C89820F8D
:10064000931F02969C878B8781E02A8D9A892917B0
:1006500009F480E08A872B853C8517C0CA01817028
:100660009070009761F0F694E794D794C79480E077
:1006700090E0A0E0B0E8C82AD92AEA2AFB2A7695B9
:100680006795579547952F5F3F4F77FDE7CFC90196
:100690000BC0440F551F661F771FF7FC4160CC0C41
:1006A000DD1CEE1CFF1C01974030A0E05A07A0E0C3
:1006B0006A07A0E47A0768F38B879C87DB01CA018D
:1006C0008F779070A070B07080349105A105B1054E
:1006D00061F447FD0AC0C114D104E104F10429F01A
:1006E000405C5F4F6F4F7F4F40784D875E876F87CD
:1006F000788B83E08987CE01099602C081E491E07E
:10070000CFD2462F572F682F792FCB01BA01A09651
:10071000E0E10C94281EA8E1B0E0E1E9F3E00C94DC
:10072000141EDC01CB018D839E83AF83B8872983A0
:100730003A834B835C83CE010596BE016F5E7F4F8B
:1007400086D3CE010196BE01675F7F4F80D3998922
:10075000923008F475C08985823008F474C02A8903
:100760003A8523272A8B943011F0923021F4981780
:1007700009F066C06BC0843039F41D8A1E8A1F8A56
:10078000188E1C8A1B8A5CC0823019F484E0898B25
:1007900057C02B893C898B859C85281B390B3C8B4A
:1007A0002B8B8D899E89AF89B88DCD84DE84EF84B3
:1007B000F8888C159D05AE05BF0540F4880F991F7C
:1007C000AA1FBB1F215030403C8B2B8BEFE1F0E088
:1007D00000E010E020E030E440E050E0BA018C1589
:1007E0009D05AE05BF0540F0402B512B622B732BAE
:1007F0008C199D09AE09BF09369527951795079560
:10080000880F991FAA1FBB1F319749F78A019B01C7
:100810000F771070207030700034110521053105FC
:1008200059F447FD09C00097A105B10529F0405CC6
:100830005F4F6F4F7F4F40784D8B5E8B6F8B788F04
:10084000CE01419605C0CE01099602C081E491E037
:1008500027D2462F572F682F792FCB01BA016896E0
:10086000E8E00C94301EA8E1B0E0E9E3F4E00C9479
:100870001A1EDC01CB018D839E83AF83B887298349
:100880003A834B835C83CE010596BE016F5E7F4F3A
:10089000DED2CE010196BE01675F7F4FD8D2898933
:1008A000823050F08985823038F0CE014196BE0109
:1008B000675F7F4F35D301C08FEF6896E2E00C94FD
:1008C000361EA8E1B0E0E7E6F4E00C941A1EDC0165
:1008D000CB018D839E83AF83B88729833A834B8373
:1008E0005C83CE010596BE016F5E7F4FB0D2CE0114
:1008F0000196BE01675F7F4FAAD28989823050F08E
:100900008985823038F0CE014196BE01675F7F4F06
:1009100007D301C08FEF6896E2E00C94361EA8E181
:10092000B0E0E5E9F4E00C941A1EDC01CB018D8304
:100930009E83AF83B88729833A834B835C83CE0140
:100940000596BE016F5E7F4F82D2CE010196BE0139
:10095000675F7F4F7CD28989823050F089858230F1
:1009600038F0CE014196BE01675F7F4FD9D201C0FA
:1009700081E06896E2E00C94361ECF92DF92EF920F
:10098000FF92CF93DF93CDB7DEB728970FB6F894D9
:10099000DEBF0FBECDBF6B017C0183E08983D70131
:1009A000C6018827B7FD83959927AA27BB27282F3B
:1009B0008A83C114D104E104F10419F482E089832B
:1009C00034C08EE190E09C838B83222389F080E009
:1009D000C81680E0D80680E0E80680E8F80649F10D
:1009E000F094E094D094C094C11CD11CE11CF11C83
:1009F000CD82DE82EF82F886C701B601FED0019774
:100A00001816190694F4082E04C0CC0CDD1CEE1C3C
:100A1000FF1C0A94D2F7CD82DE82EF82F8862EE1A7
:100A200030E0281B390B3C832B83CE01019638D153
:100A300004C060E070E080E09FEC382F292F862F03
:100A4000972FA32FB22FBC01CD0128960FB6F89493
:100A5000DEBF0FBECDBFDF91CF91FF90EF90DF9053
:100A6000CF900895ACE0B0E0E8E3F5E00C94181EF8
:100A7000DC01CB0189839A83AB83BC83CE010196D1
:100A8000BE016B5F7F4FE3D18D81823069F182308F
:100A900058F1843039F02F81388537FD25C02F314A
:100AA000310544F08E81882319F100E010E020E048
:100AB00030E822C08EE190E0821B930B09851A85F5
:100AC0002B853C8504C036952795179507958A9503
:100AD000D2F78E81882381F030952095109501956D
:100AE0001F4F2F4F3F4F08C000E010E0980104C097
:100AF0000FEF1FEF2FEF3FE7B801C9012C96E4E09D
:100B00000C94341EA8E0B0E0E8E8F5E00C94141E64
:100B10006B017C011A82611571058105910519F43B
:100B200082E089835DC083E089830EE110E01C834D
:100B30000B83CD82DE82EF82F886C701B6015DD0DD
:100B40009C012150304037FF38C0EE27FF27E21BC1
:100B5000F30B81E090E0A0E0B0E00E2E04C0880F1F
:100B6000991FAA1FBB1F0A94D2F70197A109B109C7
:100B70008C219D21AE21BF2141E050E060E070E07A
:100B80000097A105B10519F440E050E0BA0104C096
:100B9000F694E794D794C794EA95D2F7C42AD52A55
:100BA000E62AF72ACD82DE82EF82F8868EE190E097
:100BB000821B930B9C838B8313C02115310581F01D
:100BC000022E04C0CC0CDD1CEE1CFF1C0A94D2F7D4
:100BD000CD82DE82EF82F886021B130B1C830B830F
:100BE000CE0101965DD0462F572F682F792FCB016C
:100BF000BA012896E8E00C94301ECF92DF92EF9273
:100C0000FF920F931F938B019C01003080E0180727
:100C100081E0280780E0380750F40F3F11052105D7
:100C2000310509F088F480E090E0DC0116C0003066
:100C3000E0E01E07E0E02E07E1E03E0750F480E12F
:100C400090E0A0E0B0E009C088E090E0A0E0B0E073
:100C500004C088E190E0A0E0B0E040E250E060E055
:100C600070E0481B590B6A0B7B0B6801790104C0CB
:100C7000F694E794D794C7948A95D2F7D701C60122
:100C8000875B9E4FFC018081481B510961097109F6
:100C9000CA011F910F91FF90EF90DF90CF900895C0
:100CA000CF92DF92EF92FF920F931F93DC01149685
:100CB0004D915D916D917C9117971196EC911197E3
:100CC0008C91823020F460618FEF90E0A5C0843079
:100CD00009F49DC0823009F494C0411551056105A5
:100CE000710509F491C012968D919C9113972FEF85
:100CF000823892070CF059C022E83FEF281B390BCD
:100D00002A31310564F56A017B01022E04C0F69494
:100D1000E794D794C7940A94D2F781E090E0A0E0DA
:100D2000B0E004C0880F991FAA1FBB1F2A95D2F7F5
:100D30000197A109B10984239523A623B72341E094
:100D400050E060E070E00097A105B10519F440E0C3
:100D500050E0BA014C295D296E297F2903C040E08B
:100D600050E0BA01DB01CA018F779070A070B070BB
:100D700080349105A105B10539F447FF09C0405CF5
:100D80005F4F6F4F7F4F04C0415C5F4F6F4F7F4F8E
:100D900081E090E0403020E0520720E0620720E44C
:100DA000720738F580E090E024C0803891057CF52A
:100DB0008A019B010F77107020703070003411058C
:100DC0002105310539F447FF09C0405C5F4F6F4F83
:100DD0007F4F04C0415C5F4F6F4F7F4F77FD03C073
:100DE00081589F4F06C076956795579547958058CF
:100DF0009F4F97E076956795579547959A95D1F7C8
:100E00000BC080E090E005C080E090E005C08FEF6F
:100E100090E040E050E0BA01982F97959927979578
:100E2000A62FAF77E795EE27E79586953A2F392BD2
:100E3000282F2E2B842F952FA32FB22FBC01CD014D
:100E40001F910F91FF90EF90DF90CF900895DC01FC
:100E5000FB014C9111965C91119712968C9112970F
:100E6000682F6F7770E0982F991F9927991F139615
:100E70002C911397822F880F892B90E0221F222715
:100E8000221F2183009739F5411551056105710530
:100E900011F482E029C082E89FEF9383828327E0E8
:100EA000440F551F661F771F2A95D1F783E0808373
:100EB00009C0440F551F661F771F828193810197D8
:100EC00093838283403080E0580780E0680780E4A5
:100ED000780778F320C08F3F910579F441155105CB
:100EE0006105710519F484E08083089564FF03C0EF
:100EF00081E0808310C010820EC08F579040938392
:100F0000828383E0808387E0440F551F661F771F2D
:100F10008A95D1F7706444835583668377830895F7
:100F2000CF93FC01DB019081923008F44CC08C918E
:100F3000823008F448C0943069F42181843039F457
:100F400011968C91119790E0821B910944C0222345
:100F5000D1F13FC0843021F0923041F48230B1F1C0
:100F600011968C9111978823A1F12DC0C1818230F7
:100F700001F111968C911197C817D9F48281938150
:100F800012962D913C9113972817390794F08217E8
:100F90009307BCF0448155816681778114968D91C9
:100FA0009D910D90BC91A02D84179507A607B707BA
:100FB00018F4CC2341F00DC0481759076A077B0786
:100FC00028F4CC2331F081E090E005C080E090E08F
:100FD00002C08FEF9FEFCF9108950F931F93CF9390
:100FE000DF93EC0180914E02823059F1833048F456
:100FF000813011F0CE01B4D5DF91CF911F910F91C7
:1010000008958E3F81F08F3FA9F78FEF60E040E0B9
:1010100025E535E500E010E00E94E713DF91CF9170
:101020001F910F9108958FEF60E040E02FEF3FEFA9
:1010300000E010E00E94E713DF91CF911F910F9124
:1010400008959091120180914E029817A9F60E947E
:1010500022158E3F79F28FEF90E09E838D83CCCF67
:1010600080934A0290914C02982B90934C0286FFF9
:10107000089591C580934A0220914C02982F909533
:10108000922390934C0283FF03C080914E02811102
:1010900008950E94001470C578941F920F920FB6A5
:1010A0000F9211242F933F934F935F936F937F93EE
:1010B0008F939F93AF93BF93EF93FF930E94BD12C3
:1010C0000E945815FF91EF91BF91AF919F918F9121
:1010D0007F916F915F914F913F912F910F900FBE34
:1010E0000F901F90189584B7877F84BF88E10FB653
:1010F000F89480936000109260000FBE90E080E84A
:101100000FB6F89480936100909361000FBE8AEF50
:1011100060E043E00E94961681E060E040E00E94BB
:101120009F160E94EE1480E398E06AE378E00E9444
:101130000E148DEE97E040D50E9452150FD50E94F7
:10114000C3170C940014CFDF789410C0813049F499
:1011500080E060E04FEF2FEF3FEF0FEF10E00E94D5
:10116000361380914E02809312012CD580E091E0DD
:101170000E942D1D0E94B31B0E9417140E94AF15E0
:1011800080914E028230D1F0833000F38E3F61F0C7
:101190008F3F39F78FEF60E040E02FEF3FEF00E047
:1011A00010E00E94E713DDCF8FEF60E040E025E51F
:1011B00035E500E010E00E94E713D3CF90911201D3
:1011C00080914E02981769F280E06FEF40E02FEFB8
:1011D0003FEF0FEF10E00E943613C3CF81E0809302
:1011E0004E02089510924E02089580E091E00E9410
:1011F000141D9091E20094609093E200882321F402
:101200008EEF80934E02089582E080934E020895FF
:1012100080E091E00C94D61B80910E0190910F011B
:10122000009729F0019790930F0180930E01089584
:10123000EF92FF920F931F93CF93DF9300D0CDB720
:10124000DEB779014230D1F18FEF9FEF9A83898326
:10125000CE0101960E94711580914C02F7018083A6
:10126000898181838A81828388E090E0F80191837B
:10127000808390914C0280914B029817A1F0898154
:101280009A8120914C0220934B02909311018093FC
:10129000100181E00F900F90DF91CF911F910F917E
:1012A000FF90EF90089589819A81209110013091EB
:1012B00011018217930729F780E0ECCFC9010E9442
:1012C0001E15F8019183808381E0E4CFCF93DF93F3
:1012D000E901423081F00E942215833029F08F3FCE
:1012E00031F0CE010E94C112DF91CF910895CE015D
:1012F0000E942515F6CFC9010E94F114DF91CF910C
:101300000895DA01933091F1943060F09132F1F068
:101310009232A1F080E090E0E0E0F0E01196FC93E2
:10132000EE9308959130D1F09230A1F782E290E0EF
:10133000ECECF0E01196FC93EE9308958DE190E0D3
:10134000E0E0F1E01196FC93EE93089589E090E0DF
:10135000EEEDF0E01196FC93EE93089582E190E0BB
:10136000EEEEF0E01196FC93EE930895813071F06B
:10137000813028F4E8ECF0E0849190E0CFCF823027
:1013800049F6E4E7F0E0849190E0C8CFE6E9F0E0C8
:10139000849190E0C3CFFC0180916102833009F415
:1013A00061C08430D0F0853009F442C0853030F11E
:1013B000863009F463C080915E0290915F022091B3
:1013C00060028083918322838FEF9FEF94838383D6
:1013D00088E090E09683858308958130B1F1823072
:1013E000D0F080915E02882309F45EC08150809322
:1013F0005E0290915F0220916002E3CF90915F02C4
:10140000992309F448C0915090935F0280915E0245
:1014100020916002D6CF80915E028F3F09F455C0C3
:101420008F5F80935E0290915F0220916002C9CF2E
:1014300080915E028F3FA1F786E0809361029091D8
:101440005F02209160028FEFBCCF90915F029F3FBF
:1014500009F44DC09F5F90935F0280915E022091DE
:101460006002AFCF209160022F3FC1F12F5F209328
:10147000600280915E0290915F02A3CF2091600292
:101480002223D9F481E08093610280915E029091E1
:101490005F0220E096CF85E08093610280915E023A
:1014A0002091600290E08DCF83E080936102909163
:1014B0005F022091600280E084CF2150209360027F
:1014C00080915E0290915F027CCF81E08093610207
:1014D00090915F02209160028FEF73CF84E0809340
:1014E000610280915E0290915F022FEF6ACF82E0ED
:1014F0008093610280915E02209160029FEF61CF34
:10150000FC011082118212821482138216821582CB
:1015100008952F923F924F925F926F927F928F9297
:101520009F92AF92BF92CF92DF92EF92FF920F9372
:101530001F93CF93DF93CDB7DEB765970FB6F894BF
:10154000DEBF0FBECDBF9A8389830E94791520919B
:1015500020013091210140912201509123010E94EC
:101560005902762E072F682E892EC62ED72EE82EEA
:10157000F92E862F902FA62DB82DBC01CD0120E08D
:1015800030E0A90170D918160CF058C1872D902FA2
:10159000A62DB82DBC01CD0120E030E040EA51E499
:1015A0000E948D0220E030E0A9010E9429026C8394
:1015B0007D838E839F83472F382F292F862F942F4B
:1015C000A32FB22FBC01CD0120E030E04FE753E460
:1015D0004AD918160CF43EC1C701B60120E030E02C
:1015E000A9019DD987FF1CC1C701B601905820E011
:1015F00030E040EA51E40E948D0220E030E0A90191
:101600000E942902688779878A879B87472F382F0E
:10161000292F862F942FA32FB22FBC01CD0120E0BC
:1016200030E04FE753E41FD918160CF40CC1C70182
:10163000B60118DACB0177FDFDC06CEE7FEF0E949A
:10164000F81DBC0161587F4F882777FD8095982F42
:1016500094D96D8B772E682E9B83292F862F972DFB
:10166000A62DB22FBC01CD0120E030E0A90157D951
:1016700087FF04C01D8A772466241B82E0916202E2
:10168000EC8B6E2F70E080E090E077D96C877D87DF
:101690008E879F87FC81ED815E814F810F2F1E2FEA
:1016A000252F342FA9019801DED8181674F4FC896F
:1016B000F150FC8BF09362026F2F70E080E090E0BD
:1016C0005CD96C877D878E879F8700912401602F6E
:1016D00070E080E090E051D9688B798B8A8B9B8B8E
:1016E0005D892B81C52ED72CE62CF22EA701960101
:1016F000BAD8181664F4015000932401602F70E0EA
:1017000080E090E03AD9688B798B8A8B9B8BC09074
:1017100063026C2D70E080E090E02FD91B012C015A
:10172000588549853A852B85852E942EA32EB22E79
:10173000A501940198D8181654F4CA94C092630273
:101740006C2D70E080E090E018D91B012C015C81C9
:101750004D813E812F81852F942FA32FB22FBC0165
:10176000CD012C853D854E855F857DD818162CF4DE
:101770002C892F5F2C8B209362025D892B81852F12
:10178000972DA62DB22FBC01CD01288939894A8910
:101790005B8969D818161CF40F5F009324015885E3
:1017A00049853A852B85852F942FA32FB22FBC0115
:1017B000CD01A201910157D818161CF4C394C09210
:1017C0006302EC89A981BA81EC9311960C9311976D
:1017D0001296CC9212978FEF9FEF14969C938E9354
:1017E000139788E090E016969C938E9315976596D4
:1017F0000FB6F894DEBF0FBECDBFDF91CF911F9122
:101800000F91FF90EF90DF90CF90BF90AF909F909F
:101810008F907F906F905F904F903F902F900895A2
:10182000188619861A861B86C701B6011BD9CB01FB
:1018300077FF03CF909581959F4FFFCE1C821D822D
:101840001E821F82C9CE18861986AFE7AA87B3E425
:10185000BB87EDCE1C821D822FE72E8383E48F830E
:10186000BBCECF93DF93CDB7DEB728970FB6F894F2
:10187000DEBF0FBECDBFCE0101960E9468148091DD
:101880005702823081F18330A1F0882349F48981A5
:10189000809313018A81809314018B8180931501B9
:1018A00028960FB6F894DEBF0FBECDBFDF91CF9163
:1018B0000895109259021092580210925A021092F2
:1018C0005B0210925302109255020E949014909362
:1018D0005D0280935C028038910510F310925D02E6
:1018E00010925C02DDCF10925E0210925F021092A5
:1018F000600210926102D4CFCF93DF93EC0180910C
:101900005C0290915D02009709F476C080915602C6
:101910008F70813009F442C0809158029091590231
:101920006FE472E00E94A014809156028F7090E0E4
:101930008130910509F4C3C08330910509F4DDC0FD
:101940000097A9F480914F02888380915002898387
:10195000809151028A8380915202909153029C831C
:101960008B8380915402909155029E838D83809148
:10197000580290915902019690935902809358020F
:1019800020915C0230915D0228173907C0F5109252
:10199000590210925802DF91CF910895809153021D
:1019A000882381F580915A02882371F591E0809116
:1019B0005502882309F498C080915B02815080937E
:1019C0005B028823E1F4809155028823C1F0809165
:1019D000540280935B02809155028150809355029E
:1019E00080915602807309F090C08B819C810E9487
:1019F00058169C838B8303C084E080935702DF9149
:101A0000CF91089580915A02815080935A02882381
:101A100009F064C080915302882309F45FC080916B
:101A2000520280935A028091530281508093530254
:101A300028814A81698180914F02992787FD90957D
:101A4000820F911D20915102332727FD3095240FDD
:101A5000311D40915002552747FD5095460F511DAD
:101A600060914F02161634F48F3F910519F014F06F
:101A70008FEF90E060914F0267FD58C06091510276
:101A8000161634F42F3F310519F014F02FEF30E023
:101A90006091510267FD45C060915002161634F402
:101AA0004F3F510519F014F04FEF50E06091500294
:101AB00067FD32C088832A83498390E078CF2091E4
:101AC000520220935A022091540220935B029E837B
:101AD0008D8380915802909159024DCF90E0809172
:101AE0005502882309F068CF80915B02882309F0B2
:101AF00065CF992309F483CF0FCF80914F02909146
:101B0000500201971E821D8236CF8B819C810E94DC
:101B10005F169C838B8373CF57FFCCCF40E050E0A0
:101B2000C9CF37FFB9CF20E030E0B6CF97FFA6CFBF
:101B300080E090E0A3CF0F931F932FEF3FEFFC01C6
:101B40003483238380911301609114014091150126
:101B50000FEF10E08BD51F910F91089582CE08955D
:101B6000E0915702F0E0EE0FFF1FEA5EFE4F01909A
:101B7000F081E02D0995089580915702843021F07D
:101B80008F5F809357026DCE109257026ACE83E02A
:101B90008093570266CE80915702813009F00895F4
:101BA000A8D7DC01CB018093200190932101A09361
:101BB0002201B093230108959093650280936402FB
:101BC0000C9466166F927F928F929F92AF92BF9203
:101BD000CF92DF92EF92FF920F931F93CF93DF93F9
:101BE00040916602442309F03BC220916A02809131
:101BF000670290E090938900809388008091690249
:101C000090E090938D0080938C008091680290E02A
:101C100090938B0080938A0020FD20C2E0912501E3
:101C2000F0912601208181E090E00090270102C020
:101C3000880F991F0A94E2F780958223808385E2BA
:101C400090E0909326018093250185E08093270101
:101C50008FE891E00197F1F700C0000020916A023F
:101C60008091670290E09093890080938800809132
:101C7000690290E090938D0080938C0080916802BF
:101C800090E090938B0080938A0021FF03C02C9AF0
:101C900020916A022D9885E290E09093260180932E
:101CA000250184E080932701EFE8F1E03197F1F717
:101CB00000C000008091670290E0909389008093BB
:101CC00088008091690290E090938D0080938C0051
:101CD0008091680290E090938B0080938A0022FFAD
:101CE00003C0289A20916A022C9885E290E0909394
:101CF000260180932501109227018FE891E001973A
:101D0000F1F700C000008091670290E09093890095
:101D1000809388008091690290E090938D00809379
:101D20008C008091680290E090938B0080938A00F1
:101D300023FF03C05F9A20916A0228988BE290E00B
:101D4000909326018093250187E080932701EFE897
:101D5000F1E03197F1F700C000008091670290E058
:101D600090938900809388008091690290E090931D
:101D70008D0080938C008091680290E090938B009E
:101D800080938A0024FF03C05D9A20916A025F98C5
:101D90008BE290E0909326018093250185E080936B
:101DA00027018FE891E00197F1F700C000008091D2
:101DB000670290E090938900809388008091690287
:101DC00090E090938D0080938C008091680290E069
:101DD00090938B0080938A0025FF03C05C9A20912A
:101DE0006A025D988BE290E0909326018093250132
:101DF00084E080932701EFE8F1E03197F1F700C02C
:101E000000008091670290E09093890080938800A1
:101E10008091690290E090938D0080938C00809176
:101E2000680290E090938B0080938A0026FF03C0A5
:101E3000599A20916A025C988BE290E09093260177
:101E40008093250181E0809327018FE891E001973D
:101E5000F1F700C000008091670290E09093890044
:101E6000809388008091690290E090938D00809328
:101E70008C008091680290E090938B0080938A00A0
:101E800027FD429A599888E290E09093260180932A
:101E9000250182E080932701EFE8F1E03197F1F727
:101EA00000C0000080916A0290916B02209167024D
:101EB00030E030938900209388002091690230E05F
:101EC00030938D0020938C002091680230E0309395
:101ED0008B0020938A0090FD589A42988BE290E004
:101EE0009093260180932501109227018FE891E0BD
:101EF0000197F1F700C0000080916A0290916B0297
:101F00002091670230E0309389002093880020916F
:101F1000690230E030938D0020938C00209168029C
:101F200030E030938B0020938A0091FD449A5898BA
:101F300088E290E0909326018093250184E08093CD
:101F40002701EFE8F1E03197F1F700C00000809140
:101F50006A0290916B022091670230E03093890011
:101F6000209388002091690230E030938D00209307
:101F70008C002091680230E030938B0020938A001F
:101F800092FD479A449888E290E0909326018093CE
:101F9000250187E0809327018FE891E00197F1F711
:101FA00000C0000080916A0290916B02209167024C
:101FB00030E030938900209388002091690230E05E
:101FC00030938D0020938C002091680230E0309394
:101FD0008B0020938A0093FD2E9A479885E290E02B
:101FE000909326018093250186E080932701EFE8F6
:101FF000F1E03197F1F700C000002E988091970230
:102000008823E1F0109297024423C1F46090980273
:10201000709099026114710409F009C280916C02F8
:1020200090916D02009709F080C2E0916402F091F6
:102030006502309719F087E692E0099581E0DF911B
:10204000CF911F910F91FF90EF90DF90CF90BF90B5
:10205000AF909F908F907F906F9008952D9ADECDD6
:10206000809193029091940220916F0230E030931E
:102070008900209388002091700230E030938B001B
:1020800020938A002091710230E030938D002093DC
:102090008C0080FD2D9AE0912501F0912601508160
:1020A00021E030E00090270102C0220F331F0A9484
:1020B000E2F720952523208325E230E030932601A6
:1020C0002093250125E020932701EFE8F1E03197E7
:1020D000F1F700C000002091720230E030938900D7
:1020E000209388002091730230E030938B0020937E
:1020F0008A002091740230E030938D0020938C0090
:1021000081FD2C9A2D9825E230E030932601209312
:10211000250124E020932701EFE8F1E03197F1F762
:1021200000C000002091750230E0309389002093B8
:1021300088002091760230E030938B0020938A0053
:102140002091770230E030938D0020938C0082FD47
:10215000289A2C9825E230E030932601209325011F
:1021600010922701EFE8F1E03197F1F700C000008D
:102170002091780230E030938900209388002091EC
:10218000790230E030938B0020938A0020917A020C
:1021900030E030938D0020938C0083FD5F9A289867
:1021A0002BE230E0309326012093250127E0209395
:1021B0002701EFE8F1E03197F1F700C0000020912E
:1021C0007B0230E0309389002093880020917C02CC
:1021D00030E030938B0020938A0020917D0230E024
:1021E00030938D0020938C0084FD5D9A5F982BE2E4
:1021F00030E0309326012093250125E0209327012C
:10220000EFE8F1E03197F1F700C0000020917E0285
:1022100030E0309389002093880020917F0230E0E5
:1022200030938B0020938A002091800230E030931D
:102230008D0020938C0085FD5C9A5D982BE230E048
:10224000309326012093250124E020932701EFE815
:10225000F1E03197F1F700C000002091810230E0F9
:1022600030938900209388002091820230E03093DF
:102270008B0020938A002091830230E030938D0000
:1022800020938C0086FD599A5C982BE230E03093C5
:1022900026012093250121E020932701EFE8F1E0BA
:1022A0003197F1F700C000002091840230E03093B4
:1022B0008900209388002091850230E030938B00C4
:1022C00020938A002091860230E030938D00209385
:1022D0008C0087FD429A599828E230E0309326011D
:1022E0002093250122E020932701EFE8F1E03197C8
:1022F000F1F700C000002091870230E030938900A0
:10230000209388002091880230E030938B00209346
:102310008A002091890230E030938D0020938C0058
:1023200090FD589A42982BE230E03093260120939A
:10233000250110922701EFE8F1E03197F1F700C095
:10234000000020918A0230E03093890020938800B9
:1023500020918B0230E030938B0020938A002091F3
:102360008C0230E030938D0020938C0091FD449AD4
:10237000589828E230E0309326012093250124E08C
:1023800020932701EFE8F1E03197F1F700C000005A
:1023900020918D0230E030938900209388002091B5
:1023A0008E0230E030938B0020938A0020918F02C0
:1023B00030E030938D0020938C0092FD479A449832
:1023C00028E230E0309326012093250127E0209376
:1023D0002701EFE8F1E03197F1F700C0000020910C
:1023E000900230E030938900209388002091910280
:1023F00030E030938B0020938A002091920230E0ED
:1024000030938D0020938C0093FD2E9A479885E29F
:1024100090E0909326018093250186E08093270128
:102420008FE891E00197F1F700C00000E6CD089435
:1024300061087108709299026092980260919A0204
:1024400070919B0280919C0290919D0220919E022E
:1024500030919F024091A0025091A1020E94290256
:102460008B01D82FC92F9E01862F912FA32FB22F1A
:1024700080939A0290939B02A0939C02B0939D023A
:102480006091A2027091A3028091A4029091A50292
:102490002091A6023091A7024091A8025091A90272
:1024A0000E942902B62EA72E982E892EA5019401EE
:1024B000852F942FA32FB22F8093A2029093A30273
:1024C000A093A402B093A5026091AA027091AB02FE
:1024D0008091AC029091AD022091AE023091AF029A
:1024E0004091B0025091B1020E9429026B017C011F
:1024F000982F4C2D5D2D692F7F2D4093AA0250936C
:10250000AB026093AC027093AD026114710499F454
:102510008091B202809367028091B3028093680237
:102520008091B4028093690289CD019790936D02E6
:1025300080936C0283CD9E01802F912FA32FB22F09
:10254000BC01CD010E94AC0060936702A50194011B
:10255000852F942FA32FB22FBC01CD010E94AC0078
:10256000609368028C2D9D2DAE2DBF2DBC01CD0139
:102570000E94AC006093690261CD81E08093970274
:102580000895FC0110929902109298028781982F69
:102590009F7009F441C0913009F0089582958F70C1
:1025A000282F30E026303105C4F7482F440F842F00
:1025B00090E0DC01AA0FBB1FA80FB91FAB54BD4FA1
:1025C00080818C93818111968C93119782811296D0
:1025D0008C934F5F842F90E0DC01AA0FBB1FA80FE4
:1025E000B91FAB54BD4F83818C93848111968C931A
:1025F0001197858112968C9312972130310549F1FC
:102600002530310599F02115310539F68681809301
:10261000D9021092DA020895A7E6B2E088E00190AC
:102620000D928150E1F710926602089584E090E0E7
:102630009093DC028093DB02AFE6B2E0E5EBF2E0E0
:1026400088E201900D928150E1F781E0809366026B
:102650000895368120E08091D9029091DA02822B90
:10266000932B9093DA028093D90208956F927F9210
:102670009F92AF92BF92CF92DF92EF92FF920F9311
:102680001F93CF93DF93B82EA62E942E380130934C
:102690006B0220936A028093B2026093B30240936C
:1026A000B402C7E6D2E01881612F70E080E090E0CC
:1026B0000E948205DC01CB0180939A0290939B02D9
:1026C000A0939C02B0939D020981602F70E080E08E
:1026D00090E00E948205DC01CB018093A2029093DE
:1026E000A302A093A402B093A502CA816C2F70E04C
:1026F00080E090E00E948205DC01CB018093AA0279
:102700009093AB02A093AC02B093AD02B30180E012
:1027100090E00E9482056B017C016B2D70E0611BD3
:102720007109882777FD8095982F0E94BD04A70125
:1027300096010E948B03DC01CB0180939E02909353
:102740009F02A093A002B093A1026A2D70E0601BCB
:102750007109882777FD8095982F0E94BD04A701F5
:1027600096010E948B03DC01CB018093A60290931B
:10277000A702A093A802B093A902692D70E06C1B78
:102780007109882777FD8095982F0E94BD04A701C5
:1027900096010E948B03DC01CB018093AE029093E3
:1027A000AF02A093B002B093B1027092990260920E
:1027B0009802DF91CF911F910F91FF90EF90DF90E2
:1027C000CF90BF90AF909F907F906F9008950F93A0
:1027D0001F9310929902109298028093670260935F
:1027E00068024093690230936B0220936A0210934F
:1027F0006D0200936C02109266021F910F91089572
:102800001092990210929802E7E6F2E088E0DF0168
:102810001D928A95E9F71092660208959093E80256
:102820008093E7027093EA026093E9020895E091D1
:10283000DF02F0E089B18095E052FD4F8083809106
:10284000DF028F5F8093DF028091E0029091E102CE
:1028500089239091E20289239091E3028923909148
:10286000E4022091E6022093E50298239874909365
:10287000E6028091E5029091E6028095892380939B
:10288000DE028091E6029091E50280958923809393
:10289000DD028091DF02853010F01092DF0280911E
:1028A000DE02882369F48091DD02882309F408950B
:1028B0008091DD02E091E902F091EA020995089524
:1028C0008091DE02E091E702F091E8020995EBCFFA
:1028D0000F931F93CF93DF93EC018DEF93E00E9452
:1028E0006E1E082F8CEF93E00E946E1E182F8BEF48
:1028F00093E00E946E1E088319838A838CE08B8389
:1029000082E08C838FE790E09E838D83DF91CF916F
:102910001F910F910895BC0189EF93E00C949C1EC8
:1029200089EF93E00C94761E660F771F660F771F72
:10293000660F771F6050704048E050E00C947B1E9B
:102940000F931F93CF93DF93CDB7DEB728970FB6C2
:10295000F894DEBF0FBECDBF8B019C01220F331F49
:10296000220F331F220F331F20503040CE0101961B
:10297000B90148E050E00E945E1EF801DE011196A8
:1029800088E00D9001928150E1F728960FB6F894F7
:10299000DEBF0FBECDBFDF91CF911F910F91089584
:1029A0001F93CF93DF930F92CDB7DEB7282F162F4B
:1029B0008DEF93E0622F49830E94A01E8CEF93E07D
:1029C000612F0E94A01E8BEF93E04981642F0E942B
:1029D000A01E0F90DF91CF911F9108951092EB02EE
:1029E0000895FC018081882329F4828163814481D8
:1029F000D7CF08958130E9F782818430D0F7809372
:102A0000EB02823099F0833061F0813091F78FEFE3
:102A10009FEF90932901809328018FEF8093EB0221
:102A20000895B5D88EEF8093EB0208958091280128
:102A30009091290170DF1092EB02089549DF88E040
:102A400090E008958091EB020895CF93DF93CDB786
:102A5000DEB728970FB6F894DEBF0FBECDBF20912A
:102A6000EB022F3F49F028960FB6F894DEBF0FBE59
:102A7000CDBFDF91CF910895609128017091290118
:102A80006F5F7F4F7093290160932801DE011196DB
:102A9000FC0188E001900D928150E1F7CE01019692
:102AA00043DFE1CF229A219A529A81E58CBD0895A5
:102AB00080912B0190912C01019790932C01809390
:102AC0002B0180912B0190912C01009749F488EE05
:102AD00093E090932C0180932B0181E080932A0155
:102AE00008952091EC023091ED02FC0131832083A6
:102AF000089560912D0170912E0180912F01909188
:102B0000300120E030E040E151E40E948D0220E0FD
:102B100030E040EA50E40E948B0320E030E040E0E7
:102B200052E40E942902462F572F682F792FCB019C
:102B3000BA0108955A98882361F08FEF8EBD0DB4C5
:102B400007FEFDCF8FEF8EBD0DB407FEFDCF5A9A65
:102B500008951EBC0DB407FEFDCF1EBCF5CFCF936C
:102B600080912A01882311F4CF91089580E0E2DF5B
:102B70005A9881E08EBD0DB407FEFDCF6EB581E0A1
:102B80008EBD0DB407FEFDCFCEB55A9A6093EC0210
:102B9000C093ED02C5FF88C0660F70E080E090E052
:102BA0000E9482059B01F82FE92F462F532F682F93
:102BB000792F40932D0150932E0160932F01709334
:102BC0003001C695CF70C0FF19C0822F932FAF2F51
:102BD000BE2FBC01CD0120E030E040E85DE30E9463
:102BE00029029B01462F532F682F792F40932D01E7
:102BF00050932E0160932F0170933001C1FF1BC0D1
:102C0000582F492F822F932FA52FB42FBC01CD0110
:102C100020E030E040E05EE30E9429029B01462F65
:102C2000532F682F792F40932D0150932E016093DD
:102C30002F0170933001C2FF1BC0582F492F822FE4
:102C4000932FA52FB42FBC01CD0120E030E040E848
:102C50005EE30E9429029B01462F532F682F792F94
:102C600040932D0150932E0160932F0170933001FA
:102C7000C3FF18C0582F492F822F932FA52FB42F91
:102C8000BC01CD0120E030E040E05FE30E9429027A
:102C9000DC01CB0180932D0190932E01A0932F0195
:102CA000B093300181E046DF10922A01CF91089560
:102CB0009C01220F331F93FD2160C90108959C01DF
:102CC0003695279580FD3860C9010895E0E8F0E069
:102CD000808181608083A1E8B0E08C9188608C93D2
:102CE0008081806C808380818063808380818C6020
:102CF0008083109289001092880010928B001092AD
:102D00008A0010928D0010928C0087B1846F87B971
:102D100084B1816F84B98AB1836B8AB98C918160E7
:102D20008C93539856985B9A5E9A089594B59160E7
:102D300094BD95B5492B45BD87BD68BD08958823D1
:102D400029F080916E00826080936E00662329F0E6
:102D500080916E00846080936E000895853098F5B0
:102D60008093E900982F242F762F50E021FF19C07F
:102D70003091EB003E7F3093EB003091ED003D7FD2
:102D80003093ED003091EB0031603093EB007093A5
:102D9000EC002093ED005093F0002091EE0027FF0F
:102DA0001BC09F5F953079F09093E900891781F0FF
:102DB0007091EC002091ED005091F00021FDD8CFF2
:102DC0009F5F953089F78F708093E90081E00895C7
:102DD000242F762F50E0CACF80E008950F931F93E1
:102DE000CF93DF93062F662379F1EC0110E09881F1
:102DF000992331F16B81E981FA812C81892F8F70C0
:102E0000853040F56295660F660F607C991F9927A3
:102E1000991F692B223020F146E096E0E930F10558
:102E200060F028E030E040E04F5F220F331F2E17A4
:102E30003F07D0F34295407F492B90DF882351F024
:102E40001F5F2596101799F681E0DF91CF911F91B2
:102E50000F91089580E0DF91CF911F910F91089518
:102E600042E092E0DBCF8091FB0287FD09C08091B8
:102E7000E80080FD0EC08091FA028823C1F7089512
:102E80008091E80082FD0BC08091FA028823C1F78F
:102E900008958091E8008E778093E80008958091EE
:102EA000E8008B778093E80008952091E40030914A
:102EB000E50045E68091EC0080FF1CC08091E800B1
:102EC00080FD26C08091FA028823D1F08530D1F0B0
:102ED0008091EB0085FD18C08091E4009091E500A1
:102EE0002817390739F3415089F09C018091EC0093
:102EF00080FDE4CF8091E80082FFE4CF80E0089578
:102F000082E0089583E0089581E0089584E00895C3
:102F100080E0089541D043D08091D8008F7780938E
:102F2000D8008091D80080688093D8008091D80024
:102F30008F7D8093D80084E089BD86E089BD09B487
:102F400000FEFDCF1092FA021092F6021092F802E3
:102F50001092F70280E060E042E000DF8091E10043
:102F60008E7F8093E1008091E20081608093E20097
:102F70008091E20088608093E2008091E0008E7F83
:102F80008093E0000895E3E6F0E080818E7F808307
:102F900081E08093F902BECF1092E2000895109272
:102FA000E10008951F920F920FB60F9211242F93F4
:102FB0003F934F935F936F937F938F939F93AF93C1
:102FC000BF93EF93FF938091E10082FF04C0809153
:102FD000E20082FD86C08091E10080FF04C0809104
:102FE000E20080FD69C08091E10084FF2DC08091E6
:102FF000E20084FF29C084E089BD86E089BD09B470
:1030000000FEFDCF8091D8008F7D8093D800809105
:10301000E1008F7E8093E1008091E2008F7E8093BB
:10302000E2008091E20081608093E2008091F602EC
:10303000882309F05EC08091E30087FF5EC084E0D2
:103040008093FA020E94EE088091E10083FF04C0A1
:103050008091E20083FD11C0FF91EF91BF91AF918C
:103060009F918F917F916F915F914F913F912F91A0
:103070000F900FBE0F901F9018958091E100877FF1
:103080008093E10082E08093FA021092F602809130
:10309000E1008E7F8093E1008091E2008E7F80933B
:1030A000E2008091E20080618093E20080E060E0D5
:1030B00042E054DE57D3D0CF8091E2008E7F8093E0
:1030C000E2008091E20080618093E2008091D8006C
:1030D00080628093D80019BC1092FA020E94F20814
:1030E00082CF8091E1008B7F8093E1000E940C09E8
:1030F00072CF84E08093FA02A5CF81E0A1CFAF9296
:10310000BF92CF92DF92FF920F931F93CF93DF93E3
:10311000EC018B016A01C9DEF82E882339F5C11450
:10312000D10439F0F60180819181081B190BC80F79
:10313000D91F01151105D1F0C114D10449F021C0E6
:1031400089918093F100015010400115110571F033
:103150008091E80085FDF4CF8091E8008E77809320
:10316000E80001D3A2DE882381F3F82E8F2DDF91B2
:10317000CF911F910F91FF90DF90CF90BF90AF90B4
:103180000895AA24BB248091E80085FF0DC0899191
:103190008093F1000894A11CB11C0A151B0531F3A2
:1031A0008091E80085FDF3CF8091E8008E778093D1
:1031B000E800D9D2F601808191818A0D9B1D91830F
:1031C000808365E0F62ED2CF209101033091020377
:1031D0002617370758F06115710509F067C020916F
:1031E000E8002E772093E80020E030E060E0211531
:1031F000310539F5662309F44DC04091FA024423A4
:1032000009F456C0453009F455C04091E80043FD2B
:1032100053C04091E80042FD3DC04091E80040FFAE
:10322000ECCF4091F20050E061E04830510509F0E8
:1032300060E04091E8004E774093E80021153105A9
:10324000C9F24091FA02442399F1453099F1409135
:10325000E80043FD31C04091E80042FD1BC04091B1
:10326000E80040FFEECF4091F20050E048305105B9
:10327000D8F6FC0103C048305105B1F2819180932A
:10328000F100CF01215030404F5F5F4F21153105D4
:1032900091F7CACF8091E80082FD10C08091FA02B8
:1032A000882331F08530B1F783E008959B019ECFEC
:1032B00082E0089583E0089581E0089580E0089514
:1032C0006115710529F42091E8002B772093E8001F
:1032D000382F292F6115710521F18091FA02882379
:1032E00061F1853061F18091E80083FD2AC0809111
:1032F000E80082FFF2CFE32FF22F3E2F2F2F809195
:10330000F200882341F08091F10081933E2F2F2F0E
:103310006150704091F78091E8008B778093E800CE
:10332000D9CF8091E80080FD0EC08091FA028823F9
:1033300021F08530B1F783E0089582E0089583E0BD
:10334000089581E0089580E008952091010330916F
:1033500002032617370758F06115710509F066C09A
:103360002091E8002E772093E80020E030E0FC0177
:1033700040E02115310539F5442309F44BC0809113
:10338000FA02882309F454C0853009F453C08091AF
:10339000E80083FD51C08091E80082FD3BC0809130
:1033A000E80080FFECCF8091F20090E041E08830AF
:1033B000910509F040E08091E8008E778093E80065
:1033C00021153105C9F28091FA02882389F18530EF
:1033D00089F18091E80083FD2FC08091E80082FD93
:1033E00019C08091E80080FFEECF8091F20090E05C
:1033F0008830910520F0DACF88309105B9F24491F8
:103400004093F1003196215030400196211531054D
:1034100099F7CCCF8091E80082FD10C08091FA022C
:10342000882331F08530B1F783E008959B019FCF69
:1034300082E0089583E0089581E0089580E0089592
:103440000F931F93CF93DF93CDB7DEB7AC970FB633
:10345000F894DEBF0FBECDBF8091F1008093FB02D8
:103460008091F1008093FC028091F1008093FD0235
:103470008091F1008093FE028091F1008093FF0221
:103480008091F100809300038091F100809301030B
:103490008091F100809302030E9408098091E80066
:1034A00083FF12C09091FB028091FC02853009F4E9
:1034B00061C0863010F1883009F4E2C0893009F427
:1034C000C4C0863009F479C08091E80083FF0AC047
:1034D0008091EB0080628093EB008091E800877F11
:1034E0008093E800AC960FB6F894DEBF0FBECDBF58
:1034F000DF91CF911F910F910895813029F0813094
:1035000008F481C0833001F7992309F4CCC09230CC
:10351000D9F68091FD02882321F52091FF022F70BA
:1035200099F22093E9008091EB0080FF1AC080910E
:10353000FC02833009F40EC18091EB00806180931E
:10354000EB0081E090E002C0880F991F2A95E2F716
:103550008093EA001092EA008091EB0088608093EB
:10356000EB001092E9008091E800877F8093E800EB
:103570007ADCAACF992309F0A7CF1091FD021F771B
:103580000FB7F8948091E800877F8093E8006BDCA8
:103590008091E80080FFFCCF8091E3008078812B50
:1035A0008093E30080688093E300112309F090C0CA
:1035B00082E08093FA020FBF87CF9058923008F0D4
:1035C00083CF8091FD029091FE0223E08C3D920713
:1035D00009F480C06091FF02AE014F5F5F4F0E940F
:1035E0008109BC01009709F46FCF8091E800877FC3
:1035F0008093E80089819A81A8DE8091E8008B772A
:103600008093E80061CF903809F459C0923809F0EE
:103610005BCF8091FF028F708093E9008091EB0077
:1036200091E085FF90E01092E9008091E800877FAB
:103630008093E8009093F1001092F1008091E800EF
:103640008E778093E8000FDC3FCF992309F03CCFC1
:103650008091FD02823008F037CF9091E800977F8B
:103660009093E8008093F602FEDB8091F6028823B7
:1036700009F468C084E08093FA020E94F50824CF20
:10368000903809F021CF8091E800877F8093E8008F
:103690008091F6028093F1008091E8008E7780930C
:1036A000E800E1DB11CF9091FD02913009F00CCFE1
:1036B00091E0833009F090E09093F80252CF90911E
:1036C000F7028091F802882309F4AFCF9260ADCF62
:1036D00083E06FCF83E08C838AE28B836FB7F894AB
:1036E000DE01159680E090E04EE051E209C030E046
:1036F000295C3F4F2D933D9301968431910589F0CC
:10370000E42FF0E050935700249180FF03C02295EE
:103710002F704F5F2F702A3050F730E0205D3F4F01
:10372000E9CF6FBF8091E800877F8093E800CE01EA
:1037300003966AE270E048DD8091E8008B77809321
:10374000E800C2CE8091E30087FF0AC084E0809346
:10375000FA0293CF8091EB0080628093EB0001CF5F
:1037600081E0F5CF0895CF938091FA02882391F0FC
:103770008091E9008F709091EC0090FD0DC0C0E049
:10378000C82B1092E9008091E80083FD0DC0CF7036
:10379000C093E900CF910895C0E8C82B1092E900CA
:1037A0008091E80083FFF3CF4BDEF1CF6F927F92E1
:1037B0008F929F92AF92BF92CF92DF92EF92FF9241
:1037C0000F931F93CF93DF9300D000D0CDB7DEB718
:1037D0006C01EDB6FEB68091E80083FF0AC0F601E9
:1037E000808190E02091FF02309100032817390773
:1037F000C1F00FB6F894FEBE0FBEEDBE0F900F9055
:103800000F900F90DF91CF911F910F91FF90EF904C
:10381000DF90CF90BF90AF909F908F907F906F90F0
:1038200008958091FC02833009F463C08430D0F4A1
:10383000813009F4A8C08230E1F68091FB02813A20
:10384000C1F68091E800877F8093E8008091E800CE
:1038500080FFFCCFF6018485958596958795969592
:10386000879557C08A3009F471C08B3009F45AC06B
:10387000893009F0BECF8091FB02813209F0B9CFC7
:103880007DB68EB600910103109102039090FD0267
:103890004091FE0241508DB79EB7801B910B0FB631
:1038A000F8949EBF0FBE8DBFADB6BEB60894A11CE6
:1038B000B11C8091E800877F8093E800C501B801C2
:1038C0004C83FEDC8091E8008E778093E8004C8189
:1038D0009501992009F4A5C02F5F3F4F81E090E04A
:1038E000081B190BC601692D0E9466097DBE8EBE9C
:1038F00080CF8091FB02813A09F07BCF8091E80074
:10390000877F8093E8008091E80080FFFCCFF6017C
:1039100081858093F1008091E8008E778093E800A4
:10392000A2DA67CF8091FB02813209F062CF8091E9
:10393000E800877F8093E80096DA9091FD0281E0AD
:10394000992309F480E0F601818753CF8091FB022F
:10395000813209F04ECF8091E800877F8093E800A4
:1039600082DA8091FD029091FE0280700024880F1F
:10397000991F001C880F991F001C892F902DF6019C
:103980009587848736CF8091FB02813A09F031CF49
:103990007DB66EB61B821A828091FD020091FE02F6
:1039A0008983F60140858DB79EB7841B91090FB6B8
:1039B000F8949EBF0FBE8DBFADB6BEB60894A11CD5
:1039C000B11C9A2C8B2CC50160E070E050E06FD1E7
:1039D000402F4150C601BE016F5F7F4F95018E01A0
:1039E0000E5F1F4F0E941809F6018681978100978C
:1039F00021F04085B50150E051D11092E90080914D
:103A0000E800877F8093E8006A817B81892D982D6B
:103A1000DBDB8091E8008B778093E8007DBE6EBE93
:103A2000E8CE80E090E05CCFCF93DF93FC01099675
:103A3000DC0187E0ED0119928A95E9F781E0818741
:103A400084EF91E09587848783E08483CF0101969A
:103A500061E0C4D9DF91CF9108954F925F926F9248
:103A60007F928F929F92AF92BF92CF92DF92EF920E
:103A7000FF920F931F93CF93DF9300D00F92CDB798
:103A8000DEB77C01CDB6DEB68091FA028430C9F093
:103A90000FB6F894DEBE0FBECDBE0F900F900F9004
:103AA000DF91CF911F910F91FF90EF90DF90CF901A
:103AB000BF90AF909F908F907F906F905F904F904E
:103AC00008958091E4009091E500F7012285338507
:103AD00028173907E9F281818F708093E90080917E
:103AE000E80085FFD5CF7DB66EB640858DB79EB711
:103AF000841B91090FB6F8949EBF0FBE8DBF0DB702
:103B00001EB70F5F1F4F19821B821A82902E812EC3
:103B1000C80160E070E050E0CAD0C701BE016F5F2D
:103B20007F4F40E098018E010E5F1F4F0E941809E1
:103B3000182FF70184859585009709F44CC021E082
:103B400030E086859785009709F04AC02901F70182
:103B5000A680B780A114B10409F448C04A815B81F2
:103B6000892D982DB5018DD001E00097B9F1F701AD
:103B70004085C501692D782D50E090D08A819B81C8
:103B80000097F9F0112329F4002319F4411451048A
:103B9000C1F0F701848595859787868781818F702D
:103BA0008093E90089818823F1F46A817B81892DE2
:103BB000982D40E050E0A3DA8091E8008E77809362
:103BC000E8008091E4009091E500F70193878287F7
:103BD0007DBE6EBE5DCF44245524B9CF00E0C7CF73
:103BE00020E030E0B3CF8093F100DFCF00E0C6CF1C
:103BF0005527002480FF02C0060E571F660F771F4F
:103C00006115710521F096958795009799F7952F85
:103C1000802D08952F923F924F925F926F927F92E4
:103C20008F929F92AF92BF92CF92DF92EF92FF92CC
:103C30000F931F93CF93DF93CDB7DEB7CA1BDB0B78
:103C40000FB6F894DEBF0FBECDBF09942A8839881D
:103C500048885F846E847D848C849B84AA84B98424
:103C6000C884DF80EE80FD800C811B81AA81B98130
:103C7000CE0FD11D0FB6F894DEBF0FBECDBFED0144
:103C80000895FB01DC0104C08D910190801921F49D
:103C900041505040C8F7881B990B0895FB01DC0187
:103CA00002C001900D9241505040D8F70895DC01B8
:103CB00001C06D9341505040E0F70895DC01CB0105
:103CC000FC01F999FECF06C0F2BDE1BDF89A31962C
:103CD00000B40D9241505040B8F70895F999FECFC5
:103CE00092BD81BDF89A992780B50895A8E1B0E00A
:103CF00042E050E0E5CFDC01A40FB51F4150504039
:103D000040F0CB01840F951F2E9105D041505040BB
:103D1000D8F70895262FF999FECF92BD81BDF89A64
:103D2000019700B4021639F01FBA20BD0FB6F894FF
:103D3000FA9AF99A0FBE08950196272FECDFEACF81
:103D4000262FF999FECF1FBA92BD81BD20BD0FB6B7
:103D5000F894FA9AF99A0FBE01960895F894FFCF55
:103D6000008108000001EE020800000000000000D1
:103D7000FFFFFDFFFFFF9B0D890ACB097C0C800A2A
:103D800000008C427F250005FFFF01010088E3A8A9
:103D900041A120000000000200A10100000000007D
:103DA0000000000000000000000001020203030305
:103DB00003040404040404040405050505050505BD
:103DC000050505050505050505060606060606069C
:103DD0000606060606060606060606060606060683
:103DE000060606060606060606070707070707076C
:103DF0000707070707070707070707070707070753
:103E00000707070707070707070707070707070742
:103E10000707070707070707070707070707070732
:103E2000070707070707070707080808080808081B
:103E30000808080808080808080808080808080802
:103E400008080808080808080808080808080808F2
:103E500008080808080808080808080808080808E2
:103E600008080808080808080808080808080808D2
:103E700008080808080808080808080808080808C2
:103E800008080808080808080808080808080808B2
:103E900008080808080808080808080808080808A2
:0A3EA00008080808080808080800D0
:00000001FF
