:10000000A0C00000BAC00000B8C00000B6C0000028
:10001000B4C00000B2C00000B0C00000AEC000001C
:10002000ACC00000AAC00000A8C000000C94DB0E09
:10003000A4C00000A2C00000A0C000009EC000003C
:100040009CC000009AC0000098C00000C4C5000019
:1000500094C0000092C0000090C000008EC000005C
:100060008CC000008AC0000088C0000086C000006C
:1000700084C0000082C0000080C000007EC000007C
:100080007CC000007AC0000078C0000076C000008C
:1000900074C0000072C00000200347006C006F00B5
:1000A00077004200650061006E0047006C006F0041
:1000B0007700200056003200000030035400720028
:1000C00061006E0073006900730074006F007200BD
:1000D0002E004C00610062006F007200610074002D
:1000E0006F007200690065007300000004030904DA
:1000F0000902220001010080FA0904000001030046
:100100000000092111010001221D000705810308DB
:1001100000051201100100000008EB034F20010050
:10012000010200010600FF0901A101150026FF00E0
:100130007508950809028102090291020902B102BB
:10014000C00011241FBECFEFD4E0DEBFCDBF12E050
:10015000A0E0B1E0EEE4FBE202C005900D92A23314
:10016000B107D9F712E0A2E3B2E001C01D92AB37AC
:10017000B107E1F77FD50C94A51542CFCF92DF925E
:10018000EF92FF920F931F936B017C0120E030E010
:1001900040E05FE4D4D187FD0FC0C701B60120E085
:1001A00030E040E05FE497D1F8D18B019C01005032
:1001B00010402040304805C0C701B601EED18B0188
:1001C0009C01B801C9011F910F91FF90EF90DF9042
:1001D000CF900895A0E0B0E0E0EFF0E00C940315BC
:1001E000EC014B01FA018881823008F43EC1DB0149
:1001F0009C91923008F436C1843059F4943009F05F
:1002000034C1998111968C911197981709F027C1E3
:100210002CC1943009F426C19230A9F4823009F03F
:1002200024C1CE0128E0DC010D90CD01DA010D9250
:10023000AD012150C1F7D40111968C91119799818C
:100240008923818311C1823009F40CC1AA80BB804B
:10025000DB0112964D915C911397CC80DD80EE808E
:10026000FF8014960D911D912D913C911797C5011A
:10027000841B950BDC0197FF04C0AA27BB27A81B92
:10028000B90BA032B1050CF067C01816190684F539
:10029000280139010A2E04C0769467945794479434
:1002A0000A94D2F741E050E060E070E004C0440FEF
:1002B000551F661F771FAA95D2F7415050406040E6
:1002C0007040402351236223732381E090E0A0E03B
:1002D000B0E0411551056105710519F480E090E029
:1002E000DC018C019D0104291529262937293FC0ED
:1002F0000097E9F1AA0EBB1E260137010A2E04C0A1
:1003000076946794579447940A94D2F741E050E06A
:1003100060E070E004C0440F551F661F771FAA9568
:10032000D2F741505040604070404C215D216E2119
:100330007F2181E090E0A0E0B0E04115510561052A
:10034000710519F480E090E0DC016C017D01C428A6
:10035000D528E628F7280BC04A155B0524F400E0F1
:1003600010E0980104C05A01CC24DD247601898173
:10037000D40111969C911197891709F445C08823DF
:1003800029F00C191D092E093F0908C0D701C60123
:10039000801B910BA20BB30B8C019D0137FD04C098
:1003A0001182B382A2820BC081E08183B382A282D8
:1003B00030952095109501951F4F2F4F3F4F048387
:1003C0001583268337830DC0880F991FAA1FBB1F73
:1003D00084839583A683B7838281938101979383D6
:1003E000828384819581A681B781AC01BD01415092
:1003F0005040604070404F3F2FEF52072FEF620791
:100400002FE3720708F30BC08183B382A2820C0D25
:100410001D1D2E1D3F1D048315832683378383E016
:100420008083448155816681778177FF1DC0DB0120
:10043000CA0181709070A070B070769567955795DD
:100440004795842B952BA62BB72B84839583A68366
:10045000B7838281938101969383828305C0C9E229
:10046000D1E003C0E40101C0EF01CE01CDB7DEB79A
:10047000E0E10C941F15A0E2B0E0E1E4F2E00C949E
:100480001115DC01CB018D839E83AF83B88729834F
:100490003A834B835C83CE010596BE01675E7F4F36
:1004A00071D2CE010196BE016F5E7F4F6BD2CE013D
:1004B0004996BE016F5E7F4FAE01475F5F4F8ADE98
:1004C0008AD1462F572F682F792FCB01BA01A096DA
:1004D000E2E00C942D15A0E2B0E0E1E7F2E00C942C
:1004E0001115DC01CB018D839E83AF83B8872983EF
:1004F0003A834B835C83CE010596BE01675E7F4FD6
:1005000041D2CE010196BE016F5E7F4F3BD28A89F8
:1005100091E089278A8BCE014996BE016F5E7F4F9D
:10052000AE01475F5F4F56DE56D1462F572F682FDB
:10053000792FCB01BA01A096E2E00C942D15A8E129
:10054000B0E0E5EAF2E00C941115DC01CB018D83FB
:100550009E83AF83B88729833A834B835C83CE0124
:100560000596BE016F5E7F4F0DD2CE010196BE0192
:10057000675F7F4F07D28989823050F0898582304A
:1005800038F0CE014196BE01675F7F4F64D201C053
:100590008FEF6896E2E00C942D15ACE0B0E0E3ED4F
:1005A000F2E00C940F15DC01CB0189839A83AB83B5
:1005B000BC83CE010196BE016B5F7F4FE3D18D817D
:1005C000823069F1823058F1843039F02F813885DA
:1005D00037FD25C02F31310544F08E81882319F174
:1005E00000E010E020E030E822C08EE190E0821BC5
:1005F000930B09851A852B853C8504C03695279574
:10060000179507958A95D2F78E81882381F03095CA
:100610002095109501951F4F2F4F3F4F08C000E0C8
:1006200010E0980104C00FEF1FEF2FEF3FE7B80174
:10063000C9012C96E4E00C942B15A8E0B0E0E3E2AD
:10064000F3E00C940B156B017C011A8261157105A6
:100650008105910519F482E089835DC083E0898377
:100660000EE110E01C830B83CD82DE82EF82F886E0
:10067000C701B6015DD09C012150304037FF38C022
:10068000EE27FF27E21BF30B81E090E0A0E0B0E053
:100690000E2E04C0880F991FAA1FBB1F0A94D2F701
:1006A0000197A109B1098C219D21AE21BF2141E013
:1006B00050E060E070E00097A105B10519F440E05A
:1006C00050E0BA0104C0F694E794D794C794EA9531
:1006D000D2F7C42AD52AE62AF72ACD82DE82EF8213
:1006E000F8868EE190E0821B930B9C838B8313C072
:1006F0002115310581F0022E04C0CC0CDD1CEE1C4E
:10070000FF1C0A94D2F7CD82DE82EF82F886021BAC
:10071000130B1C830B83CE0101965DD0462F572F00
:10072000682F792FCB01BA012896E8E00C942715A1
:10073000CF92DF92EF92FF920F931F938B019C0158
:10074000003080E0180781E0280780E0380750F487
:100750000F3F11052105310509F088F480E090E094
:10076000DC0116C00030E0E01E07E0E02E07E1E00B
:100770003E0750F480E190E0A0E0B0E009C088E0DE
:1007800090E0A0E0B0E004C088E190E0A0E0B0E03C
:1007900040E250E060E070E0481B590B6A0B7B0BB5
:1007A0006801790104C0F694E794D794C7948A95B8
:1007B000D2F7D701C6018F5C9E4FFC018081481B98
:1007C000510961097109CA011F910F91FF90EF90C2
:1007D000DF90CF900895CF92DF92EF92FF920F9328
:1007E0001F93DC0114964D915D916D917C9117974B
:1007F0001196EC9111978C91823020F460618FEF0B
:1008000090E0A5C0843009F49DC0823009F494C002
:10081000411551056105710509F491C012968D913C
:100820009C9113972FEF823892070CF059C022E861
:100830003FEF281B390B2A31310564F56A017B0132
:10084000022E04C0F694E794D794C7940A94D2F782
:1008500081E090E0A0E0B0E004C0880F991FAA1FDB
:10086000BB1F2A95D2F70197A109B10984239523CB
:10087000A623B72341E050E060E070E00097A105B7
:10088000B10519F440E050E0BA014C295D296E2908
:100890007F2903C040E050E0BA01DB01CA018F7735
:1008A0009070A070B07080349105A105B10539F445
:1008B00047FF09C0405C5F4F6F4F7F4F04C0415CF2
:1008C0005F4F6F4F7F4F81E090E0403020E0520754
:1008D00020E0620720E4720738F580E090E024C051
:1008E000803891057CF58A019B010F77107020708C
:1008F0003070003411052105310539F447FF09C076
:10090000405C5F4F6F4F7F4F04C0415C5F4F6F4F44
:100910007F4F77FD03C081589F4F06C0769567953E
:100920005795479580589F4F97E0769567955795CF
:1009300047959A95D1F70BC080E090E005C080E024
:1009400090E005C08FEF90E040E050E0BA01982FB2
:10095000979599279795A62FAF77E795EE27E79577
:1009600086953A2F392B282F2E2B842F952FA32FA6
:10097000B22FBC01CD011F910F91FF90EF90DF903E
:10098000CF900895DC01FB014C9111965C91119779
:1009900012968C911297682F6F7770E0982F991F9D
:1009A0009927991F13962C911397822F880F892BC3
:1009B00090E0221F2227221F2183009739F541153D
:1009C00051056105710511F482E029C082E89FEFAD
:1009D0009383828327E0440F551F661F771F2A9554
:1009E000D1F783E0808309C0440F551F661F771F2E
:1009F00082819381019793838283403080E05807FE
:100A000080E0680780E4780778F320C08F3F910585
:100A100079F4411551056105710519F484E080836D
:100A2000089564FF03C081E0808310C010820EC06F
:100A30008F5790409383828383E0808387E0440FC5
:100A4000551F661F771F8A95D1F7706444835583BD
:100A5000668377830895CF93FC01DB019081923008
:100A600008F44CC08C91823008F448C0943069F48A
:100A70002181843039F411968C91119790E0821B7A
:100A8000910944C02223D1F13FC0843021F092303B
:100A900041F48230B1F111968C9111978823A1F124
:100AA0002DC0C181823001F111968C911197C81728
:100AB000D9F48281938112962D913C911397281736
:100AC000390794F082179307BCF044815581668101
:100AD000778114968D919D910D90BC91A02D8417D6
:100AE0009507A607B70718F4CC2341F00DC04817A7
:100AF00059076A077B0728F4CC2331F081E090E0A6
:100B000005C080E090E002C08FEF9FEFCF91089585
:100B10008093320290913402982B9093340208957E
:100B20000F931F9320913602223011F1233030F4BD
:100B3000213079F1FFD31F910F9108952E3F69F075
:100B40002F3FC1F78FEF60E040E025E535E500E09D
:100B500010E013D61F910F9108958FEF60E040E0F1
:100B60002FEF3FEF00E010E008D61F910F9108959E
:100B700030911201209136023217B1F080E06FEF10
:100B800040E02FEF3FEF00E010E0F7D51F910F910D
:100B9000089580E060E04FEF2FEF3FEF00E010E0BE
:100BA000ECD51F910F9108952FEF30E0FC013683B3
:100BB0002583C1CF8093320220913402982F9095E3
:100BC00092239093340283FF03C0809136028111F7
:100BD0000895E6D5BBC378941F920F920FB60F927B
:100BE00011242F933F934F935F936F937F938F9332
:100BF0009F93AF93BF93EF93FF93B2D518D7FF9115
:100C0000EF91BF91AF919F918F917F916F915F9184
:100C10004F913F912F910F900FBE0F901F901895FD
:100C200084B7877F84BF88E10FB6F8948093600013
:100C3000109260000FBE90E080E80FB6F8948093A9
:100C40006100909361000FBE8AEF60E043E077D7C8
:100C500081E060E040E07CD787D688E895E06AEDE7
:100C600075E0A6D580E995E07CD3DBD661D30E9400
:100C7000CC0E96C5D5DF78940FC0813041F480E06A
:100C800060E04FEF2FEF3FEF00E010E076D580916E
:100C90003602809312016AD380E091E00E943614FC
:100CA0000E94BC128ED5DCD6809136028230C1F013
:100CB000833018F38E3F59F08F3F49F78FEF60E094
:100CC00040E02FEF3FEF00E010E057D5E0CF8FEF8F
:100CD00060E040E025E535E500E010E04ED5D7CFF7
:100CE0009091120180913602981789F280E06FEF9F
:100CF00040E02FEF3FEF00E010E03FD5C8CF81E0AC
:100D000080933602089510923602089580E091E0B3
:100D10000E941D149091E20094609093E200882359
:100D200021F48EEF80933602089582E0809336029C
:100D3000089580E091E00C94DF1280910E01909173
:100D40000F01009729F0019790930F0180930E01F6
:100D50000895EF92FF920F931F93CF93DF9300D0EC
:100D6000CDB7DEB779014230C9F18FEF9FEF9A839B
:100D70008983CE0101969BD680913402F70180834E
:100D8000898181838A81828388E090E0F801918360
:100D9000808390913402809133029817A1F0898169
:100DA0009A81209134022093330290931101809311
:100DB000100181E00F900F90DF91CF911F910F9163
:100DC000FF90EF90089589819A81209110013091D0
:100DD00011018217930729F780E0ECCFC901EDD507
:100DE000F8019183808381E0E5CFCF93DF93E90120
:100DF000423059F0E6D58F3F29F0CE01B5D4DF91CE
:100E0000CF910895CE01E0D5F8CFC901B0D5DF91DB
:100E1000CF910895DA01933091F1943060F09132DE
:100E2000F1F09232A1F080E090E0E0E0F0E0119685
:100E3000FC93EE9308959130D1F09230A1F782E2C5
:100E400090E0E0EFF0E01196FC93EE9308958DE1D1
:100E500090E0E4E2F1E01196FC93EE93089589E0CE
:100E600090E0E2E0F1E01196FC93EE93089582E1C8
:100E700090E0E2E1F1E01196FC93EE930895813069
:100E800071F0813028F4ECEEF0E0849190E0CFCF67
:100E9000823049F6E8E9F0E0849190E0C8CFEAEBCF
:100EA000F0E0849190E0C3CFFC0180911301808336
:100EB0008091140181838091150182838FEF9FEFD0
:100EC000948383838FEF90E0968385830895FC015C
:100ED0008FEF80831182828385E595E594838383F8
:100EE00081E090E0968385830895FC01809149021A
:100EF000833009F461C08430D0F0853009F442C0F9
:100F0000853030F1863009F463C0809146029091BB
:100F10004702209148028083918322838FEF9FEFC5
:100F20009483838388E090E096838583089581305D
:100F3000B1F18230D0F080914602882309F45EC07E
:100F40008150809346029091470220914802E3CF5E
:100F500090914702992309F448C091509093470219
:100F60008091460220914802D6CF809146028F3F61
:100F700009F455C08F5F80934602909147022091FB
:100F80004802C9CF809146028F3FA1F786E0809347
:100F9000490290914702209148028FEFBCCF909177
:100FA00047029F3F09F44DC09F5F90934702809195
:100FB000460220914802AFCF209148022F3FC1F155
:100FC0002F5F209348028091460290914702A3CF61
:100FD000209148022223D9F481E080934902809134
:100FE00046029091470220E096CF85E08093490227
:100FF000809146022091480290E08DCF83E080935B
:101000004902909147022091480280E084CF21500C
:101010002093480280914602909147027CCF81E064
:101020008093490290914702209148028FEF73CF3D
:1010300084E08093490280914602909147022FEF0D
:101040006ACF82E080934902809146022091480253
:101050009FEF61CFFC0110821182128214821382F1
:10106000168215820895CF93DF93CDB7DEB7289708
:101070000FB6F894DEBF0FBECDBFCE010196F2D3FE
:1010800080913F02823079F18330A1F0882349F4C6
:101090008981809313018A81809314018B818093CD
:1010A000150128960FB6F894DEBF0FBECDBFDF91B5
:1010B000CF91089510924102109240021092420284
:1010C0001092430210923B0210923D02EFD3909394
:1010D0004502809344028038910518F3109245022E
:1010E00010924402DECF10924602109247021092F4
:1010F000480210924902D5CFCF93DF93EC01809143
:10110000440290914502009709F474C080913E0218
:101110008F70813009F441C080914002909141026A
:1011200067E372E0D3D380913E028F7090E081300C
:10113000910509F4C2C08330910509F4DCC0009721
:10114000A9F4809137028883809138028983809145
:1011500039028A8380913A0290913B029C838B836F
:1011600080913C0290913D029E838D83809140024C
:101170009091410201969093410280934002209108
:1011800044023091450228173907B8F51092410200
:1011900010924002DF91CF91089580913B02882305
:1011A00079F580914202882369F591E080913D02B2
:1011B000882309F497C080914302815080934302B1
:1011C0008823D9F480913D028823B9F080913C02B4
:1011D0008093430280913D02815080933D02809133
:1011E0003E02807309F08FC08B819C8168D49C8300
:1011F0008B8303C084E080933F02DF91CF910895F9
:1012000080914202815080934202882309F064C099
:1012100080913B02882309F45FC080913A02809359
:10122000420280913B02815080933B0228814A8197
:10123000698180913702992787FD9095820F911DD2
:1012400020913902332727FD3095240F311D40911D
:101250003802552747FD5095460F511D60913702C2
:10126000161634F48F3F910519F014F08FEF90E0CB
:101270006091370267FD57C060913902161634F449
:101280002F3F310519F014F02FEF30E06091390253
:1012900067FD44C060913802161634F44F3F510583
:1012A00019F014F04FEF50E06091380267FD31C043
:1012B00088832A83498390E079CF20913A02209352
:1012C000420220913C02209343029E838D838091B1
:1012D0004002909141024ECF90E080913D028823E0
:1012E00009F069CF80914302882309F066CF9923E2
:1012F00009F483CF11CF8091370290913802019782
:101300001E821D8237CF8B819C81E0D39C838B838F
:1013100074CF57FFCDCF40E050E0CACF37FFBACFF0
:1013200020E030E0B7CF97FFA7CF80E090E0A4CFD8
:101330009ACE0895E0913F02F0E0EE0FFF1FEA5EC3
:10134000FE4F0190F081E02D0995089580913F02B4
:10135000843021F08F5F80933F0285CE10923F0250
:1013600082CE90934B0280934A02B7C320914F02E2
:1013700080914C0290E09093890080938800809146
:101380004E0290E090938D0080938C0080914D02EE
:1013900090E090938B0080938A0020FD2D9AE0913D
:1013A0002001F0912101208181E090E00090220154
:1013B00002C0880F991F0A94E2F7809582238083E8
:1013C00085E290E0909321018093200185E0809355
:1013D00022018FE891E00197F1F700C00000209111
:1013E0004F0280914C0290E0909389008093880096
:1013F00080914E0290E090938D0080938C008091BC
:101400004D0290E090938B0080938A0021FF03C0EF
:101410002C9A20914F022D9885E290E09093210123
:101420008093200184E0809322018FE891E001976E
:10143000F1F700C0000080914C0290E09093890089
:101440008093880080914E0290E090938D0080936D
:101450008C0080914D0290E090938B0080938A00E5
:1014600022FF03C0289A20914F022C9885E290E039
:101470009093210180932001109222018FE891E046
:101480000197F1F700C0000080914C0290E090932A
:1014900089008093880080914E0290E090938D00A7
:1014A00080938C0080914D0290E090938B0080930C
:1014B0008A0023FF03C05D9A20914F0228988BE297
:1014C00090E0909321018093200185E08093220198
:1014D0008FE891E00197F1F700C0000080914C0285
:1014E00090E0909389008093880080914E0290E074
:1014F00090938D0080938C0080914D0290E09093AA
:101500008B0080938A0024FF03C05C9A20914F02D5
:101510005D988BE290E0909321018093200184E01C
:10152000809322018FE891E00197F1F700C000005D
:1015300080914C0290E09093890080938800809184
:101540004E0290E090938D0080938C0080914D022C
:1015500090E090938B0080938A0025FF03C0599AF6
:1015600020914F025C988BE290E090932101809350
:10157000200181E0809322018FE891E00197F1F74B
:1015800000C0000080914C0290E09093890080930D
:10159000880080914E0290E090938D0080938C00A3
:1015A00080914D0290E090938B0080938A0026FFFB
:1015B00003C0589A20914F0259988BE290E0909383
:1015C000210180932001109222018FE891E0019780
:1015D000F1F700C0000080914C0290E090938900E8
:1015E0008093880080914E0290E090938D008093CC
:1015F0008C0080914D0290E090938B0080938A0044
:1016000027FD429A589888E290E0909321018093B8
:10161000200182E0809322018FE891E00197F1F7A9
:1016200000C0000080914F029091500220914C0226
:1016300030E0309389002093880020914E0230E002
:1016400030938D0020938C0020914D0230E0309338
:101650008B0020938A0090FD449A429888E290E0A3
:10166000909321018093200184E0809322018FE8F0
:1016700091E00197F1F700C0000080914F02909136
:10168000500220914C0230E0309389002093880072
:1016900020914E0230E030938D0020938C002091F9
:1016A0004D0230E030938B0020938A0091FD479AE1
:1016B000449888E290E0909321018093200187E094
:1016C000809322018FE891E00197F1F700C00000BC
:1016D00080914F029091500220914C0230E0309363
:1016E00089002093880020914E0230E030938D00D5
:1016F00020938C0020914D0230E030938B0020939A
:101700008A0092FD2E9A479885E290E090932101FD
:101710008093200186E0809322018FE891E0019779
:10172000F1F700C000002E9880915402882369F0E0
:10173000109254028091510290915202009739F018
:101740000197909352028093510281E00895E091B5
:101750004A02F0914B028CE492E0099581E00895F1
:1017600081E0809354020895ACE4B2E0FC0188E08B
:1017700001900D928150E1F708950F931F9380938C
:101780004C0260934D0240934E02309350022093DE
:101790004F0210935202009351021F910F9108952E
:1017A000ECE4F2E088E0DF011D928A95E9F7089504
:1017B0009093600280935F02709362026093610273
:1017C0000895E0915702F0E089B18095E85AFD4F05
:1017D0008083809157028F5F8093570280915802D7
:1017E00090915902892390915A02892390915B022A
:1017F000892390915C0220915E0220935D029823E0
:10180000987C90935E0280915D0290915E0280953B
:1018100089238093560280915E0290915D028095AB
:1018200089238093550280915702853010F01092E1
:10183000570280915602882369F4809155028823CB
:1018400009F4089580915502E0916102F0916202DD
:101850000995089580915602E0915F02F09160022F
:101860000995EBCF0F931F93CF93DF93EC018DEF8F
:1018700093E00E946515082F8CEF93E00E94651598
:10188000182F8BEF93E00E946515088319838A83D4
:101890008FE790E09E838D83DF91CF911F910F9111
:1018A0000895BC0189EF93E00C94931589EF93E0C0
:1018B0000C946D15660F771F660F771F660F771FE5
:1018C0006050704048E050E00C9472150F931F93E5
:1018D000CF93DF93CDB7DEB728970FB6F894DEBF6E
:1018E0000FBECDBF8B019C01220F331F220F331F70
:1018F000220F331F20503040CE010196B90148E03D
:1019000050E00E945515F801DE01119688E00D9017
:1019100001928150E1F728960FB6F894DEBF0FBE12
:10192000CDBFDF91CF911F910F9108951F93CF935A
:10193000DF930F92CDB7DEB7282F162F8DEF93E0F0
:10194000622F49830E9497158CEF93E0612F0E94CC
:1019500097158BEF93E04981642F0E9497150F90A4
:10196000DF91CF911F910895109263020895FC01B9
:101970008081882329F4828163814481D7CF0895AF
:101980008130E9F78281982F91509230C0F780938F
:101990006302823051F08FEF9FEF90932401809388
:1019A00023018FEF8093630208958091230190912A
:1019B000240177DF10926302089554DF88E090E0FD
:1019C0000895809163020895CF93DF93CDB7DEB77A
:1019D00028970FB6F894DEBF0FBECDBF20916302EB
:1019E0002F3F49F028960FB6F894DEBF0FBECDBF4B
:1019F000DF91CF91089560912301709124016F5F71
:101A00007F4F7093240160932301DE011196FC0146
:101A100088E001900D928150E1F7CE0101964ADFF6
:101A2000E1CF229A219A529A81E58CBD0895809146
:101A30002601909127010197909327018093260119
:101A40008091260190912701009749F481E090E070
:101A5000909327018093260181E0809325010895CA
:101A600080912501882311F15A981EBC0DB407FE00
:101A7000FDCF8EB51EBC0DB407FEFDCF6EB55A9AD4
:101A8000809364026093650265FF0EC0869567953A
:101A900066276795682B70E080E090E00E941D0348
:101AA0000E94BE00609328011092250108952091A4
:101AB000640230916502FC013183208308959C010A
:101AC000220F331F92FD2160C90108959C013695B4
:101AD000279580FD3460C9010895E0E8F0E0808139
:101AE00081608083A1E8B0E08C9188608C938081D4
:101AF000806C808380818063808380818C60808320
:101B0000109289001092880010928B0010928A0027
:101B100010928D0010928C0087B1846F87B984B1C8
:101B2000816F84B98AB183638AB98C9181608C9307
:101B30005398569857985B9A5E9A5F9A089594B511
:101B4000916094BD95B5492B45BD87BD68BD08958D
:101B5000882329F080916E00826080936E00662356
:101B600029F080916E00846080936E000895853026
:101B700098F58093E900982F242F762F50E021FFCD
:101B800019C03091EB003E7F3093EB003091ED00B7
:101B90003D7F3093ED003091EB0031603093EB00EE
:101BA0007093EC002093ED005093F0002091EE0034
:101BB00027FF1BC09F5F953079F09093E90089174C
:101BC00081F07091EC002091ED005091F00021FD2A
:101BD000D8CF9F5F953089F78F708093E90081E0BF
:101BE0000895242F762F50E0CACF80E008950F93F8
:101BF0001F93CF93DF93062F662379F1EC0110E05A
:101C00009881992331F16B81E981FA812C81892FA7
:101C10008F70853040F56295660F660F607C991F66
:101C20009927991F692B223020F146E096E0E93090
:101C3000F10560F028E030E040E04F5F220F331FF5
:101C40002E173F07D0F34295407F492B90DF882322
:101C500051F01F5F2596101799F681E0DF91CF9123
:101C60001F910F91089580E0DF91CF911F910F9107
:101C7000089542E092E0DBCF8091730287FD09C0B6
:101C80008091E80080FD0EC0809172028823C1F728
:101C900008958091E80082FD0BC080917202882334
:101CA000C1F708958091E8008E778093E800089549
:101CB0008091E8008B778093E80008952091E400FC
:101CC0003091E50045E68091EC0080FF1CC08091DA
:101CD000E80080FD26C0809172028823D1F0853013
:101CE000D1F08091EB0085FD18C08091E4009091C7
:101CF000E5002817390739F3415089F09C0180919C
:101D0000EC0080FDE4CF8091E80082FFE4CF80E02A
:101D1000089582E0089583E0089581E0089584E0C5
:101D2000089580E0089541D043D08091D8008F7706
:101D30008093D8008091D80080688093D8008091EB
:101D4000D8008F7D8093D80084E089BD86E089BD6E
:101D500009B400FEFDCF1092720210926E02109232
:101D6000700210926F0280E060E042E000DF80913C
:101D7000E1008E7F8093E1008091E200816080939A
:101D8000E2008091E20088608093E2008091E000B0
:101D90008E7F8093E0000895E3E6F0E080818E7FFF
:101DA000808381E080937102BECF1092E20008959B
:101DB0001092E10008951F920F920FB60F92112416
:101DC0002F933F934F935F936F937F938F939F9343
:101DD000AF93BF93EF93FF938091E10082FF04C024
:101DE0008091E20082FD86C08091E10080FF04C006
:101DF0008091E20080FD69C08091E10084FF2DC0E8
:101E00008091E20084FF29C084E089BD86E089BD1D
:101E100009B400FEFDCF8091D8008F7D8093D8005B
:101E20008091E1008F7E8093E1008091E2008F7EBF
:101E30008093E2008091E20081608093E2008091D3
:101E40006E02882309F05EC08091E30087FF5EC0C8
:101E500084E0809372020E947F068091E10083FFFC
:101E600004C08091E20083FD11C0FF91EF91BF910A
:101E7000AF919F918F917F916F915F914F913F9122
:101E80002F910F900FBE0F901F9018958091E10039
:101E9000877F8093E10082E08093720210926E024D
:101EA0008091E1008E7F8093E1008091E2008E7F3F
:101EB0008093E2008091E20080618093E20080E004
:101EC00060E042E054DE57D3D0CF8091E2008E7FB5
:101ED0008093E2008091E20080618093E200809133
:101EE000D80080628093D80019BC109272020E94C0
:101EF000830682CF8091E1008B7F8093E1000E9476
:101F00009D0672CF84E080937202A5CF81E0A1CFBD
:101F1000AF92BF92CF92DF92FF920F931F93CF9316
:101F2000DF93EC018B016A01C9DEF82E882339F5B5
:101F3000C114D10439F0F60180819181081B190B7D
:101F4000C80FD91F01151105D1F0C114D10449F0F2
:101F500021C089918093F1000150104001151105B5
:101F600071F08091E80085FDF4CF8091E8008E77D4
:101F70008093E80001D3A2DE882381F3F82E8F2D11
:101F8000DF91CF911F910F91FF90DF90CF90BF9085
:101F9000AF900895AA24BB248091E80085FF0DC06E
:101FA00089918093F1000894A11CB11C0A151B05AE
:101FB00031F38091E80085FDF3CF8091E8008E77C2
:101FC0008093E800D9D2F601808191818A0D9B1D12
:101FD0009183808365E0F62ED2CF209179023091F3
:101FE0007A022617370758F06115710509F067C0A6
:101FF0002091E8002E772093E80020E030E060E0B8
:102000002115310539F5662309F44DC0409172025E
:10201000442309F456C0453009F455C04091E80006
:1020200043FD53C04091E80042FD3DC04091E800AF
:1020300040FFECCF4091F20050E061E048305105A4
:1020400009F060E04091E8004E774093E8002115E8
:102050003105C9F240917202442399F1453099F15A
:102060004091E80043FD31C04091E80042FD1BC0B3
:102070004091E80040FFEECF4091F20050E0483040
:102080005105D8F6FC0103C048305105B1F28191E9
:102090008093F100CF01215030404F5F5F4F2115F9
:1020A000310591F7CACF8091E80082FD10C0809180
:1020B0007202882331F08530B1F783E008959B01E7
:1020C0009ECF82E0089583E0089581E0089580E046
:1020D00008956115710529F42091E8002B7720936C
:1020E000E800382F292F6115710521F180917202C6
:1020F000882361F1853061F18091E80083FD2AC079
:102100008091E80082FFF2CFE32FF22F3E2F2F2F96
:102110008091F200882341F08091F10081933E2F5D
:102120002F2F6150704091F78091E8008B7780935A
:10213000E800D9CF8091E80080FD0EC08091720246
:10214000882321F08530B1F783E0089582E0089577
:1021500083E0089581E0089580E008952091790258
:1021600030917A022617370758F06115710509F08A
:1021700066C02091E8002E772093E80020E030E050
:10218000FC0140E02115310539F5442309F44BC029
:1021900080917202882309F454C0853009F453C039
:1021A0008091E80083FD51C08091E80082FD3BC032
:1021B0008091E80080FFECCF8091F20090E041E058
:1021C0008830910509F040E08091E8008E77809397
:1021D000E80021153105C9F280917202882389F146
:1021E000853089F18091E80083FD2FC08091E8005F
:1021F00082FD19C08091E80080FFEECF8091F2004F
:1022000090E08830910520F0DACF88309105B9F25E
:1022100044914093F10031962150304001962115B0
:10222000310599F7CCCF8091E80082FD10C08091F4
:102230007202882331F08530B1F783E008959B0165
:102240009FCF82E0089583E0089581E0089580E0C3
:1022500008950F931F93CF93DF93CDB7DEB7AC975D
:102260000FB6F894DEBF0FBECDBF8091F100809312
:1022700073028091F100809374028091F100809349
:1022800075028091F100809376028091F100809335
:1022900077028091F100809378028091F100809321
:1022A00079028091F10080937A020E9499068091D0
:1022B000E80083FF12C09091730280917402853010
:1022C00009F461C0863010F1883009F4E2C0893029
:1022D00009F4C4C0863009F479C08091E80083FF16
:1022E0000AC08091EB0080628093EB008091E8004F
:1022F000877F8093E800AC960FB6F894DEBF0FBEE0
:10230000CDBFDF91CF911F910F910895813029F0BA
:10231000813008F481C0833001F7992309F4CCC0DF
:102320009230D9F680917502882321F520917702A9
:102330002F7099F22093E9008091EB0080FF1AC082
:1023400080917402833009F40EC18091EB008061AA
:102350008093EB0081E090E002C0880F991F2A95DE
:10236000E2F78093EA001092EA008091EB00886027
:102370008093EB001092E9008091E800877F8093C2
:10238000E8007ADCAACF992309F0A7CF1091750253
:102390001F770FB7F8948091E800877F8093E8005B
:1023A0006BDC8091E80080FFFCCF8091E3008078B7
:1023B000812B8093E30080688093E300112309F070
:1023C00090C082E0809372020FBF87CF9058923006
:1023D00008F083CF809175029091760223E08C3DC6
:1023E000920709F480C060917702AE014F5F5F4FA2
:1023F0000E940A07BC01009709F46FCF8091E800A2
:10240000877F8093E80089819A81A8DE8091E80027
:102410008B778093E80061CF903809F459C09238E7
:1024200009F05BCF809177028F708093E9008091F3
:10243000EB0091E085FF90E01092E9008091E800C8
:10244000877F8093E8009093F1001092F1008091D3
:10245000E8008E778093E8000FDC3FCF992309F0E6
:102460003CCF80917502823008F037CF9091E80020
:10247000977F9093E80080936E02FEDB80916E025E
:10248000882309F468C084E0809372020E94860663
:1024900024CF903809F021CF8091E800877F809386
:1024A000E80080916E028093F1008091E8008E77C1
:1024B0008093E800E1DB11CF90917502913009F033
:1024C0000CCF91E0833009F090E09093700252CFEE
:1024D00090916F0280917002882309F4AFCF9260CF
:1024E000ADCF83E06FCF83E08C838AE28B836FB7BD
:1024F000F894DE01159680E090E04EE051E209C0CC
:1025000030E0295C3F4F2D933D9301968431910536
:1025100089F0E42FF0E050935700249180FF03C02E
:1025200022952F704F5F2F702A3050F730E0205DDA
:102530003F4FE9CF6FBF8091E800877F8093E8002D
:10254000CE0103966AE270E048DD8091E8008B7767
:102550008093E800C2CE8091E30087FF0AC084E048
:102560008093720293CF8091EB0080628093EB00A6
:1025700001CF81E0F5CF0895CF9380917202882337
:1025800091F08091E9008F709091EC0090FD0DC06A
:10259000C0E0C82B1092E9008091E80083FD0DC0D7
:1025A000CF70C093E900CF910895C0E8C82B109276
:1025B000E9008091E80083FFF3CF4BDEF1CF6F920B
:1025C0007F928F929F92AF92BF92CF92DF92EF92C3
:1025D000FF920F931F93CF93DF9300D000D0CDB71E
:1025E000DEB76C01EDB6FEB68091E80083FF0AC04D
:1025F000F601808190E020917702309178022817CF
:102600003907C1F00FB6F894FEBE0FBEEDBE0F90B5
:102610000F900F900F90DF91CF911F910F91FF902E
:10262000EF90DF90CF90BF90AF909F908F907F9072
:102630006F90089580917402833009F463C08430F0
:10264000D0F4813009F4A8C08230E1F680917302A1
:10265000813AC1F68091E800877F8093E8008091FD
:10266000E80080FFFCCFF6018485958596958795D7
:102670009695879557C08A3009F471C08B3009F45C
:102680005AC0893009F0BECF80917302813209F0BF
:10269000B9CF7DB68EB60091790210917A029090F2
:1026A00075024091760241508DB79EB7801B910B09
:1026B0000FB6F8949EBF0FBE8DBFADB6BEB60894E0
:1026C000A11CB11C8091E800877F8093E800C501C0
:1026D000B8014C83FEDC8091E8008E778093E8009F
:1026E0004C819501992009F4A5C02F5F3F4F81E0EF
:1026F00090E0081B190BC601692D0E94F5067DBEEE
:102700008EBE80CF80917302813A09F07BCF809199
:10271000E800877F8093E8008091E80080FFFCCF8D
:10272000F60181858093F1008091E8008E77809397
:10273000E800A2DA67CF80917302813209F062CF9C
:102740008091E800877F8093E80096DA9091750287
:1027500081E0992309F480E0F601818753CF8091CD
:102760007302813209F04ECF8091E800877F809319
:10277000E80082DA809175029091760280700024E0
:10278000880F991F001C880F991F001C892F902DFE
:10279000F6019587848736CF80917302813A09F0DC
:1027A00031CF7DB66EB61B821A8280917502009180
:1027B00076028983F60140858DB79EB7841B910907
:1027C0000FB6F8949EBF0FBE8DBFADB6BEB60894CF
:1027D000A11CB11C9A2C8B2CC50160E070E050E06C
:1027E0005DD1402F4150C601BE016F5F7F4F950103
:1027F0008E010E5F1F4F0E94A906F6018681978108
:10280000009721F04085B50150E03FD11092E900DA
:102810008091E800877F8093E8006A817B81892D21
:10282000982DDBDB8091E8008B778093E8007DBEFC
:102830006EBEE8CE80E090E05CCFCF93DF93FC01EA
:102840000996DC0187E0ED0119928A95E9F781E0AC
:10285000818784EF91E09587848783E08483CF012B
:10286000019661E0C4D9DF91CF9108954F925F92B4
:102870006F927F928F929F92AF92BF92CF92DF9290
:10288000EF92FF920F931F93CF93DF9300D00F929D
:10289000CDB7DEB77C01CDB6DEB680917202843052
:1028A000C9F00FB6F894DEBE0FBECDBE0F900F90EC
:1028B0000F90DF91CF911F910F91FF90EF90DF90DC
:1028C000CF90BF90AF909F908F907F906F905F90D0
:1028D0004F9008958091E4009091E500F7012285E2
:1028E000338528173907E9F281818F708093E900D9
:1028F0008091E80085FFD5CF7DB66EB640858DB757
:102900009EB7841B91090FB6F8949EBF0FBE8DBF72
:102910000DB71EB70F5F1F4F19821B821A82902EB0
:10292000812EC80160E070E050E0B8D0C701BE0160
:102930006F5F7F4F40E098018E010E5F1F4F0E9436
:10294000A906182FF70184859585009709F44CC0D6
:1029500021E030E086859785009709F04AC029017B
:10296000F701A680B780A114B10409F448C04A81D8
:102970005B81892D982DB5017BD001E00097B9F1DD
:10298000F7014085C501692D782D50E07ED08A8100
:102990009B810097F9F0112329F4002319F44114C5
:1029A0005104C1F0F70184859585978786878181D9
:1029B0008F708093E90089818823F1F46A817B819B
:1029C000892D982D40E050E0A3DA8091E8008E77C1
:1029D0008093E8008091E4009091E500F7019387EF
:1029E00082877DBE6EBE5DCF44245524B9CF00E002
:1029F000C7CF20E030E0B3CF8093F100DFCF00E01D
:102A0000C6CF2F923F924F925F926F927F928F929A
:102A10009F92AF92BF92CF92DF92EF92FF920F936D
:102A20001F93CF93DF93CDB7DEB7CA1BDB0B0FB677
:102A3000F894DEBF0FBECDBF09942A883988488834
:102A40005F846E847D848C849B84AA84B984C884CA
:102A5000DF80EE80FD800C811B81AA81B981CE0FC1
:102A6000D11D0FB6F894DEBF0FBECDBFED010895A6
:102A7000FB01DC0104C08D910190801921F44150CB
:102A80005040C8F7881B990B0895FB01DC0102C078
:102A900001900D9241505040D8F70895DC0101C0DB
:102AA0006D9341505040E0F70895DC01CB01FC01EB
:102AB000F999FECF06C0F2BDE1BDF89A319600B497
:102AC0000D9241505040B8F70895F999FECF92BD4C
:102AD00081BDF89A992780B50895A8E1B0E042E059
:102AE00050E0E5CFDC01A40FB51F4150504040F04D
:102AF000CB01840F951F2E9105D041505040D8F73F
:102B00000895262FF999FECF92BD81BDF89A0197BD
:102B100000B4021639F01FBA20BD0FB6F894FA9A25
:102B2000F99A0FBE08950196272FECDFEACF262FE2
:102B3000F999FECF1FBA92BD81BD20BD0FB6F894A2
:0E2B4000FA9AF99A0FBE01960895F894FFCF05
:102B4E00008108000001660208000000000000007D
:102B5E00FFFFFDFFFFFF5407670775077C082A0874
:102B6E00250005FFFF010100150000000000000018
:102B7E00000001020203030303040404040404041A
:102B8E0004050505050505050505050505050505E8
:102B9E0005060606060606060606060606060606C8
:102BAE0006060606060606060606060606060606B7
:102BBE000607070707070707070707070707070798
:102BCE000707070707070707070707070707070787
:102BDE000707070707070707070707070707070777
:102BEE000707070707070707070707070707070767
:102BFE000708080808080808080808080808080848
:102C0E000808080808080808080808080808080836
:102C1E000808080808080808080808080808080826
:102C2E000808080808080808080808080808080816
:102C3E000808080808080808080808080808080806
:102C4E0008080808080808080808080808080808F6
:102C5E0008080808080808080808080808080808E6
:102C6E0008080808080808080808080808080808D6
:022C7E0008004C
:00000001FF
